:020000040800F2
:10000000E8060020250500082D0500082F0500083A
:100010003105000833050008350500080000000020
:1000200000000000000000000000000009020008BD
:100030003905000800000000AD0200080D030008AB
:100040003F0500083F0500083F0500083F05000880
:100050003F0500083F0500083F0500083F05000870
:100060003F0500083F0500083F0500083F05000860
:100070003F0500083F0500083F0500083F05000850
:100080003F0500083F0500083F0500083F05000840
:100090003F0500083F0500083F0500083F05000830
:1000A0003F0500083F0500083F0500083F05000820
:1000B0003F0500083F0500083F0500083F05000810
:1000C0003F0500083F0500083F0500083F05000800
:1000D0003F0500083F0500083F0500083F050008F0
:1000E0003F0500083F0500083F0500083F050008E0
:1000F0003F0500083F0500083F0500083F050008D0
:100100003F0500083F0500083F0500083F050008BF
:100110003F0500083F0500083F0500083F050008AF
:100120003F0500083F0500083F0500083F0500089F
:100130003F0500083F0500083F0500083F0500088F
:100140003F0500083F0500083F0500083F0500087F
:100150003F0500083F0500083F0500083F0500086F
:100160003F0500083F0500083F0500083F0500085F
:100170003F0500083F0500083F0500083F0500084F
:100180003F0500083F050008DFF814D002F0B0FB7F
:100190000021024802F056FEFEE70000B83C0008CD
:1001A000E806002080F309887047684680F30988D4
:1001B00004480078C00714BF0220032080F314888D
:1001C00070470000803C0008DFF818C0EFF305839B
:1001D0001B0618BF6047EFF31483DB0708BF6047B7
:1001E00000DF7047412F0008DFF818C0EFF30583E8
:1001F0001B0618BF6047EFF31483DB0708BF604797
:1002000000DF70471D310008EFF30980816911F8A4
:10021000021C002933D190E80F1010B5E047BDE86B
:100220001040EFF3098C8CE807001D4B93E80600A3
:10023000914208BF704781B11EF0100F06BF2CED30
:10024000108A0120002081F820002CE9F00FC1F86D
:1002500024C00CB403F030FA0CBC1A60D2F824C0ED
:10026000BCE8F00F92F8200000281ABFBCEC108AFE
:100270006FF0120E6FF0020E8CF30988704710B504
:10028000084A1268914209D8074C54F8214090E876
:100290000F10A047EFF3098C8CE80F0010BD000091
:1002A00064000020542900085429000810B503F008
:1002B000DBF8BDE81040174B93E80600914208BFF9
:1002C0007047EFF3098C1EF0100F06BF2CED108A5B
:1002D0000120002081F820002CE9F00FC1F824C093
:1002E0000CB403F0E9F90CBC1A60D2F824C0BCE8E5
:1002F000F00F92F8200000281ABFBCEC108A6FF0B3
:10030000120E6FF0020E8CF30988704710B503F0DF
:1003100099FACEE7640000200CB50020019000900F
:100320007548006840F480307349086000BF724827
:10033000006800F4003000900198401C0190009883
:1003400018B90198B0F5A06FF1D16B48006810F4AE
:10035000003F02D00120009001E0002000900098B2
:10036000012845D164484030006840F0805062491F
:10037000403108606148006840F480405F4908608F
:100380005D48083000685C4908310860084600682C
:1003900040F4004008600846006840F4A05008603F
:1003A0005748091F0860081F006840F08070091F47
:1003B000086000BF5048006810F0007FFAD040F29B
:1003C0000560504908604C480830006820F0030080
:1003D0004949083108600846006840F0020008609A
:1003E00000BF45480830006800F00C000828F8D12C
:1003F0000CBD10B54448006840F4700042490860E4
:100400003D48006840F001003B49086000203A493F
:1004100008310860384800683C490840364908609F
:100420003B48091D0860081F006820F48020091F50
:100430000860002030490C310860FFF76DFF4FF075
:10044000006031498039086010BD70B5002000227D
:10045000022300240221284D08352D6805F00C00E8
:1004600020B1042806D0082834D107E0294D2A4EAF
:10047000356033E0294D284E35602FE01E4D2D1D8F
:100480002D68C5F380541C4D2D1D2D6805F03F01CE
:1004900054B1224DB5FBF1F5174E361D3668C6F343
:1004A000881605FB06F209E01A4DB5FBF1F5124E70
:1004B000361D3668C6F3881605FB06F20E4D2D1D57
:1004C0002D68C5F301456D1C6B00B2FBF3F5124EB0
:1004D000356003E00F4D104E356000BF00BF064D84
:1004E00008352D68C5F303150D4E705D0A4D2D6856
:1004F000C540094E356070BD0038024000700040B4
:1005000008544007003C024088ED00E0FFFFF6FE83
:10051000103000240024F4000000002000127A00B3
:10052000040000200648804706480047FEE7FEE733
:10053000FEE7FEE7FEE7FEE7FEE7FEE7FEE7FEE793
:10054000F30300088901000800BFFEE700BFFEE7D3
:100550001CB500F0C1FC00F009FD4FF0640A4CF23C
:10056000503400F0F6FA05E000E0641E002CFCD1E7
:10057000AAF1010ABAF1000FF6D1E5E001A800F0F6
:1005800095FB9DF8040047B29DF805004FFA80F8EE
:1005900007F0FF0908F0FF000090B9F1410F02D108
:1005A00041206A490870B9F1420F02D142206749DF
:1005B00008706648007841282ED14246394664A02A
:1005C00002F0CAF900EE107AB8EEC00ADFED640A54
:1005D00020EE200ABDEEC00A10EE100A40F20E61B5
:1005E000081A6049086000EE108AB8EEC00ADFED14
:1005F0005E0A20EE200ABDEEC00A10EE100A40F29C
:10060000DC51081A594908605648006800F030FC6F
:100610005648006800F046FC4C48007842287CD1DF
:10062000009844280DD1494651A002F095F953484D
:100630005349096800F8019051480068401C50492E
:100640000860B9F1440F7ED14C494EA002F084F904
:100650004A4802F014F94C49086008460068032132
:1006600090FBF1F04949086008460068032190FBBF
:10067000F1F0474908600846036844480268424868
:10068000016844A002F068F94048D0F800B04FEA91
:100690008B0002F0A1FB054639E0002633E0374825
:1006A000805D2A2814D13549B01C085C30380A46D0
:1006B000711C515C303901EB810100EB410045F8C0
:1006C000240055F82420214639A002F045F9641C85
:1006D0002A48805D232815D12849B01C085C303891
:1006E0000A46711C515C303901EB810100EB41007D
:1006F000404245F8240055F8242021462CA002F061
:100700002BF9641C761C204800688642C7DB1F4812
:1007100000688442C1DB00260CE014E0B01C55F8F0
:100720002030701C55F8202055F8261023A002F028
:1007300013F9F61C15480068C01EB042EEDC2846CE
:1007400002F0DCFA00BF00BF18E70000380000200C
:100750004D4F444520313A2025642025640A00008D
:100760005C8F32413C0000208FC22D4140000020B0
:100770004D4F444520323A2025630A0039000020BD
:100780002400002025730A00280000202C000020EF
:100790003400002073697A653A2025642C206E7538
:1007A0006D2025642C207365742025640A000000E8
:1007B000725B25645D203D2025640A0073657473B7
:1007C000203C25642C2025642C2025643E0A000052
:1007D0001149096811F0010F0ED00F4980390968DD
:1007E00011F0010F08D000BF4FF0604109680029E7
:1007F000FAD04FF060421070704770B504460D4655
:100800002046FFF7E5FF70BD10B504462046FFF710
:10081000DFFF10BD00BFFEE7800E00E0704710B59F
:1008200004464FF48050FC49086009E0FA49086822
:10083000411EF94A116018B9FFF7F0FFC0B210BDB0
:100840000221F64801F08FF90028EFD02146F34845
:1008500001F052F94FF48050EF49086009E0EE4989
:100860000868411EEC4A116018B9FFF7D7FFC0B203
:10087000E5E70121E94801F076F90028EFD0E748E3
:1008800001F037F9C0B2DAE72DE9F04105460E462E
:100890001446012C01DD46F040064FF48071E0481B
:1008A00000F09CFC3046FFF7BAFF06E02878FFF71F
:1008B000B6FF0746601E84B26D1C012CF6DA4FF4B9
:1008C0008071D74800F088FC3846BDE8F08110B54B
:1008D00004464FF48071D24800F080FC2046FFF7B8
:1008E0009EFF4FF48071CE4800F076FC10BD38B505
:1008F00030242046FFF7EBFF36242046FFF7E7FFC2
:10090000002429200090012221466846FFF7BCFF01
:10091000022406200090012221466846FFF7B4FF1A
:10092000032407200090012221466846FFF7ACFF10
:10093000062402200090012221466846FFF7A4FF0A
:1009400007240C200090012221466846FFF79CFFF7
:10095000082444200090012221466846FFF794FFB6
:10096000092400200090012221466846FFF78CFFF1
:100970000A2448200090012221466846FFF784FFA0
:100980000B240C200090012221466846FFF77CFFD3
:100990000C2400200090012221466846FFF774FFD6
:1009A0000D245D200090012221466846FFF76CFF70
:1009B0000E2493200090012221466846FFF764FF31
:1009C0000F24B1200090012221466846FFF75CFF0A
:1009D00010240E200090012221466846FFF754FFA4
:1009E00011243B200090012221466846FFF74CFF6E
:1009F000122473200090012221466846FFF744FF2D
:100A0000132442200090012221466846FFF73CFF54
:100A10001424F8200090012221466846FFF734FF95
:100A2000152400200090012221466846FFF72CFF84
:100A3000182418200090012221466846FFF724FF61
:100A400019241D200090012221466846FFF71CFF53
:100A50001A241C200090012221466846FFF714FF4B
:100A60001B24C7200090012221466846FFF70CFF97
:100A70001C2440200090012221466846FFF704FF15
:100A80001D24B0200090012221466846FFF7FCFE9D
:100A90002124B6200090012221466846FFF7F4FE8B
:100AA000222410200090012221466846FFF7ECFE28
:100AB0002324EA200090012221466846FFF7E4FE45
:100AC00024240A200090012221466846FFF7DCFE1C
:100AD000252400200090012221466846FFF7D4FE1D
:100AE000262419200090012221466846FFF7CCFEFB
:100AF000292459200090012221466846FFF7C4FEB0
:100B00002C2488200090012221466846FFF7BCFE75
:100B10002D2431200090012221466846FFF7B4FEC3
:100B20002E240B200090012221466846FFF7ACFEE0
:100B30000424AF200090012221466846FFF7A4FE5E
:100B40000524AF200090012221466846FFF79CFE55
:100B500038BD10B500F00AF9FFF7C9FE10BD70B539
:100B600006460C461546012D02DD44F0C00401E0A6
:100B700044F080044FF48071294800F02FFB204698
:100B8000FFF74DFE06E00020FFF749FE3070681EBB
:100B900085B2761C002DF6DC4FF48071204800F001
:100BA0001BFB70BD70B5044644F0C0044FF4807167
:100BB0001B4800F013FB2046FFF731FE0020FFF733
:100BC0002EFE05464FF48071154800F005FB2846BF
:100BD00070BD2DE9F84307461F267F254FF0020818
:100BE00097ED000ABCEEC00A10EE100AC0B28DF8F4
:100BF000000097ED010ABCEEC00A10EE100AC0B268
:100C00008DF801003620FFF762FE3520FFF7CAFF9E
:100C1000044634400BE000004C0000200038004047
:100C2000000002403520FFF7BDFF04463440012C90
:100C3000F8D13B20FFF74BFE3A20FFF7B3FF044605
:100C40002C4004E03A20FFF7ADFF04462C40002C76
:100C5000F8D102223F216846FFF716FE3A20FFF73F
:100C6000A1FF04462C4004E03A20FFF79BFF044616
:100C70002C404445F8D13520FFF729FE3520FFF7F9
:100C800091FF0446344004E03520FFF78BFF044613
:100C90003440012CF8D13A20FFF784FF04462C4061
:100CA000214621A001F058FEBDE8F8832DE9F0416E
:100CB00006461F257F274FF002083620FFF707FE64
:100CC0003520FFF76FFF04462C4009E03520FFF781
:100CD00069FF04462C4022461A491BA001F03CFE45
:100CE000012CF3D13420FFF7F2FD3520FFF75AFF36
:100CF00004462C4004E03520FFF754FF04462C4006
:100D0000012CF8D13B20FFF74DFF04463C40042C5A
:100D100004D102223F213046FFF721FF3A20FFF79E
:100D2000D6FDBDE8F08100004279746573206C65E2
:100D3000667420746865205458204649464F3A2509
:100D4000640A0000C83C00085761697420666F722D
:100D50002049444C452073746174653A25732C20F6
:100D60007374617475733A25780A000000B587B012
:100D70000121880300F03EFC0121880300F029FCDA
:100D80000121084600F0F2FB0121022000F0EEFBF9
:100D900005220D21334800F02EFA05220E2131489C
:100DA00000F029FA05220F212E4800F024FA022033
:100DB0008DF8180000208DF81A0002208DF81B0015
:100DC0008DF819000003059005A9264800F088F960
:100DD0004FF40040059005A9224800F081F94FF436
:100DE0008040059005A91F4800F07AF91E4800F0E0
:100DF000FBFC0020ADF80000ADF80400ADF80600E3
:100E0000ADF808004FF40070ADF80A003820ADF8D6
:100E10000C000020ADF80E000720ADF810004FF4D4
:100E20008270ADF8020069460F4800F003FD012111
:100E30000D4800F0E0FD4FF48070059001208DF822
:100E4000180000208DF81A008DF8190005A9074830
:100E500000F046F94FF48071044800F0BDF907B086
:100E600000BD0000000402400038004000000240C5
:100E700010B586B004466020ADF804000120ADF83E
:100E8000060003940020ADF8100001A9044800F00A
:100E9000E7FF0821024801F070F906B010BD00001C
:100EA0000004004010B586B004466020ADF8040090
:100EB0000120ADF8060003940020ADF8100001A950
:100EC000044800F0CDFF0821024801F056F906B0B1
:100ED00010BD00000008004010B586B000240121BC
:100EE000022000F076FB0121042000F03FFB4020AF
:100EF000019002208DF8080003208DF809000020E1
:100F00008DF80A0001208DF80B0001A9134800F0AC
:100F1000E7F802220621114800F06DF91048006838
:100F200040081049B0FBF1F0401E84B244F61F6047
:100F30000490ADF80C400020ADF81400ADF80E00A0
:100F400003A9094800F0F7FE0121074800F05EFF01
:100F50000121054800F078FF06B010BD00080240EE
:100F60000000002040420F000004004010B586B091
:100F700000240121042000F02CFB0121082000F0B6
:100F8000F5FA4FF48050019002208DF808000320FC
:100F90008DF8090000208DF80A0001208DF80B0063
:100FA00001A9144800F09CF802220C21114800F01D
:100FB00022F91148006840081049B0FBF1F0401ECA
:100FC00084B244F61F600490ADF80C400020ADF8E8
:100FD0001400ADF80E0003A9094800F0ACFE012191
:100FE000074800F013FF0121054800F02DFF06B06F
:100FF00010BD0000000C02400000002040420F0025
:101000000008004010B504468C48844208D10121F4
:10101000084600F000FB0021012000F0FCFA5EE031
:101020008748844208D10121022000F0F4FA00210F
:10103000022000F0F0FA52E08248844208D10121F7
:10104000042000F0E8FA0021042000F0E4FA46E071
:101050007D48844208D10121082000F0DCFA0021FB
:10106000082000F0D8FA3AE07848844208D10121FB
:10107000102000F0D0FA0021102000F0CCFA2EE071
:101080007348844208D10121202000F0C4FA0021D5
:10109000202000F0C0FA22E06E48844208D10121ED
:1010A000402000F0B8FA0021402000F0B4FA16E029
:1010B0006948844208D10121802000F0ACFA002167
:1010C000802000F0A8FA0AE06448844207D1012198
:1010D000801500F0A0FA0021A01500F09CFA10BDC8
:1010E000F0B50A4600210023002400BF3DE00125A1
:1010F00005FA01F3156805EA03049C4234D105683A
:101100004F000326BE40B543056015794E00B5403B
:101110000668354305601579012D02D01579022D39
:1011200016D185684F000326BE40B54385605579CA
:101130004E00B540866835438560456801268E407F
:10114000B5434560456896798E40B6B235434560F3
:10115000C5684F000326BE40B543C560D5794E0033
:10116000B540C6683543C560491C1029BFD3F0BDE2
:101170004FF6FF7101600021017141718171C171F0
:10118000704708B54FF480320092009A0A430092EB
:10119000009AC261C161009AC261C2690092C269CB
:1011A000009208BD0246002013690B4201D00120C5
:1011B00000E0002070470146086980B2704702468F
:1011C000002053690B4201D0012000E0002070474D
:1011D0000146486980B27047018370474183704778
:1011E0000AB1018300E04183704741617047426961
:1011F0004A4042617047F0B5002300244D07ED0ED0
:1012000002FA05F3CE1000F1200555F826504E07DE
:10121000F70E0F26BE40B543CF1000F1200646F86A
:101220002750CE1000F1200555F8265045EA03045A
:10123000CE1000F1200545F82640F0BD0000024028
:101240000004024000080240000C0240001002406E
:101250000014024000180240001C0240002002401E
:10126000FA48006840F00100F84908600020F7499A
:1012700008310860F5480068F5490840F3490860FE
:10128000F448091D0860081F006820F48020091F29
:1012900008600020ED490C31086070470021EB4ADE
:1012A000921C117011460870704710B5014600225B
:1012B000002300204A11012A02D1E44C236808E0EF
:1012C000022A03D1E14C7034236802E0DF4C74340D
:1012D000236801F01F02012494401C4201D0012028
:1012E00000E0002010BD38B500200090002400254B
:1012F00000BF3120FFF7D9FF05460098401C009041
:101300000098B0F5A06F01D0002DF2D03120FFF78A
:10131000CCFF08B1012400E00024204638BD01467E
:101320000020CA4A106820F0F80040EAC1001060AE
:101330007047C949086070470021C44A7032117073
:101340001170012802D004280AD104E00121BF4A0B
:101350007032117005E00521BC4A7032117000E056
:1013600000BF00BF7047BD490860704770B5049C5E
:1013700041EA82150126C6EB530645EA06450543B8
:1013800045EA0465B14E361D356070BDB249086648
:101390007047820142EA0172AC4B84331A60704795
:1013A000AD4988667047AC49C86470470246002062
:1013B000A64B0833186820F0EC6042EA010318439A
:1013C000A24B083318607047024600209F4B083339
:1013D000186820F0784042EA010318439B4B083319
:1013E0001860704701460020984A0832106820F0C3
:1013F000030008431060704794480830006800F00C
:101400000C00704701460020904A0832106820F016
:10141000F000084310607047014600208B4A0832F4
:10142000106820F4E0500843106070470146002027
:10143000864A0832106820F4604040EAC10010601B
:101440007047F0B500210022002402250026022367
:101450007E4F08373F6807F00C0121B1042905D001
:10146000082937D105E07E4F076036E07D4F0760E1
:1014700033E0764F3F1D3F68C7F38056734F3F1DE3
:101480003F6807F03F036EB1764FB7FBF3F7DFF825
:10149000BCC10CF1040CDCF800C0CCF3881C07FBC9
:1014A0000CF40CE06E4FB7FBF3F7DFF8A0C10CF1C2
:1014B000040CDCF800C0CCF3881C07FB0CF4634F71
:1014C0003F1D3F68C7F301477F1C7D00B4FBF5F764
:1014D000076002E0624F076000BF00BF5B4F083744
:1014E0003F6807F0F00109095F4F7A5C0768D74051
:1014F0004760564F08373F6807F4E051890A5A4F52
:101500007A5C4768D7408760504F08373F6807F4D8
:101510006041490B544F7A5C4768D740C760F0BDC3
:10152000002100F44072B2F5407F0AD1474A0832E8
:10153000116821F4F8114D4A02401143434A083220
:101540001160424A70321268C0F30B031A433F4BDA
:1015500070331A60704741494439086070473F4909
:1015600040390860704742490860704739B1374ACE
:10157000303212680243354B30331A6006E0334A8A
:10158000303212688243314B30331A60704739B1C0
:101590002E4A3432126802432C4B34331A6006E070
:1015A0002A4A343212688243284B34331A60704717
:1015B00039B1264A383212680243244B38331A6054
:1015C00006E0224A383212688243204B38331A60D0
:1015D000704739B11D4A4032126802431B4B4033F9
:1015E0001A6006E0194A403212688243174B4033B2
:1015F0001A60704739B1154A443212680243134BDE
:1016000044331A6006E0114A4432126882430F4B99
:1016100044331A60704739B10C4A103212680243E1
:101620000A4B10331A6006E0084A103212688243EF
:10163000064B10331A607047E1B1044A1432126845
:101640000243024B14331A6019E0000000380240D4
:10165000FFFFF6FE1030002400004742800E474294
:101660000024F40000127A0050000020FFFCFF0F5D
:101670005C0147425B4A126882435A4B1A607047CA
:1016800039B1584A121D12680243564B1B1D1A608D
:1016900006E0544A121D12688243524B1B1D1A6009
:1016A000704739B14F4A0C32126802434D4B0C332C
:1016B0001A6006E04B4A0C3212688243494B0C33E5
:1016C0001A60704739B1474A103212680243454BDD
:1016D00010331A6006E0434A103212688243414BCD
:1016E00010331A60704739B13E4A3C3212680243E7
:1016F0003C4B3C331A6006E03A4A3C321268824363
:10170000384B3C331A60704739B1364A4032126860
:101710000243344B40331A6006E0324A40321268CA
:101720008243304B40331A60704739B12D4A4432FE
:10173000126802432B4B44331A6006E0294A4432B4
:1017400012688243274B44331A60704739B1254AE7
:101750004C3212680243234B4C331A6006E0214A94
:101760004C32126882431F4B4C331A60704739B1B8
:101770001C4A5032126802431A4B50331A6006E07A
:10178000184A503212688243164B50331A60704721
:1017900039B1144AD21F12780243124BDB1F1A7060
:1017A00006E0104AD21F127882430E4BDB1F1A70DC
:1017B00070470C486030006840F080700949603123
:1017C0000860704701460020064A083A12680A423B
:1017D00001D0012000E0002070470249891F0870F5
:1017E000704700001438024010B50446F6488442A1
:1017F00008D101218014FFF765FF0021A014FFF735
:1018000061FF16E0F148844208D101210014FFF77E
:1018100048FF00212014FFF744FF0AE0EC4884420F
:1018200007D10121C013FFF73CFF0021E013FFF7B0
:1018300038FF10BD10B50022028802F441520B8817
:101840004C8823438C882343CC8823430C8923432F
:101850004C8923438C892343CC8923431A43028038
:10186000838B4FF2FF74234083830B8A038210BD66
:101870002DE9F04F00250223002401270022002635
:10188000944690469146B0F81CA04FF2400B0AEAED
:101890000B0AA0F81CA04FF0020AA0F820A0858B2C
:1018A000D1F808A0BAF1020F01D100BF6AE0B1F887
:1018B00004A0BAF1000F01D1012700E00227DFF8F0
:1018C00014A3DAF800A01AF4000F09D0DFF804A37B
:1018D000DAF800A02AF4000ADFF8F8B2CBF800A08A
:1018E000DFF8F0A20AF17C0ADAF800A0CAF388183F
:1018F000DFF8E0A20AF17C0ADAF800A0CAF3027964
:10190000DFF8D0A2AAF1040ADAF800A00AF03F0C2E
:10191000DFF8C4A2BAFBFCFA0AFB08FABAFBF9F634
:10192000B1F806A0BAF5007F0ED14FEA162A0AEBED
:101930008A0A4FEA4A0AD1F808B0BAFBFBFA0AF160
:10194000050A1FFA8AF20FE04FEA471AB6FBFAFAC5
:101950000AEB8A0A4FEA4A0AD1F808B0BAFBFBFA46
:101960000AF1050A1FFA8AF24FF00A0AB2FBFAF2EC
:1019700002F00104A2EB040ACAF34F034FF6FF7A08
:101980000AEA0424022B01DBFF2B01DD02230024E1
:10199000B1F806A04AEA040A4AEA030AA0F820A01D
:1019A000B1F804A0B1F80CB04AEA0B0AB1F802B0E1
:1019B0004AEA0B0AB1F800B04AEA0B0A4AF4006A94
:1019C0004AEA05058583BDE8F08F0021018041804A
:1019D0008180C180018141818181C1810721018292
:1019E00070470021018041808180C1800221816097
:1019F00000218181704721B1028842F040020280BB
:101A000004E002884FF6BF731A400280704721B18C
:101A1000828B42F48062828304E0828B4FF6FF3334
:101A20001A408283704702884FF2FF731A40028087
:101A300002880A4302807047B1F5804F04D10288C2
:101A400042F48042028004E002884BF6FF731A40A1
:101A500002807047A1F57E42FF3A04D0028842F42A
:101A60008072028004E002884FF6FF631A40028011
:101A7000704721B1828842F00402828004E08288AB
:101A80004FF6FB731A408280704721B1828842F082
:101A90001002828004E082884FF6EF731A40828041
:101AA000704730B500220023848B4FF240052C4054
:101AB000848302240484828B0C88B4F5007F01D0D7
:101AC0000C8814B94FF4807308E00C88B4F5407F9B
:101AD00003D00C88B4F5807F00D100238C888D89D9
:101AE0002C434D882C431C4344F4006422438283DE
:101AF00030BD0146888970478181704721B10288D5
:101B000042F40052028004E002884DF6FF731A404E
:101B100002807047018841F480510180704702467D
:101B20000020012901D0108B00E0908A7047014607
:101B3000088A70471AB183880B43838002E0838848
:101B40008B438380704730B5002400230C1101259E
:101B5000A540ABB21AB185881D43858002E0858817
:101B60009D43858030BD0246002013890B4201D081
:101B7000012000E000207047CA4302817047F0B5A1
:101B80000246002000240023002501F00F07012653
:101B9000BE40B4B20B1101269E40B3B2968806EA4D
:101BA00003051689264202D00DB1012000E0002075
:101BB000F0BD10B5002201F00F040123A3409AB23A
:101BC000D343038110BD00000030014000380040C5
:101BD000003C00400838024000127A0010B504466C
:101BE000FE48844208D101210846FFF76BFD002121
:101BF0000120FFF767FD9DE0B4F1804F08D101217E
:101C00000846FFF74EFD00210120FFF74AFD91E055
:101C1000F348844208D101210220FFF742FD002150
:101C20000220FFF73EFD85E0EE48844208D1012105
:101C30000420FFF736FD00210420FFF732FD79E094
:101C4000E948844208D101210820FFF72AFD00213C
:101C50000820FFF726FD6DE0E448844208D1012109
:101C60001020FFF71EFD00211020FFF71AFD61E094
:101C7000DF48844208D101212020FFF712FD002116
:101C80002020FFF70EFD55E0DA48844208D10121FB
:101C90000220FFF717FD00210220FFF713FD49E0A6
:101CA000D548844209D101210804FFF70BFD00212A
:101CB0004FF48030FFF706FD3CE0D048844209D164
:101CC00001214804FFF7FEFC00214FF40030FFF72C
:101CD000F9FC2FE0CA48844209D101218804FFF7AA
:101CE000F1FC00214FF48020FFF7ECFC22E0C54816
:101CF000844208D101214020FFF7D3FC002140207D
:101D0000FFF7CFFC16E0C048844208D101218020B3
:101D1000FFF7C7FC00218020FFF7C3FC0AE0BB48A7
:101D2000844207D101218015FFF7BBFC0021A015DB
:101D3000FFF7B7FC10BD00220288A84B98420ED0D6
:101D4000AC4B98420BD0B0F1804F08D0A44B9842D6
:101D500005D0A44B984202D0A34B984204D14FF631
:101D60008F731A404B881A43A04B984207D0A04B60
:101D7000984204D04FF6FF431A400B891A43028061
:101D80004B68C3620B880385944B984202D0994BF1
:101D9000984201D18B7A03860123838270474FF0EA
:101DA000FF314160002101800181418081727047D3
:101DB0000185828270470A46002101884FF68F73A1
:101DC000194011430180704741627047C1627047FA
:101DD0000146486A70470146088D704721B1028864
:101DE00042F00202028004E002884FF6FD731A40BE
:101DF0000280704721B1028842F00402028004E0B0
:101E000002884FF6FB731A400280704721B10288A6
:101E100042F08002028004E002884FF67F731A408D
:101E20000280704702884FF6F7731A4002800288DA
:101E30000A430280704702884FF6FF431A4002802F
:101E400002880A430280704721B1028842F00102F1
:101E5000028004E002884FF6FE731A400280704749
:101E600070B5002400220023058C4FF6FE76354025
:101E70000584028C8388048B4FF68F752C40B51E29
:101E80002C400D882C43751E2A408D892A434D888D
:101E90002A43524DA84202D0564DA84213D14FF6C4
:101EA000F7752A40CD892A434FF6FB752A408D8865
:101EB0002A434FF6FF652B404FF6FF552B400D8A06
:101EC0002B434D8A2B43838004838D6845630284B2
:101ED00070BD70B5002400220023058C4FF6EF760C
:101EE00035400584028C8388048B48F6FF752C40AE
:101EF0004FF6FF452C400D884FF6FF7606EA052584
:101F00002C434FF6DF752A408D8906EA05152A43D2
:101F10004D8806EA05152A43304DA84202D0354DBA
:101F2000A8421DD14FF67F752A40CD894FF6FF7626
:101F300006EA05152A434FF6BF752A408D8806EA42
:101F400005152A434FF6FF352B404FF2FF752B4006
:101F50000D8A06EA85052B434D8A06EA85052B4343
:101F6000838004838D688563028470BD70B500240E
:101F700000220023058C4FF6FF6635400584028C55
:101F80008388848B4FF68F752C404FF6FC752C4060
:101F90000D882C434FF6FF552A408D894FF6FF766A
:101FA00006EA05252A434D8806EA05252A430B4DF6
:101FB000A84202D00F4DA84238D14FF2FF752A40F7
:101FC000CD894FF6FF7606EA05252A434FF6FF3501
:101FD0002A408D8806EA05252A4319E000000140C1
:101FE0000004004000080040000C004000100040C9
:101FF0000014004000040140004001400044014042
:102000000048014000180040001C00400020004033
:102010004EF6FF752B404DF6FF752B400D8A06EAF4
:1020200005152B434D8A06EA05152B4383808483CF
:102030008D68C563028470BD70B500220023002442
:10204000058C4EF6FF7635400584038C8488828BA0
:1020500048F6FF752A404FF6FF452A400D884FF697
:10206000FF7606EA05252A434DF6FF752B408D893C
:1020700006EA05352B434D8806EA05352B43FE4D10
:10208000A84202D0FD4DA84208D14BF6FF752C4066
:102090000D8A4FF6FF7606EA85152C4384808283ED
:1020A0008D680564038470BD0021018041808180BA
:1020B00081608181C18101824182704770B5034690
:1020C000002000241846183001258D40ACB21D8C2C
:1020D000A5431D8409B108290AD100EB61000568F8
:1020E0004FF68F76354005600568154305600FE0B3
:1020F0000D1FC5F34E052844056848F6FF763540A8
:10210000056005684FF6FF7606EA0226354305604E
:1021100070BD4163704781637047C163704701645C
:1021200070470A460021018B4FF68F731940114307
:10213000018370470A460021018B48F6FF7319405E
:102140004FF6FF7303EA02231943018370470A46DF
:102150000021818B4FF68F731940114381837047A3
:102160000A460021818B48F6FF7319404FF6FF7332
:1021700003EA02231943818370470A460021018B39
:102180004FF6F77319401143018370470A46002147
:10219000018B4FF2FF7319404FF6FF7303EA0223DE
:1021A0001943018370470A460021818B4FF6F7736C
:1021B00019401143818370470A460021818B4FF2F9
:1021C000FF7319404FF6FF7303EA0223194381831B
:1021D00070470A460021018B4FF6FB7319401143EB
:1021E000018370470A460021018B4FF6FF331940E7
:1021F0004FF6FF7303EA02231943018370470A462F
:102200000021818B4FF6FB73194011438183704786
:102210000A460021818B4FF6FF3319404FF6FF73BA
:1022200003EA02231943818370470A460021018B88
:102230004FF67F7319401143018370470A4600210E
:10224000018BC1F30E014FF6FF7303EA022319431A
:10225000018370470A460021818B4FF67F73194036
:102260001143818370470A460021818BC1F30E011F
:102270004FF6FF7303EA02231943818370470A462E
:102280000021018C4FF6FD73194011430184704702
:102290000A460021018C4FF6F7731940114301845F
:1022A00070470A460021018C4FF6DF7319404FF644
:1022B000FF7303EA02131943018470470A460021A1
:1022C000018C4FF67F7319404FF6FF7303EA021338
:1022D0001943018470470A460021018C4FF6FF53D1
:1022E00019404FF6FF7303EA022319430184704734
:1022F0000A460021018C4FF2FF7319404FF6FF731D
:1023000003EA02231943018470470A460021018C25
:102310004DF6FF7319404FF6FF7303EA023319437A
:102320000184704730B5002301248C40A3B2048C93
:102330009C430484048C02FA01F5ADB22C4304845E
:1023400030BD30B5002304248C40A3B2048C9C43E0
:102350000484048C02FA01F5ADB22C43048430BD30
:10236000828B4FF2FF331A408283828B4FF6FF73CA
:1023700003EA01231A4382837047F0B50C461546E1
:10238000002100220026078C4EF6FF7C07EA0C078E
:102390000784818B028C4FF6FF7707EA043640F6FC
:1023A000FF4739404FF6FF7707EA052739434FF6D5
:1023B000FF7707EA0337394345F6FF773A4046F49B
:1023C00080573A4381830284F0BD828B4FF6F373CA
:1023D0001A408283828B0A4382837047F0B50C4691
:1023E0001546002100220026078C4FF6FF6C07EAF5
:1023F0000C070784818B028C4FF6FF7707EA0426CF
:102400004FF60C7739404FF6FF7707EA03172F4353
:1024100039434FF2FF573A4046F480773A4381837D
:102420000284F0BD028B4FF2FF331A400283028B0D
:102430004FF6FF7303EA01231A4302837047F0B596
:102440000C461546002100220026078C4FF6EF7C33
:1024500007EA0C070784018B028C4FF6FF7707EA27
:10246000041640F6FF4739404FF6FF7707EA033777
:1024700039434FF6FF7703E00000014000040140BC
:1024800007EA052739434FF65F773A4046F01007D1
:102490003A4301830284F0BD028B4FF6F3731A4076
:1024A0000283028B0A4302837047F0B50C4615463F
:1024B00000210022068C4FF6FE773E400684018BF9
:1024C000028C4FF60C7631407E1C06EA03162E4332
:1024D00031434FF6F576324044F001063243018332
:1024E0000284F0BD70B505460C46208850B923899A
:1024F000A28861882846FFF7D8FFE1882846FFF7C1
:10250000CBFF25E0208804280AD12389A28861888E
:102510002846FFF794FFE1882846FFF783FF17E07E
:10252000208808280AD12389A28861882846FFF7D5
:1025300055FFE1882846FFF748FF09E02389A28874
:1025400061882846FFF719FFE1882846FFF708FF52
:1025500070BD002101804180012181800021C18066
:10256000018170472DE9F04105460C460026012700
:10257000608808B9022600E00026A088012801D161
:10258000022700E001272088A0B92389A28861885A
:102590002846FFF78AFFE1882846FFF77DFF238959
:1025A0003A4631462846FFF74AFFE1882846FFF7BA
:1025B00039FF13E02389A28861882846FFF73FFF8F
:1025C000E1882846FFF72EFF23893A463146284600
:1025D000FFF76BFFE1882846FFF75EFFBDE8F0815B
:1025E0000146486B70470146886B70470146C86BCF
:1025F00070470146086C70470A884B881A438B88DD
:102600001A43CB881A430B891A434B891A438B8987
:102610001A43A0F844207047002101804180818046
:10262000C180018141818181704731B1B0F844207E
:1026300042F40042A0F8442005E0B0F84420C2F380
:102640000E02A0F84420704721B1828842F00402B3
:10265000828004E082884FF6FB731A4082807047C4
:1026600021B1828842F00102828004E082884FF624
:10267000FE731A40828070471AB183890B438381AD
:1026800002E083898B4383817047818270470246D1
:102690000020138A0B4201D0012000E00020704787
:1026A000CA430282704730B502460020002300244E
:1026B000158A05EA0103958905EA010413B10CB1F5
:1026C000012000E0002030BDCA430282704741EA89
:1026D0000203A0F8483070471AB183890B43838105
:1026E00002E083898B438381704721B1828842F065
:1026F0000802828004E082884FF6F7731A408280D5
:10270000704701894FF6F8721140018170470A46FF
:10271000002101894FF68F731940114301817047E1
:1027200030B504460D4629462046FFF7F0FF2089C4
:1027300040F00700208130BD2DE9F04104460D46F0
:1027400016461F46602D06D13B46012231462046E3
:10275000FFF775FE05E03B46012231462046FFF7B4
:10276000A4FE29462046FFF7D2FF208940F007004B
:102770002081BDE8F08130B50C4600210189C9B245
:102780004FF6FF7505EA03251543254329430181CB
:1027900030BD2DE9F04105460E4617469846002407
:1027A00043463A4631462846FFF7E5FF2C894FF667
:1027B000F870044044F007044FF68F70044044F072
:1027C00070042C81BDE8F081F0B504460D46164634
:1027D0001F463B46324629462046FFF7CCFF20895C
:1027E00040F480402081F0BD82884FF68F731A40FC
:1027F000828082880A438280704702894FF6F8738C
:102800001A40028102890A430281704702894FF609
:102810007F731A40028102890A4302817047F0B532
:102820000C4615461E460021002200230189028B1A
:10283000038C4FF6F877394021434FF6FC473A4076
:1028400040F201173A434FF6DD773B404FF6FF77F2
:1028500007EA06172F433B43018102830384F0BD3F
:1028600021B1828842F08002828004E082884FF6A3
:102870007F731A4082807047A0F850107047421C46
:1028800010F8011B0029FBD1801A70472DE9F05F79
:102890000546002092469B468846064681464024CF
:1028A0001BE0284641464746224600F042F8534680
:1028B0005A46C01A914110D311461846224600F0DC
:1028C00029F82D1A67EB01084F4622460120002106
:1028D00000F020F817EB00094E41201EA4F101047E
:1028E000DFDC484631462A464346BDE8F09F0000FB
:1028F000064C074D06E0E06840F0010394E807004D
:1029000098471034AC42F6D3FDF742FCDC3C00089B
:102910000C3D0008202A04DB203A00FA02F10020D6
:1029200070479140C2F1200320FA03F3194390400D
:102930007047202A04DB203A21FA02F00021704778
:1029400021FA02F3D040C2F1200291400843194617
:1029500070470000000000000FB4054B10B503A93C
:10296000044A029800F03AF810BC5DF814FB00002D
:10297000FB0700084400002002E008C8121F08C13D
:10298000002AFAD170477047002001E001C1121FF0
:10299000002AFBD1704710B5002A06DA22F0004267
:1029A000D21D22F00703102203E0D21C22F0030301
:1029B0000C2213B19C188C4201D9012010BD024495
:1029C00001448360C0E90021C91AD018884202D8A6
:1029D00010600246F9E70020106010BD2DE9FF4F9E
:1029E0008DB09B460F460446002638E1252801D0CD
:1029F0000F9959E00025641C9D49A84601222378BF
:102A0000203B02FA03F0084202D00543641CF6E7BB
:102A100020782E2817D114F8010F45F004052A2834
:102A20000ED06FF02F022078A0F1300109290AD8CA
:102A300008EB880102EB410100EB0108641CF2E79E
:102A400057F8048B641C20786C280DD004DC4C28CB
:102A500012D06A2811D104E074280DD07A280CD144
:102A60000AE045F4001507E0617845F480158142DD
:102A700002D1641C05F58015641C2278692A46D0B1
:102A800008DC002A70D0582A69D0632A11D0642A41
:102A900008D13CE0702A69D0732A14D0752A5CD022
:102AA000782A5CD00F9910465A46904706F10106E5
:102AB000D4E017F8040B8DF8000000208DF8010019
:102AC000E946012003E057F8049B4FF0FF30690707
:102AD0004FF0000501D40AE06D1C45450DDA854232
:102AE000FADB19F805100029F6D106E06D1C8542C5
:102AF000FCDB19F805100029F8D12E4404E019F880
:102B0000010B5A460F9990476D1EF8D2A6E00A2095
:102B10000021CDE90801C5F3025002280BD001CFF6
:102B2000C11700290EDA4FF0000CD0EB0C006CEB53
:102B300001012D2309E007F1070727F00707F7E850
:102B40000201EEE72B0504D52B238DF82830012355
:102B500030E0EB072ED02023F7E70A2000E010201A
:102B60000021CDE9080109E07DE0FFE71020002108
:102B700045F00405CDE908014FF00808C5F30250FF
:102B800002281BD001CF00214FF0000A2B0712D5DD
:102B9000702A19D0DDE908C38CF0100C5CEA030C34
:102BA00009D150EA010306D030238DF828308DF882
:102BB000292002239A46582A10D00AE0FF1D27F048
:102BC0000707F7E80201DFE740228DF828204FF0E1
:102BD000010A28A20DF120090B9209E02AA2F9E7C7
:102BE000DDE90823FFF752FE0B9B9B5C09F8013DD2
:102BF00050EA0102F4D1ADEB090000F12000089089
:102C0000680701D44FF001080899884502DDA8EB58
:102C1000010000E000208046002506E00AA85A4690
:102C2000405D0F999047761C6D1C5545F6DB04E01E
:102C300030205A460F999047761CB8F10001A8F150
:102C40000108F5DC05E019F8010B5A460F99904789
:102C5000761C0899481E08900029F4DC641C207832
:102C600000287FF4C3AE11B03046BDE8F08F0000FD
:102C70000928010030313233343536373839616252
:102C80006364656600000000303132333435363716
:102C90003839414243444546000000000848006876
:102CA000C0010BD507480068C00707D00548803829
:102CB0000068002802DA044901200870704700000B
:102CC000FCED00E0800E00E0720000204FF060425A
:102CD000D36F002BFCD0C36AD367D36F002BFCD01B
:102CE000C07840EA0120A2F87C0070474FF06041B4
:102CF000CA6F002AFCD081F87C00704710B500280C
:102D000021D0114B001F0022196803E0814203D833
:102D10000A4649680029F9D152B11368841A9C42C5
:102D200004D1006818441060104602E0506000E0D2
:102D3000186039B102680B1A934203D10B681A4428
:102D400002604968416010BD7C00002070B504003D
:102D50000D4603D012B92078012801D0802070BD23
:102D6000204600F079FA28B12946204600F02CF8D8
:102D7000002070BD812070BD10B5044680890028F8
:102D800021D0608904EB8000006908606078022827
:102D900005D10021204600F0B3FB00F0A1FB04F1B7
:102DA0000C0000BFD0E85F1F491EC0E8521F002A78
:102DB000F8D16089401C80B26081E189884201D1EC
:102DC00000206081042010BD10B500F099FBBDE823
:102DD000104000F085BB0000F0B50B30154D20F021
:102DE00007010024144A0FE003688B420BD38B4287
:102DF00005D95E1A43184768C3E9006700E04368D5
:102E0000136002C004E0021D10680028ECD12046C7
:102E1000002802D1286808B10020F0BD064A074802
:102E20001060074A121A22F00702C0E900240120AC
:102E30002860D7E7800000207C000020EC00002004
:102E4000E8020020EFF305820AB182207047EFF319
:102E50001482144B12F0030206D0012A1BD0022A5E
:102E600011D0032A19D113E0EFF3088282F3098805
:102E70001A78D2070AD0022282F31488BFF34F8F48
:102E8000BFF36F8F09E01A78D20706D10322F3E768
:102E90001A78D20701D0FF207047DFF80CC000DF9E
:102EA00070470000803C00080D3A00082DE90E40F4
:102EB000EFF30582B2B102004FF0800000D021B1E3
:102EC0000090DDE9011203B000BD11780129F7D1AE
:102ED00001A91046FFF750FF042801D00020EFE7BA
:102EE0001020EDE7DFF804C000DFECE7053B000849
:102EF000DFF80CC000DFDFF80CC000DFFEE70000E9
:102F0000B13B0008CD3B0008DFF804C000DF70478C
:102F1000053C0008094C4FF0FF3529462068FFF7B3
:102F2000C5FF02460846102AF7D1FFF7EDFF00283B
:102F3000F3D0024608469047EFE70000200000204B
:102F40004FEA000151E8000F28B1036841E8003260
:102F5000002AF7D17047BFF32F8F704710B568B1C3
:102F600061B10B3121F00302016844680B1A1B1B8D
:102F7000934205D2084609680029F5D1002010BD0A
:102F80003CB121180368C1E90032016001F1080079
:102F900010BD4260083010BD70B50C46002812D03C
:102FA0004FF6FF71084D884204D22A680146104648
:102FB00000F0D2FA28684470044800F0D3F8BDE865
:102FC000704000F08BBB70BD64000020B400002096
:102FD0000F4810B50D4942680E480B6800889342AF
:102FE00004D00A60CB88421E1A448A808A888242B2
:102FF0000AD100200860064800F0B4F80146BDE898
:103000001040034800F0D6BA10BD00007400002044
:10301000B40000207000002070B5194DE868002849
:103020002CD0A88A401EA882002621E0A06838B1D2
:1030300061684160606810B1A16881606660A660E7
:103040000F482146183800F0B5FAA08AA8826078A7
:10305000042804D10B49E08A09880844A082012091
:103060006070E068E860E06808B10561E6602661CC
:10307000A88A002802D1EC68002CD7D170BD0000CE
:10308000CC0000207000002070B504000FD00D4D62
:10309000A17801262868827891420CD900F0A6FA1E
:1030A000286846702046BDE8704000F017BB06480F
:1030B00000F058F8F7E766702146BDE87040024816
:1030C00000F078BA64000020B400002010B5044677
:1030D000008B084320836278618B062A18D0052A6A
:1030E00019D1084217D001EA000262838843208385
:1030F000204600F09BFA01206070628B0821204678
:1031000000F08CFA2146BDE81040034800F052BAA6
:1031100031EA0002EAD010BDB4000020814202D39F
:1031200042688A4201D80120704750E8002F0A60A7
:1031300040E80012002AF8D10020704768B161B160
:103140000839002202E00246006830B18842FAD114
:103150002AB10068106000207047012070470021EC
:103160004160F8E70146406842684A600B780022F7
:10317000022B05D0012B03D0032B01D042607047F6
:1031800043680BB19960426082607047810700D04C
:103190000020704770B504460020154620700122BB
:1031A0006270A1706060A060E0602061A082E08237
:1031B0002083608384F82000608C18B90448FFF7EE
:1031C000BFFEA06229462046BDE8704000F01CB852
:1031D0006001001008B1082901D2012070470144A4
:1031E000091F002201600A6042601046704700001B
:1031F00003480021016003490968C180704700004D
:1032000074000020783C000810B5428C920803D16D
:103210000F4A1268C2F38D02836A03EB82025307DE
:1032200000D5121F403A4FF08073C2E90E130023FD
:103230004FEA030442F823405B1C0E2BFAD3C36908
:1032400013624262C162806A0249016010BD0000DF
:10325000743C0008A52E5AE2C1898089081A70477B
:10326000012202700022427082704260028142811B
:10327000103982818908C181704700002DE9F04131
:103280000446407800270E464FF00108012855D02B
:1032900004F10C0502282BD0032818D0A089E1895D
:1032A000884262D2208904EB80000661D5E85F0F76
:1032B000401CC5E8510F0029F8D12089401C80B27C
:1032C0002081E189884200D12781BDE8F08108464C
:1032D000FFF736FE0600F8D02046FFF743FF05460D
:1032E000606800B967703146284600F091F931E016
:1032F0002046FFF737FF0646606800B96770002177
:10330000304600F085F92189F06904EB81010861FC
:10331000D5E85F0F401CC5E8510F0029F8D120897E
:10332000401C80B22081E189884200D1278186F843
:103330000180304600F07AF9314611E02046FFF76F
:1033400011FF0546606800B96770324610212846B3
:1033500000F064F985F80180284600F067F92946F5
:10336000BDE8F041034800F025B9BDE8F041032075
:10337000FDF7ECB8B400002070B50446808915460E
:103380000026C8B3608904EB80000069086060898A
:10339000401C80B26081E189884200D166816078FA
:1033A00002280AD014F10C04D4E85F0F401EC4E8D0
:1033B000510F0029F8D1002070BD2046FFF7D2FE42
:1033C0000546606800B966700021284600F020F9C3
:1033D0002189E86904EB810108612089401C80B2E1
:1033E0002081E189884200D12681284600F01EF91B
:1033F0002846FFF749FEDEE7FFE73DB10A4862686D
:1034000001682AB1204600F0D5F807E0012070BD20
:1034100061600068C0E901640120607008212846ED
:10342000FFF7BAFDF2E7000064000020411C13D052
:103430000B4A4FF6FE7190420CD800EB4002C2EBF3
:10344000C0120848036803EBC202521EB2FBF3F03D
:10345000884200D9084670474FF6FF707047000059
:1034600000093D00843C000870B51A48012100683D
:10347000417000F0BBF8184D6C7816E005EBC40104
:1034800048680278E2B1012A1FD000F0FBF8E87822
:10349000641C844200D100240F48801CD0E84F1FD8
:1034A000491EC0E8421F002AF8D1A8780028E5D1BB
:1034B0006C700A48FFF756FEBDE8704000F00EB988
:1034C000896889B2FFF702FEE1E78968FFF7D6FE57
:1034D000DDE7000064000020901A0010B400002016
:1034E0000548017811B101214170704703494FF03F
:1034F00080500860704700006C00002004ED00E080
:10350000F0B4144B9C1CDD784FEA030CD4E84F2F29
:10351000AA4202D1BFF32F8F0EE0521CC4E8462FFF
:10352000002EF3D1DCE84F2F541CAC4200D1002414
:10353000CCE8464F002EF5D1DC78944205D903EB58
:10354000C202C2E90101F0BC7047F0BC0220FCF7E6
:10355000FDBF0000901A0010154A10B5D368FBB1EA
:1035600013469B8A09E000BFD2F80CC0BCF1000FE3
:1035700016D0BCF81440624623448B42F4D3D4687E
:10358000C460D0600261D0F80CC0BCF1000F01D063
:10359000CCF81000591A8182908A401A908210BD8E
:1035A0000024C460D060C91A02619182848210BD77
:1035B000CC00002010B502780023022A03D0012A93
:1035C00001D0032A00D1012391F802C000E0104687
:1035D000426812B194786445F9D24A6041601BB1E7
:1035E00002B19160886010BD0020FBE703494A6882
:1035F000426000228260486070470000B4000020F2
:1036000090F82010406A09B1603070472030704750
:1036100010B50C46FFF7F4FF046010BD70B50C4602
:103620001546FFF7EDFFC0E9004570BD10B5016913
:1036300000290ED0C268CA60C36800223BB18B8AE1
:10364000848A23448B82C3681961C26000E08A8245
:10365000026110BD816839B142684A604168002941
:1036600001D0806888607047054906E04A68824258
:1036700002D140684860704711460029F6D1704772
:10368000B400002010B5416881B1FFF76BFD04461E
:10369000FFF7CCFF0120607001462046FFF7B8FF1E
:1036A0002146BDE810400348FFF784BF4188491C0C
:1036B000418010BDB400002006480068D0E9091020
:1036C000814203D300680449884202D00120FCF7FC
:1036D0003DBF704764000020A52E5AE20749022230
:1036E00048604270064A1278002A05D006C98A420C
:1036F00002D0C078FFF7FABA7047000064000020DB
:10370000720000202DE9F04104460D469046FFF777
:10371000C5FA002006463849384B02E041F82060DF
:10372000401C1A889042F9D3354830220188354828
:10373000FFF731F93448006880B240F00042334866
:1037400001683348FFF727F93248082201883248D8
:103750000068FFF720F9314FFF20314AF8707E846E
:1037600000213846FFF716FD2E48042101704660FF
:103770002D480170C66006618682786A2030FCF7A9
:1037800011FD2A482B4907600220787028480670EE
:1037900046700978C170284801684FF0E020416107
:1037A00086610721016125480168254A11430160AE
:1037B0000068224900F07F40C0431439B0FA80F01D
:1037C0000968C0F10800C1F30221814200DB481CF6
:1037D0001A49091F0B686FF08072824063F3170269
:1037E0000A60FFF705FD424629462046BDE8F04144
:1037F000002300F06DB80000141B0010703C00089E
:103800008C3C000800000010743C0008903C00084C
:1038100060010010B43C0008180000208400002063
:1038200049050008B4000020CC00002064000020FE
:10383000901A0010983C00087C3C000820ED00E045
:103840000000FFFF0B4810B5006801214170FFF731
:10385000CDFEFFF7BDFB08490888401C0880FFF734
:10386000DBFB00F0DBF90548FFF77CFCBDE810400E
:10387000FFF734BF6400002070000020B400002077
:10388000002805D0810702D10178002900D000204E
:103890007047000030B50D4C0023226808E000BFDF
:1038A000B2F808C08C4505D813461268A1EB0C018C
:1038B000002AF5D189B20260018112B11589691A15
:1038C00011810BB1186030BD206030BD6000002058
:1038D0002DE9F041804616461F460D4611F0FF0FB8
:1038E00000D14D1C1648FFF72BFB040026D0280AF8
:1038F000A6626084E9B242462046E761FFF74AFCCF
:1039000001251048104905E000EB850252F8042C0F
:1039100022B16D1C0A889542F6D9002500EB85007E
:1039200040F8044C0948E570007818B101212046A0
:10393000FFF7CCF92046FFF7A7FB2846BDE8F0814A
:1039400000000010141B0010703C000872000020E2
:103950002DE9F041244C234F244B22680026D178D6
:1039600008B1814218D103EB8100567040F8046C15
:103970001F48916AFFF7D2FB20688662397811B13F
:103980000021FFF7A3F91B482168FFF7C7FB0020C0
:103990002660FFF779FB1FE01749098888421ED887
:1039A00003EB800555F8044CCCB12046FFF752FEDE
:1039B0002046FFF73BFE45F8046C0D48A16AFFF76F
:1039C000ADFBA662387818B100212046FFF77EF9DA
:1039D00021460848FFF7A2FB0020BDE8F081FF2048
:1039E000FBE700007200002064000020141B0010A0
:1039F0006001001000000010703C000802480068E0
:103A0000002800D0C07870476400002070B5040022
:103A10000D4608D0206830B1B4F9040010F1030F4E
:103A200001DB032801DD862070BD244E306840B1E3
:103A3000204600F085F8A0B100F0BAF800F0C6F812
:103A400037E01F4840070CD11E4801681C48FFF7AB
:103A5000C1FB30B9E16831B11948FFF77FFA0200C4
:103A600002D1852070BD0022B4F90400E168001D78
:103A700040EA01212068FFF745FE7068D8B1C078A0
:103A8000114901EB800050F8040C3060416A0D626E
:103A9000406A0E49416300210D4800F021F80D49AC
:103AA000086000210C4800F04BF80C490860002029
:103AB0003060002070BDFF2070BD00006400002059
:103AC00030140010943C0008141B0010F12E000864
:103AD000AC3C0008200000209C3C00081C0000209A
:103AE00010B5040005D0216819B1606808B10278EA
:103AF0000AB1002010BD8900103189B2FFF7B0FB78
:103B0000606810BD3EB504000D464FF0800012D035
:103B1000217801290FD12846FFF788FC82B201A93C
:103B20002046FFF729FC012801D0102003E00DB149
:103B3000402000E00020DDE9011203B030BD0000AC
:103B400070B504000E462BD0206848B3B4F90400C9
:103B500010F1030F24DB032822DCE16829B11148AE
:103B6000FFF7FCF9050015D000E00025B4F90400CA
:103B7000E168001D40EA012133462A462068FFF72C
:103B8000A7FE40B1084901EB8000084950F8040C39
:103B9000426A516370BD1DB129460248FFF7CEFA53
:103BA000002070BD30140010141B0010F12E00080E
:103BB00010B5FFF723FF002804D0034901EB800074
:103BC00050F8040C10BD0000141B001070B5FFF776
:103BD00057FE040003D0608C18B1A56A02E0802073
:103BE00070BD0025E078FFF7B3FEFF2806D01DB1B9
:103BF0000348A16AFFF7A2FA002070BD812070BDC2
:103C00003014001010B5FFF7C1FA20B101690A683D
:103C1000C168104610BD0020014610BD2DE9F041DD
:103C2000114E3468002C18D02089104F401E20817E
:103C30004FF001080EE02546246834600022294632
:103C40003868FFF783F86879012808D085F8048080
:103C5000002C02D020890028EDD0BDE8F0816989D0
:103C60002846FFF717FEF3E7600000202000002041
:103C70000700000020030201050001003F90020040
:103C800001000000E8030000000000005C010000EB
:103C9000D01200006006000010000000152F000880
:103CA00002000000010000002003000004000000EA
:103CB000301B00100000000051050008000000004B
:103CC0000100000020030000776972656C65737362
:103CD000526563656976655F525800000C3D0008C7
:103CE0000000002084000000782900080C3D000836
:103CF00000000010501B000088290008903D0008BB
:103D0000840000206406000088290008007A030A65
:103D1000000000000000000001020304060708097B
:103D20000000000000000000000000000000000093
:103D30000000000000000000000000000000000083
:103D40000000000000000000000000000000000073
:103D50000000000000000000001000000000000053
:103D60000102030401020304060708090000000021
:103D70000000000000000000000000000000000043
:103D80000000000000000000000000000000000033
:040000050800018965
:00000001FF
