:020000040800F2
:1000000028050020250500082D0500082F050008FB
:100010003105000833050008350500080000000020
:1000200000000000000000000000000009020008BD
:100030003905000800000000AD0200080D030008AB
:100040003F0500083F0500083F0500083F05000880
:100050003F0500083F050008B1070008ED1700083C
:100060003F0500083F0500083F0500083F05000860
:100070003F0500083F0500083F0500083F05000850
:100080003F0500083F0500083F0500083F05000840
:100090003F0500083F0500083F0500083F05000830
:1000A0003F0500083F0500083F0500083F05000820
:1000B0003F0500083F0500083F0500083F05000810
:1000C0003F0500083F0500083F0500083F05000800
:1000D0003F0500083F0500083F0500083F050008F0
:1000E0003F0500083F0500083F0500083F050008E0
:1000F0003F0500083F0500083F0500083F050008D0
:100100003F0500083F0500083F0500083F050008BF
:100110003F0500083F0500083F0500083F050008AF
:100120003F0500083F0500083F0500083F0500089F
:100130003F0500083F0500083F0500083F0500088F
:100140003F0500083F0500083F0500083F0500087F
:100150003F0500083F0500083F0500083F0500086F
:100160003F0500083F0500083F0500083F0500085F
:100170003F0500083F0500083F0500083F0500084F
:100180003F0500083F050008DFF814D003F024F90C
:100190000021024804F0DCFBFEE70000F85A0008EA
:1001A0002805002080F309887047684680F3098895
:1001B00004480078C00714BF0220032080F314888D
:1001C00070470000C05A0008DFF818C0EFF305833D
:1001D0001B0618BF6047EFF31483DB0708BF6047B7
:1001E00000DF7047294B0008DFF818C0EFF30583E4
:1001F0001B0618BF6047EFF31483DB0708BF604797
:1002000000DF7047A94D0008EFF30980816911F8FC
:10021000021C002933D190E80F1010B5E047BDE86B
:100220001040EFF3098C8CE807001D4B93E80600A3
:10023000914208BF704781B11EF0100F06BF2CED30
:10024000108A0120002081F820002CE9F00FC1F86D
:1002500024C00CB405F0AAF80CBC1A60D2F824C073
:10026000BCE8F00F92F8200000281ABFBCEC108AFE
:100270006FF0120E6FF0020E8CF30988704710B504
:10028000084A1268914209D8074C54F8214090E876
:100290000F10A047EFF3098C8CE80F0010BD000091
:1002A0009C000020603400086034000810B504F0A1
:1002B00021FFBDE81040174B93E80600914208BFAC
:1002C0007047EFF3098C1EF0100F06BF2CED108A5B
:1002D0000120002081F820002CE9F00FC1F824C093
:1002E0000CB405F063F80CBC1A60D2F824C0BCE86A
:1002F000F00F92F8200000281ABFBCEC108A6FF0B3
:10030000120E6FF0020E8CF30988704710B505F0DD
:1003100013F9CEE79C0000200CB50020019000905E
:100320007548006840F480307349086000BF724827
:10033000006800F4003000900198401C0190009883
:1003400018B90198B0F5A06FF1D16B48006810F4AE
:10035000003F02D00120009001E0002000900098B2
:10036000012845D164484030006840F0805062491F
:10037000403108606148006840F480405F4908608F
:100380005D48083000685C4908310860084600682C
:1003900040F4004008600846006840F4A05008603F
:1003A0005748091F0860081F006840F08070091F47
:1003B000086000BF5048006810F0007FFAD040F29B
:1003C0000560504908604C480830006820F0030080
:1003D0004949083108600846006840F0020008609A
:1003E00000BF45480830006800F00C000828F8D12C
:1003F0000CBD10B54448006840F4700042490860E4
:100400003D48006840F001003B49086000203A493F
:1004100008310860384800683C490840364908609F
:100420003B48091D0860081F006820F48020091F50
:100430000860002030490C310860FFF76DFF4FF075
:10044000006031498039086010BD70B5002000227D
:10045000022300240221284D08352D6805F00C00E8
:1004600020B1042806D0082834D107E0294D2A4EAF
:10047000356033E0294D284E35602FE01E4D2D1D8F
:100480002D68C5F380541C4D2D1D2D6805F03F01CE
:1004900054B1224DB5FBF1F5174E361D3668C6F343
:1004A000881605FB06F209E01A4DB5FBF1F5124E70
:1004B000361D3668C6F3881605FB06F20E4D2D1D57
:1004C0002D68C5F301456D1C6B00B2FBF3F5124EB0
:1004D000356003E00F4D104E356000BF00BF064D84
:1004E00008352D68C5F303150D4E705D0A4D2D6856
:1004F000C540094E356070BD0038024000700040B4
:1005000008544007003C024088ED00E0FFFFF6FE83
:10051000103000240024F4000000002000127A00B3
:10052000040000200648804706480047FEE7FEE733
:10053000FEE7FEE7FEE7FEE7FEE7FEE7FEE7FEE793
:10054000F30300088901000800BFFEE700BFFEE7D3
:1005500000B585B00121084602F0CAF801218803E0
:1005600002F00AF903A801F0C5FE00208DF8100082
:100570000120039000208DF8130003A9934801F097
:1005800071FE0021084602F0F9FB012001900020D5
:100590008DF8080008208DF8090001208DF80A0068
:1005A00001A801F071FD06208DF8000001208DF8F2
:1005B000010002208DF8020001208DF8030068463A
:1005C00001F0E7FC05B000BD86B001F08BFCFFF741
:1005D000BFFF7F4A07CA03AB07C303A9802001F00E
:1005E000C0FC00F056FB7BA103C9CDE9010101A9C4
:1005F000802001F0B6FC79A002F034FF00217E4893
:1006000004F046FA7D49086003E04FF0FF3004F043
:1006100093F9FAE72DE9F047814679A002F022FF2D
:100620004FF0FF374FF0000825E001F065FAFA209F
:1006300004F082F901F0B9FA45B201F08AFA01F04A
:10064000DAFA46B23146284601F0FEFA0446652C35
:1006500010D07148047044206F4948706FA002F0B8
:1006600001FF01F01CFC6C49802001F07AFC6A4813
:1006700001F085F800BF442CD7D1BDE8F0870EB556
:100680006D4800F046FB01F037FA642004F054F99D
:1006900001F08BFA44B201F05CFA01F0ACFA45B219
:1006A0002946204601F0D0FA644908707FE02946C7
:1006B000204601F0C9FA6149087016E05E4800F072
:1006C00028FB01F019FA642004F036F901F06DFA04
:1006D00046B201F03EFA01F08EFA47B23946304692
:1006E00001F0B2FA5549087000BF544800786528F7
:1006F000E4D052480078412819D151A002F0B2FE4E
:100700005C4800F006FB00215B4804F0C1F95B493E
:10071000086000215A4804F0BBF95A4908603120AA
:1007200000F0E0FA064601205749087020E04348EF
:10073000007842280FD155A002F094FE624800F0E4
:10074000E8FA0021614804F0A3F961490860022039
:100750004D4908700CE039480078432808D15DA065
:1007600002F080FE694800F0D4FA03204649087080
:100770004FF0FF31012004F07FF98DE80700424877
:100780000078012808D13F48006804F0A5F93B48EB
:10079000006804F0A1F907E03B480078022803D183
:1007A0004B48006804F098F90020374908707EE74C
:1007B00010B5012001F0CEFC38B101210F480068CE
:1007C00004F040F9012001F0D6FC10BD0000024009
:1007D000585B000857656C636F6D650049206C6F4E
:1007E000766520776F6D616E207769746820626925
:1007F00067207469740A0000485B0008400000200C
:100800006B65797061642074687265616420656EDF
:100810007465726564210A00320000206265666FAB
:1008200072652073656E6453657175656E63653AB4
:100830002025730A0000000028000020310000205D
:100840003E3E3E3E3E3E3E3E456E746572696E677C
:10085000204D6F64655F31205265616C2054696D75
:10086000652054696C74696E673C3C3C3C3C3C3C84
:100870003C0A00002A000020085B00083400002029
:10088000285B000838000020300000203E3E3E3E3D
:100890003E3E3E3E456E746572696E67204D6F64E4
:1008A000655F32204D6F76656D656E74205365719E
:1008B00075656E636520496E7075743C3C3C3C3CCC
:1008C0003C3C3C0A000000002C000020385B000883
:1008D0003C0000203E3E3E3E3E3E3E3E456E746540
:1008E00072696E67204D6F64655F33205265636F78
:1008F000726420616E6420506C6179204F7074695D
:100900006F6E3C3C3C3C3C3C3C3C0A002E000020D2
:100910001149096811F0010F0ED00F49803909689B
:1009200011F0010F08D000BF4FF0604109680029A5
:10093000FAD04FF060421070704770B504460D4613
:100940002046FFF7E5FF70BD10B504462046FFF7CF
:10095000DFFF10BD00BFFEE7800E00E0704710B55E
:1009600004464FF48050FE49086009E0FC490868DD
:10097000411EFB4A116018B9FFF7F0FFC0B210BD6D
:100980000221F84802F0B1F90028EFD02146F548DD
:1009900002F074F94FF48050F149086009E0F04921
:1009A0000868411EEE4A116018B9FFF7D7FFC0B2C0
:1009B000E5E70121EB4802F098F90028EFD0E9487B
:1009C00002F059F9C0B2DAE72DE9F04105460E46CA
:1009D0001446012C01DD46F040064FF48071E248D8
:1009E00001F0BEFC3046FFF7BAFF06E02878FFF7BB
:1009F000B6FF0746601E84B26D1C012CF6DA4FF478
:100A00008071D94801F0AAFC3846BDE8F08110B5E4
:100A100004464FF48071D44801F0A2FC2046FFF751
:100A20009EFF4FF48071D04801F098FC10BD38B59E
:100A300030242046FFF7EBFF36242046FFF7E7FF80
:100A4000002429200090012221466846FFF7BCFFC0
:100A5000022406200090012221466846FFF7B4FFD9
:100A6000032407200090012221466846FFF7ACFFCF
:100A7000062402200090012221466846FFF7A4FFC9
:100A8000072404200090012221466846FFF79CFFBE
:100A9000082444200090012221466846FFF794FF75
:100AA000092400200090012221466846FFF78CFFB0
:100AB0000A2440200090012221466846FFF784FF67
:100AC0000B240C200090012221466846FFF77CFF92
:100AD0000C2400200090012221466846FFF774FF95
:100AE0000D245D200090012221466846FFF76CFF2F
:100AF0000E2493200090012221466846FFF764FFF0
:100B00000F24B1200090012221466846FFF75CFFC8
:100B100010240E200090012221466846FFF754FF62
:100B200011243B200090012221466846FFF74CFF2C
:100B3000122473200090012221466846FFF744FFEB
:100B4000132442200090012221466846FFF73CFF13
:100B50001424F8200090012221466846FFF734FF54
:100B6000152400200090012221466846FFF72CFF43
:100B7000182418200090012221466846FFF724FF20
:100B800019241D200090012221466846FFF71CFF12
:100B90001A241C200090012221466846FFF714FF0A
:100BA0001B24C7200090012221466846FFF70CFF56
:100BB0001C2440200090012221466846FFF704FFD4
:100BC0001D24B0200090012221466846FFF7FCFE5C
:100BD0002124B6200090012221466846FFF7F4FE4A
:100BE000222410200090012221466846FFF7ECFEE7
:100BF0002324EA200090012221466846FFF7E4FE04
:100C000024240A200090012221466846FFF7DCFEDA
:100C1000252400200090012221466846FFF7D4FEDB
:100C2000262419200090012221466846FFF7CCFEB9
:100C3000292459200090012221466846FFF7C4FE6E
:100C40002C2488200090012221466846FFF7BCFE34
:100C50002D2431200090012221466846FFF7B4FE82
:100C60002E240B200090012221466846FFF7ACFE9F
:100C70000424AF200090012221466846FFF7A4FE1D
:100C80000524AF200090012221466846FFF79CFE14
:100C900038BD10B500F0C6F8FFF7C9FE10BD70B53D
:100CA00006460C461546012D02DD44F0C00401E065
:100CB00044F080044FF480712B4801F051FB204632
:100CC000FFF74DFE06E00020FFF749FE3070681E7A
:100CD00085B2761C002DF6DC4FF48071224801F0BD
:100CE0003DFB70BD70B5044644F0C0044FF4807104
:100CF0001D4801F035FB2046FFF731FE0020FFF7CD
:100D00002EFE05464FF48071174801F027FB284658
:100D100070BD2DE9F84307461F267F254FF00208D6
:100D200038788DF8000078788DF801003620FFF7CC
:100D30006EFE3520FFF7D6FF0446344004E0352030
:100D4000FFF7D0FF04463440012CF8D13B20FFF7D9
:100D50005EFE3A20FFF7C6FF04462C400BE0000081
:100D60004C00002000380040000002403A20FFF70D
:100D7000B9FF04462C40002CF8D102223F216846DE
:100D8000FFF722FE3A20FFF7ADFF04462C4004E0B7
:100D90003A20FFF7A7FF04462C404445F8D1352000
:100DA000FFF735FE3520FFF79DFF0446344004E091
:100DB0003520FFF797FF04463440012CF8D13A2044
:100DC000FFF790FF04462C40BDE8F8832DE9F04181
:100DD0001F257F2602273620FFF719FE3520FFF753
:100DE00081FF04462C4004E03520FFF77BFF0446DA
:100DF0002C40012CF8D13420FFF709FE3520FFF7F5
:100E000071FF04462C4004E03520FFF76BFF0446D9
:100E10002C40012CF8D13B20FFF764FF04463440FE
:100E2000BDE8F08100B587B00121880301F0A4FC82
:100E30000121880301F08FFC0121084601F058FCD4
:100E40000121022001F054FC05220D21334801F05C
:100E500094FA05220E21314801F08FFA05220F2164
:100E60002E4801F08AFA02208DF8180000208DF833
:100E70001A0002208DF81B008DF819000003059060
:100E800005A9264801F0EEF94FF40040059005A9A8
:100E9000224801F0E7F94FF48040059005A91F486A
:100EA00001F0E0F91E4801F061FD0020ADF80000FE
:100EB000ADF80400ADF80600ADF808004FF400707E
:100EC000ADF80A003820ADF80C000020ADF80E0097
:100ED0000720ADF810004FF48270ADF802006946AB
:100EE0000F4801F069FD01210D4801F046FE4FF465
:100EF0008070059001208DF8180000208DF81A00F0
:100F00008DF8190005A9074801F0ACF94FF480717C
:100F1000044801F023FA07B000BD000000040240BD
:100F20000038004000000240704710B504464FF4FE
:100F30008050EA49086009E0E8490868411EE74A2C
:100F4000116018B9FFF7F0FFC0B210BD0221E448EC
:100F500001F0CBFE0028EFD02146E14801F08EFEE3
:100F60004FF48050DD49086009E0DC490868411E03
:100F7000DA4A116018B9FFF7D7FFC0B2E5E70121DF
:100F8000D74801F0B2FE0028EFD0D54801F073FE3B
:100F9000C0B2DAE770B505460E461446012C01DDF5
:100FA00046F040060821CF4801F0DAF93046FFF755
:100FB000BCFF05E02878FFF7B8FF601E84B26D1C07
:100FC000012CF7DA0821C74801F0C8F970BD00B557
:100FD00087B00121080301F0CFFB0121084601F091
:100FE00087FB0121102001F083FB0121102001F07B
:100FF0007FFB0121102001F07BFB05221146BA483E
:1010000001F0BBF905220621B74801F0B6F9052227
:101010000721B54801F0B1F902208DF81800002031
:101020008DF81A0002208DF81B008DF81900202081
:10103000059005A9AC4801F015F98020059005A997
:10104000A94801F00FF94020059005A9A64801F034
:1010500009F9A34801F08AFC0020ADF80000ADF8C2
:101060000400ADF80600ADF808004FF40070ADF8CC
:101070000A000820ADF80C000020ADF80E00072093
:10108000ADF810004FF48270ADF802006946944844
:1010900001F092FC0121924801F06FFD08200590BB
:1010A00001208DF8180000208DF81A0002208DF81C
:1010B000190005A98B4801F0D5F80821894801F0ED
:1010C0004DF90120059000208DF818008DF81A00C8
:1010D00002208DF8190000208DF81B0005A9814819
:1010E00001F0C0F80220059005A97E4801F0BAF889
:1010F00007B000BD38B5044600200090FFF767FF39
:10110000607821780843E178084321790843A17881
:1011100008430090012220216846FFF73BFF38BDBD
:1011200070B506460C461546012D02DD44F0C0049C
:1011300001E044F0800408216A4801F011F92046DA
:10114000FFF7F3FE06E00020FFF7EFFE3070681EA9
:1011500085B2761C002DF6DC0821624801F0FEF80D
:1011600070BD38B504460020009001222121684658
:10117000FFF7D6FF9DF8000000F0D0000090207827
:1011800061780843A17808439DF800100843009057
:10119000012221216846FFF7FDFE38BD38B504461F
:1011A00000200090012238216846FFF7B9FF20781F
:1011B00061780843A17808430090012238216846ED
:1011C000FFF7E8FE38BD38B5044601222021684605
:1011D000FFF7A6FF9DF8000000F0BF0000909DF80B
:1011E000000020430090012220216846FFF7D2FE34
:1011F00038BD38B50446012220216846FFF790FF2C
:101200009DF8000000F07F0000909DF80000204352
:101210000090012220216846FFF7BCFE38BD38B59A
:101220000446012220216846FFF77AFF9DF800005E
:1012300000F0DF0000909DF80000204300900122A4
:1012400020216846FFF7A6FE38BD08B501222121FE
:101250006846FFF765FF9DF8000040F040000090F1
:10126000012221216846FFF795FE08BD3EB50546DF
:101270000024012220216846FFF752FF062229217F
:1012800001A8FFF74DFF9DF8000010F0200002D0EC
:10129000202820D10FE000240AE001A911F8140051
:1012A00040B200EBC000400028602D1D601CC4B29D
:1012B000032CF2DB10E000240AE001A911F814006D
:1012C00040B200EBC000C00028602D1D601CC4B2FD
:1012D000032CF2DB00E000BF00BF3EBD5000002049
:1012E0000030014000100240000002402DED048B50
:1012F000DFED3E9AB0EE693AD0ED009AF8EEE99A49
:10130000B0EE690AD0ED019AF8EEE99AF0EE690ABA
:10131000D0ED029AF8EEE99AB0EE691AF7EE009A6B
:10132000F0EE691ADFED329AF0EE693ADFED2F9AAE
:10133000B0EE694ADFED2D9AF0EE694ADFED2B9AA7
:10134000F0EE695ADFED2A9AB0EE696ADFED279A6E
:10135000F0EE696ADFED259AB0EE695ADFED239A67
:10136000B0EE697ADFED229AF0EE697ADFED219A2C
:10137000B0EE698ADFED209AF0EE698ADFED1F9A00
:10138000B0EE699A60EE239A40EEA59A41EE059A76
:1013900041EE889AB0EE692A60EE049A40EE869A91
:1013A00041EE079A41EEA89AF0EE692A60EE249A7F
:1013B00040EEA69A41EE279A41EE899AB0EE693A3C
:1013C000DFED0A9AC1ED009ADFED089AC1ED019AAE
:1013D000DFED069AC1ED029A81ED002AC1ED012AE6
:1013E00081ED023ABDEC048B704700000000000064
:1013F0006F12833A948785BC4F40933D5BB13F3D6C
:1014000000B585B00121102001F072F90121880397
:1014100001F0B2F903A800F06DFF00208DF8100074
:101420000220039000208DF8130003A91C4800F04F
:1014300019FF0121042001F0A1FC022001900020ED
:101440008DF8080008208DF8090001208DF80A00A9
:1014500001A800F019FE07208DF8000001208DF88A
:1014600001008DF802008DF80300684600F091FD40
:1014700005B000BD1CB500208DF804008DF80500F6
:101480008DF8060001A8FFF789FE002000902020BB
:101490000090012222216846FFF77CFD1CBD000060
:1014A00000100240F0B502460C460020002502F173
:1014B0000806176846F827401668042E02D1002651
:1014C000166002E01668761C16605668052E13DA60
:1014D0000023002105E002F1080656F8216033449C
:1014E000491C56688E42F6DA5668761C93FBF6F075
:1014F0005668761C56600DE00023002105E002F1DD
:10150000080656F821603344491C0529F7DB0526F7
:1015100093FBF6F0F0BD30B50B46DFED220AB0EEDE
:10152000600A00F10804056824F815300468042CEA
:1015300002D10024046002E00468641C0460446872
:10154000052C19DA0022002105E000F1080434F826
:1015500011402244491C44688C42F6DA4468641CF9
:10156000B2FBF4F400EE904AF8EE600AB0EE600AC6
:101570004468641C446013E00022002105E000F18F
:10158000080434F811402244491C0529F7DB0524DE
:10159000B2FBF4F400EE904AF8EE600AB0EE600A96
:1015A00030BD0000000000009EB000201B901C9089
:1015B0001D90189019901A900120934908609FED92
:1015C000930A934880ED000A9FED900A914880EDC0
:1015D000000A00F04DF9FFF74DFFFFF711FF03F090
:1015E0006FFA8D490860002400201190129004E0E9
:1015F000002113A840F82410641C052CF8DB0024FB
:1016000000200A900B9004E000210CA840F8241060
:10161000641C052CF8DB002400200390049004E0F7
:10162000002105A840F82410641C052CF8DB7B4839
:10163000FFF71CFE45E04FF0FF31032003F01CFADA
:101640008DE807007548016811A8FFF72BFF1B9074
:10165000724841680AA8FFF725FF1C906F4881680F
:1016600003A8FFF71FFF1D9018A91BA8FFF73EFE58
:1016700018A800F0A5F9BDEEC00A10EE100A40B29D
:1016800000EE100AB8EEC00A614880ED000A18A802
:1016900000F002F9BDEEC00A10EE100A40B200EEF2
:1016A000100AB8EEC00A5B4880ED000A5C4800688A
:1016B00020B907215B48006803F0C4F95748FFF7D9
:1016C000D5FDB8E70EB504462546012621E04FF0CA
:1016D000FF31286803F0AAF9012601205249087059
:1016E00015E00121042003F0C7F98DE807000098F8
:1016F00040280CD1002600204B49087001204B499E
:101700000860286803F07AF9052003F015F9002E27
:10171000E7D1DCE71FB503F0D3F9424908602DE0BB
:101720004FF0FF31072003F0A7F98DE807000120F3
:101730003B490860364890ED000ABDEEC00A10EE45
:10174000100A40B28DF80C00324890ED000ABDEE50
:10175000C00A10EE100A40B28DF80D009DF90C1071
:1017600033A001F07FFE9DF90D1032A001F07AFE4A
:1017700003A8FFF7CEFA002029490860D0E7F8B5A2
:1017800005462D48056001682CA001F06BFE2A4833
:10179000006801F02BFB064631462DA001F062FEE9
:1017A0000020009003F08CF91E49086001201C49BC
:1017B0000860002414E020480068005D40B28DF805
:1017C00000001D480168601C085C40B28DF80100F3
:1017D000694622A001F046FE6846FFF79AFAA41C6B
:1017E000B442E8DB00200E490860F8BD10B50220C5
:1017F00000F0B0FC38B103210748006803F022F97B
:10180000022000F0B8FC10BD5800002000000000CD
:1018100074000020780000207C000020B800002028
:1018200054000020800000205C00002060000020A8
:101830002564200025640A006800002073656E643A
:1018400053657175656E63653A2025730A00000063
:1018500073697A65203A2025640000007472616E15
:10186000736D69743E3E3E3E2025730A0000000001
:101870001CB540208DF8000000208DF801000720E5
:101880008DF8020000208DF803008DF804006846F2
:10189000FFF730FC1CBD00002DE9F0412DED0E8B53
:1018A00004469FED910AB0EE408A9FED900A10EE3B
:1018B000105A94ED000AF0EE408A94ED010A10EE01
:1018C000106A94ED020A10EE107A304601F007FB20
:1018D00041EC100BB0EE40BAF0EE60BA9FED841B05
:1018E00001F05EFFB0EE40AAF0EE60AA51EC1A0BD8
:1018F00001F008FB09EE100A384601F0F0FA41EC5D
:10190000100BB0EE40BAF0EE60BA9FED791B01F01B
:1019100047FFB0EE40AAF0EE60AA51EC1A0B01F0BE
:10192000F1FA09EE900A39EE290A10EE101A08466B
:1019300001F0D5FA41EC100BB0EE40BAF0EE60BA0F
:1019400002F076FDB0EE40AAF0EE60AA51EC1A0B60
:1019500001F0D8FA0EEE100A284601F0C0FA41EC68
:10196000100BB0EE40BAF0EE60BA88EE8E0A10EEC0
:10197000108A404601F0B3FA41EC100BB0EE40DAA9
:10198000F0EE60DA01F098FDB0EE40CAF0EE60CA09
:1019900053EC1B2B51EC1C0B01F02FFA41EC100BFC
:1019A000B0EE40AAF0EE60AA51EC1A0B01F0AAFAD0
:1019B00008EE100AB0EE480ABDEC0E8BBDE8F081CF
:1019C0002DE9F0412DED0E8B04469FED470AB0EE58
:1019D000408A9FED460A10EE105A94ED000A10EE70
:1019E000106A94ED010AF0EE408A94ED020A10EEBE
:1019F000107A304601F073FA41EC100BB0EE40BAA9
:101A0000F0EE60BA9FED3A1B01F0CAFEB0EE40AABC
:101A1000F0EE60AA51EC1A0B01F074FA09EE100A0C
:101A2000384601F05CFA41EC100BB0EE40BAF0EE33
:101A300060BA9FED2F1B01F0B3FEB0EE40AAF0EEAE
:101A400060AA51EC1A0B01F05DFA09EE900A39EE2A
:101A5000290A10EE101A084601F041FA41EC100B69
:101A6000B0EE40BAF0EE60BA02F0E2FCB0EE40AA8E
:101A7000F0EE60AA51EC1A0B01F044FA0EEE100AD7
:101A8000284601F02CFA41EC100BB0EE40BAF0EE13
:101A900060BA88EE8E0A10EE108A404601F01FFAF6
:101AA00041EC100BB0EE40DAF0EE60DA01F004FD2C
:101AB000B0EE40CAF0EE60CA53EC1B2B51EC1C0B8D
:101AC00001F09BF941EC100BB0EE40AAF0EE60AAD9
:101AD00051EC1A0B01F016FA08EE100AB0EE480AA3
:101AE000BDEC0E8BBDE8F08100000000E12E6542E8
:101AF00000000000000000401CB50121082000F09B
:101B0000F7FD4FF4F060009001208DF804000020F4
:101B10008DF806008DF8050001208DF80700694654
:101B20006F4800F09FFB4E20009000208DF80400CD
:101B30008DF806008DF8050002208DF80700694633
:101B4000674800F08FFB4FF4F061654800F006FC39
:101B50001CBD1CB50121082000F0CAFD4E200090DC
:101B600001208DF8040000208DF806008DF8050096
:101B700001208DF807006946594800F073FB4FF4C7
:101B8000F060009000208DF804008DF806008DF8BC
:101B9000050002208DF807006946514800F062FBFD
:101BA0004E214F4800F0DAFB1CBD2DE9F041022127
:101BB0004B4800F0B9FB04460421494800F0B4FB4F
:101BC00005460821464800F0AFFB06464021444840
:101BD00000F0AAFB074614B10120BDE8F0810DB169
:101BE0000220FAE70EB10320F7E70FB10420F4E773
:101BF0004FF0FF30F1E72DE9F0418021384800F047
:101C000093FB04464FF48071354800F08DFB054688
:101C10004FF40071324800F087FB06464FF48061B4
:101C20002F4800F081FB074614B10120BDE8F08188
:101C30000DB10220FAE70EB10320F7E70FB104203F
:101C4000F4E74FF0FF30F1E70246012A0FD10129F6
:101C500001D131207047022901D13420FAE703294C
:101C600001D13720F6E7042937D12A20F2E7022AEA
:101C70000FD1012901D13220ECE7022901D1352011
:101C8000E8E7032901D13820E4E7042925D13020F1
:101C9000E0E7032A0FD1012901D13320DAE7022935
:101CA00001D13620D6E7032901D13920D2E7042912
:101CB00013D12320CEE7042A0FD1012901D14120DD
:101CC000C8E7022901D14220C4E7032901D14320FA
:101CD000C0E7042901D14420BCE76520BAE7000031
:101CE000000C02401FB50121082000F001FD02A8F0
:101CF00000F000FB3120029001208DF80C008DF8DF
:101D00000D0000208DF80E008DF80F0002A99C48F0
:101D100000F0A8FA0121102000F0EAFC684600F06B
:101D2000E9FA40F2F470009001208DF804008DF87B
:101D3000050000208DF806008DF8070069469148DF
:101D400000F090FA012211028E4800F00BFB1FBD3B
:101D500000E0401E0028FCD1704710B50446002268
:101D60004FF48071874800F0FDFA2046FFF7F0FF3E
:101D700001221102834800F0F5FA10BD70B588B059
:101D800005460126002406E005EA06004DF8240079
:101D90007006060E641C082CF6DB0098C2B2012106
:101DA000774800F0DFFA0198C2B20421754800F0CC
:101DB000D9FA0298C2B21021724800F0D3FA0398FF
:101DC000C2B220216F4800F0CDFA0498C2B21021AF
:101DD0006B4800F0C7FA0598C2B22021684800F0AD
:101DE000C1FA0698C2B24021664800F0BBFA0798D3
:101DF000C2B28021634800F0B5FA08B070BD10B5DA
:101E0000044664B900224FF400715E4800F0AAFA5B
:101E100000224FF480615B4800F0A4FA0AE000223F
:101E20004FF40071574800F09DFA01229102554885
:101E300000F098FA10BD10B50020FFF7E0FF062073
:101E4000FFF79CFF4CF25030FFF787FF10BD10B535
:101E50000020FFF7D4FF0220FFF790FF4CF2503034
:101E6000FFF77BFF10BD00B5024604E04CF2503096
:101E7000FFF76EFF521E002AF8D100BD10B50446D0
:101E800000224FF480713F4800F06CFA2046FFF7C3
:101E9000EAFF012211023B4800F064FA10BD10B5C0
:101EA0000020FFF7ACFF0120FFF768FF6420FFF779
:101EB000E5FF10BD10B50020FFF7A1FF0F20FFF7D1
:101EC0005DFF4FF47A70FFF7D9FF10BD10B5002009
:101ED000FFF795FF3820FFF751FF4CF25030FFF726
:101EE0003CFF10BD10B5FFF7FDFEFFF7EFFFFFF75A
:101EF000E1FFFFF7D4FF4CF25030FFF729FFFFF767
:101F0000A6FFFFF798FF10BD10B504460120FFF7AC
:101F100076FF2046FFF732FF4CF25030FFF71DFFEF
:101F200010BD10B504460020FFF769FF2046FFF7FB
:101F300025FF4CF25030FFF710FF10BD70B506467C
:101F40000C460025FFF7ABFF102C00DB70BD04E052
:101F5000705DFFF7D9FF681CC5B2A542F8DB00BF72
:101F6000F4E770B505460C462846FFF7DAFF03E0B4
:101F70002078FFF7C9FF641C20780028F8D170BDD5
:101F8000000C02400010024033490143334A116003
:101F9000704770B5002100230F22C47824B32F4C62
:101FA000246804F4E064C4F5E064C4F30721C1F1DB
:101FB0000404E3B20A4144789C40E1B284781440BE
:101FC00021430C07210E264C05786155047804F056
:101FD0001F050124AC4005786D114FF0E02606EB9B
:101FE0008505C5F8004109E0047804F01F040125C7
:101FF000A5401C4C0678761144F8265070BD1A4A4C
:102000000A400243154B1B1F1A60704739B1134A2F
:10201000121D12680243114B1B1D1A6006E00F4A85
:10202000121D126882430D4B1B1D1A607047042855
:1020300008D14FF0E021096941F004014FF0E0229E
:10204000116107E04FF0E021096921F004014FF030
:10205000E0221161704700000000FA050CED00E07D
:1020600000E400E080E100E080FFFF1F0020444921
:102070000860091D0860091D0860091D08604148C5
:102080003F4914310860704700213D498279002A98
:102090003AD00A46126803689A430B461A600A1D32
:1020A000126803689A430B1D1A60027911440A688A
:1020B00003681A430A60324A0832126803689A4376
:1020C0002F4B08331A601A1D126803689A432C4B71
:1020D0000C331A604279102A0ED11A1F1268036855
:1020E0001A43274B08331A601A1D126803681A43F3
:1020F000234B0C331A600DE02149427911440A68E0
:1021000003681A430A6005E0027911440A6803680B
:102110009A430A6070470021016001710C214171EE
:102120000021817170471649103109680143144A32
:1021300010321160704701460020114A14321268B3
:102140000A4201D0012000E0002070470C49143100
:1021500008607047014600200022094B1B6803EA13
:102160000102074B14331B680B4202D00AB1012055
:1021700000E00020704702491431086070470000F9
:10218000003C0140FFFF7F0010B504468C488442AC
:1021900008D10121084600F000FB0021012000F0D9
:1021A000FCFA5EE08748844208D10121022000F059
:1021B000F4FA0021022000F0F0FA52E08248844252
:1021C00008D10121042000F0E8FA0021042000F0E9
:1021D000E4FA46E07D48844208D10121082000F05D
:1021E000DCFA0021082000F0D8FA3AE0784884426E
:1021F00008D10121102000F0D0FA0021102000F0B9
:10220000CCFA2EE07348844208D10121202000F04E
:10221000C4FA0021202000F0C0FA22E06E48844277
:1022200008D10121402000F0B8FA0021402000F040
:10223000B4FA16E06948844208D10121802000F0F8
:10224000ACFA0021802000F0A8FA0AE06448844239
:1022500007D10121801500F0A0FA0021A01500F09F
:102260009CFA10BDF0B50A4600210023002400BFEF
:102270003DE0012505FA01F3156805EA03049C42D7
:1022800034D105684F000326BE40B543056015797B
:102290004E00B5400668354305601579012D02D022
:1022A0001579022D16D185684F000326BE40B5432F
:1022B000856055794E00B540866835438560456830
:1022C00001268E40B5434560456896798E40B6B28A
:1022D00035434560C5684F000326BE40B543C56021
:1022E000D5794E00B540C6683543C560491C1029F4
:1022F000BFD3F0BD4FF6FF71016000210171417144
:102300008171C171704708B54FF480320092009A14
:102310000A430092009AC261C161009AC261C26917
:102320000092C269009208BD0246002013690B4268
:1023300001D0012000E0002070470146086980B20A
:1023400070470246002053690B4201D0012000E093
:10235000002070470146486980B27047018370478A
:10236000418370470AB1018300E0418370474161B6
:10237000704742694A4042617047F0B5002300242B
:102380004D07ED0E02FA05F3CE1000F1200555F8C9
:1023900026504E07F70E0F26BE40B543CF1000F172
:1023A000200646F82750CE1000F1200555F826509B
:1023B00045EA0304CE1000F1200545F82640F0BDA3
:1023C000000002400004024000080240000C0240ED
:1023D000001002400014024000180240001C02409D
:1023E00000200240FA48006840F00100F849086007
:1023F0000020F74908310860F5480068F5490840B1
:10240000F3490860F448091D0860081F006820F4BB
:102410008020091F08600020ED490C3108607047DA
:102420000021EB4A921C117011460870704710B5DC
:1024300001460022002300204A11012A02D1E44C67
:10244000236808E0022A03D1E14C7034236802E0DB
:10245000DF4C7434236801F01F02012494401C42B5
:1024600001D0012000E0002010BD38B50020009010
:102470000024002500BF3120FFF7D9FF0546009852
:10248000401C00900098B0F5A06F01D0002DF2D054
:102490003120FFF7CCFF08B1012400E000242046E2
:1024A00038BD01460020CA4A106820F0F80040EA12
:1024B000C10010607047C949086070470021C44AD4
:1024C000703211701170012802D004280AD104E082
:1024D0000121BF4A7032117005E00521BC4A7032FB
:1024E000117000E000BF00BF7047BD490860704731
:1024F00070B5049C41EA82150126C6EB530645EAF5
:102500000645054345EA0465B14E361D356070BD8C
:10251000B24908667047820142EA0172AC4B8433CB
:102520001A607047AD4988667047AC49C864704707
:1025300002460020A64B0833186820F0EC6042EAFF
:1025400001031843A24B083318607047024600206D
:102550009F4B0833186820F0784042EA0103184383
:102560009B4B08331860704701460020984A083298
:10257000106820F00300084310607047944808304A
:10258000006800F00C00704701460020904A0832B5
:10259000106820F0F00008431060704701460020EA
:1025A0008B4A0832106820F4E050084310607047EE
:1025B00001460020864A0832106820F4604040EA54
:1025C000C10010607047F0B50021002200240225F0
:1025D000002602237E4F08373F6807F00C0121B127
:1025E000042905D0082937D105E07E4F076036E081
:1025F0007D4F076033E0764F3F1D3F68C7F380563D
:10260000734F3F1D3F6807F03F036EB1764FB7FB36
:10261000F3F7DFF8BCC10CF1040CDCF800C0CCF31C
:10262000881C07FB0CF40CE06E4FB7FBF3F7DFF8E8
:10263000A0C10CF1040CDCF800C0CCF3881C07FB33
:102640000CF4634F3F1D3F68C7F301477F1C7D00BB
:10265000B4FBF5F7076002E0624F076000BF00BF00
:102660005B4F08373F6807F0F00109095F4F7A5C5C
:102670000768D7404760564F08373F6807F4E05176
:10268000890A5A4F7A5C4768D7408760504F0837AD
:102690003F6807F46041490B544F7A5C4768D74064
:1026A000C760F0BD002100F44072B2F5407F0AD14E
:1026B000474A0832116821F4F8114D4A024011438B
:1026C000434A08321160424A70321268C0F30B0369
:1026D0001A433F4B70331A607047414944390860D0
:1026E00070473F4940390860704742490860704769
:1026F00039B1374A303212680243354B30331A60F1
:1027000006E0334A303212688243314B30331A606C
:10271000704739B12E4A3432126802432C4B34339D
:102720001A6006E02A4A343212688243284B343356
:102730001A60704739B1264A383212680243244B76
:1027400038331A6006E0224A383212688243204B3E
:1027500038331A60704739B11D4A4032126802435B
:102760001B4B40331A6006E0194A4032126882431C
:10277000174B40331A60704739B1154A443212681A
:102780000243134B44331A6006E0114A4432126884
:1027900082430F4B44331A60704739B10C4A1032F0
:1027A000126802430A4B10331A6006E0084A1032DE
:1027B00012688243064B10331A607047E1B1044A35
:1027C000143212680243024B14331A6019E00000FD
:1027D00000380240FFFFF6FE1030002400004742A0
:1027E000800E47420024F40000127A008800002086
:1027F000FFFCFF0F5C0147425B4A126882435A4B61
:102800001A60704739B1584A121D12680243564B7C
:102810001B1D1A6006E0544A121D12688243524B77
:102820001B1D1A60704739B14F4A0C3212680243BF
:102830004D4B0C331A6006E04B4A0C32126882434F
:10284000494B0C331A60704739B1474A103212684D
:102850000243454B10331A6006E0434A10321268B7
:102860008243414B10331A60704739B13E4A3C32C3
:10287000126802433C4B3C331A6006E03A4A3C3251
:1028800012688243384B3C331A60704739B1364A7C
:10289000403212680243344B40331A6006E0324A39
:1028A000403212688243304B40331A60704739B16E
:1028B0002D4A4432126802432B4B44331A6006E01F
:1028C000294A443212688243274B44331A607047C6
:1028D00039B1254A4C3212680243234B4C331A60FB
:1028E00006E0214A4C32126882431F4B4C331A6077
:1028F000704739B11C4A5032126802431A4B5033A8
:102900001A6006E0184A503212688243164B503360
:102910001A60704739B1144AD21F12780243124B21
:10292000DB1F1A7006E0104AD21F127882430E4B4A
:10293000DB1F1A7070470C486030006840F08070F0
:10294000094960310860704701460020064A083A8C
:1029500012680A4201D0012000E0002070470249BD
:10296000891F0870704700001438024010B50446F3
:10297000F648844208D101218014FFF765FF002149
:10298000A014FFF761FF16E0F148844208D101214D
:102990000014FFF748FF00212014FFF744FF0AE06E
:1029A000EC48844207D10121C013FFF73CFF00210E
:1029B000E013FFF738FF10BD10B50022028802F4C3
:1029C00041520B884C8823438C882343CC88234373
:1029D0000C8923434C8923438C892343CC8923438B
:1029E0001A430280838B4FF2FF74234083830B8A48
:1029F000038210BD2DE9F04F00250223002401279A
:102A000000220026944690469146B0F81CA04FF252
:102A1000400B0AEA0B0AA0F81CA04FF0020AA0F82B
:102A200020A0858BD1F808A0BAF1020F01D100BF18
:102A30006AE0B1F804A0BAF1000F01D1012700E06B
:102A40000227DFF814A3DAF800A01AF4000F09D067
:102A5000DFF804A3DAF800A02AF4000ADFF8F8B2DD
:102A6000CBF800A0DFF8F0A20AF17C0ADAF800A0A7
:102A7000CAF38818DFF8E0A20AF17C0ADAF800A0AD
:102A8000CAF30279DFF8D0A2AAF1040ADAF800A0AA
:102A90000AF03F0CDFF8C4A2BAFBFCFA0AFB08FA02
:102AA000BAFBF9F6B1F806A0BAF5007F0ED14FEAED
:102AB000162A0AEB8A0A4FEA4A0AD1F808B0BAFB8A
:102AC000FBFA0AF1050A1FFA8AF20FE04FEA471AE9
:102AD000B6FBFAFA0AEB8A0A4FEA4A0AD1F808B0BA
:102AE000BAFBFBFA0AF1050A1FFA8AF24FF00A0A4A
:102AF000B2FBFAF202F00104A2EB040ACAF34F039C
:102B00004FF6FF7A0AEA0424022B01DBFF2B01DDDA
:102B100002230024B1F806A04AEA040A4AEA030A9A
:102B2000A0F820A0B1F804A0B1F80CB04AEA0B0A52
:102B3000B1F802B04AEA0B0AB1F800B04AEA0B0A4F
:102B40004AF4006A4AEA05058583BDE8F08F002152
:102B5000018041808180C180018141818181C18169
:102B60000721018270470021018041808180C1805E
:102B70000221816000218181704721B1028842F0E9
:102B80004002028004E002884FF6BF731A400280C0
:102B9000704721B1828B42F48062828304E0828B91
:102BA0004FF6FF331A408283704702884FF2FF735B
:102BB0001A40028002880A4302807047B1F5804FB4
:102BC00004D1028842F48042028004E002884BF67D
:102BD000FF731A4002807047A1F57E42FF3A04D08D
:102BE000028842F48072028004E002884FF6FF639C
:102BF0001A400280704721B1828842F0040282802C
:102C000004E082884FF6FB731A408280704721B13E
:102C1000828842F01002828004E082884FF6EF73CF
:102C20001A408280704730B500220023848B4FF217
:102C300040052C40848302240484828B0C88B4F5E4
:102C4000007F01D00C8814B94FF4807308E00C8821
:102C5000B4F5407F03D00C88B4F5807F00D1002309
:102C60008C888D892C434D882C431C4344F400648C
:102C70002243828330BD0146888970478181704735
:102C800021B1028842F40052028004E002884DF62D
:102C9000FF731A4002807047018841F4805101801F
:102CA000704702460020012901D0108B00E0908A75
:102CB00070470146088A70471AB183880B438380A6
:102CC00002E083888B438380704730B50024002363
:102CD0000C110125A540ABB21AB185881D43858032
:102CE00002E085889D43858030BD0246002013891F
:102CF0000B4201D0012000E000207047CA4302814E
:102D00007047F0B50246002000240023002501F0A2
:102D10000F070126BE40B4B20B1101269E40B3B28C
:102D2000968806EA03051689264202D00DB10120D5
:102D300000E00020F0BD10B5002201F00F040123D7
:102D4000A3409AB2D343038110BD0000003001407C
:102D500000380040003C00400838024000127A0071
:102D600010B501218803FFF76FFD00214FF480406B
:102D7000FFF76AFD10BD1A490860704730B50022A0
:102D80008B071C0F0F2303FA04F2154B08338C102A
:102D900053F824309343124C08348D1044F82530F6
:102DA00023468C1053F824308C07240F00FA04F4C7
:102DB00023430B4C08348D1044F8253030BD0949AD
:102DC00008607047084908607047002004492031B6
:102DD000096811F4807F01D0012000E000207047D5
:102DE00000380140DC00274200042742421C10F852
:102DF000011B0029FBD1801A70472DE9FE4F81EAA3
:102E0000030404F0004421F0004100944FF0000B53
:102E100023F0004350EA010402D052EA030404D133
:102E20000020014603B0BDE8F08FC3F30A54C1F39C
:102E30000A552C44A4F2F3340194A0FB0254C1F3CC
:102E4000130141F48011C3F3130343F4801301FB16
:102E5000024400FB034E840A970A44EA815447EA7D
:102E60008357A4FB076802958D0A05FB07854FEA87
:102E7000932C04FB0C542705029D4FEA065847EAA1
:102E80001637B5EB08056EEB070C870E920E47EA76
:102E9000811742EA8312A7FB0201B6EB0B0164EB38
:102EA00000042B0D43EA0C335E1844EB1C50DA4649
:102EB0005146E7FB0201C5F313044FEA0B3343EA23
:102EC00014534FEA0432019C43EA0603A4F10C04B4
:102ED0000294009CCDE900B400F089F8A2E700F06C
:102EE000004230F000400AD0C10D01F56071C0F31E
:102EF000160042EA0151C208400711437047002002
:102F00000146704701F0004330B421F0004150EA1F
:102F1000010206D00A0DA2F56072C1F31301002A66
:102F200002DC30BC00207047440F44EAC104C100F9
:102F3000E01830BC00EBC25000F016B830B50B46BC
:102F4000014600202022012409E021FA02F59D42D9
:102F500005D303FA02F5491B04FA02F52844151EAD
:102F6000A2F10102F1DC30BD0029A8BF7047401C6E
:102F7000490008BF20F00100704710B4B0FA80FC8F
:102F800000FA0CF050EA010404BF10BC704749B1CC
:102F9000CCF1200421FA04F411FA0CF118BF01213C
:102FA00021430843A3EB0C01CB1D0106000A002BB3
:102FB000BEBF002010BC704700EBC3501044002976
:102FC000A4BF10BC7047401C490008BF20F001009E
:102FD00010BC704710B5002B08DA401C41F100010D
:102FE00092185B411A4301D120F0010010BD2DE978
:102FF000F04D92469B4611B1B1FA81F202E0B0FA6F
:1030000080F22032904600F0F9F904460F4640EA7B
:103010000A0041EA0B0153465A46084303D12046B1
:103020003946BDE8F08D114653EA010015D0C8F1CC
:103030004002504600F0F1F905460E46504659460A
:10304000424600F0DBF9084301D0012000E00020F7
:10305000054346EAE0762C4337430A984FEA445347
:10306000A0EB08004FEAD4240A304FF0000244EAF3
:1030700047544FEAD72502D500200146D1E7010584
:1030800010196941DDE9084500196941BDE8F04DB5
:10309000A0E72DE9FE4F804681EA0300C00F0C46F1
:1030A000009021F0004123F00045B8EB0200A94157
:1030B00005D24046214690461C460B46024623F068
:1030C0000040104304D14046214603B0BDE8F08FD4
:1030D000270DC7F30A00C3F30A510290401A01906A
:1030E000402866DAC3F3130040F4801B0098924630
:1030F00020B10023D2EB030A63EB0B0B0198594676
:10310000C0F14002504600F079F906460D4650469F
:103110005946019A00F091F910EB08006141002432
:1031200087EA115284EAE7731A433BD0009A3AB314
:10313000019A012A4FEA075210DC001B61EB0201E1
:103140004FF0004202EA0752CDE90042001C41F56F
:10315000801132462B46FFF74AFFB6E7001B61EBB2
:103160000201001C41F5801300185B412018A2F5F4
:10317000001747EB030140EAD570B6196D4111E025
:103180006D084FEA360645EAC0754FEA0752001B44
:1031900061EB0201001C41F5801149084FEA300043
:1031A0000019514132462B4603B0BDE8F04FFFF7FE
:1031B00011BF0098012240000023D0EB020263EB14
:1031C000E073009821464FEAE074B8EB000061EB31
:1031D0000401E9E783F000435BE781F0004158E731
:1031E0002DE9F04D81EA030404F0004B21F0004585
:1031F00014464FF0000A23F0004150EA050220D0A7
:1032000054EA01021DD0C5F30A570246C5F3130361
:10321000C1F31300C1F30A5640F4801543F4801340
:10322000A7EB0608101BD64608F2FD3873EB050025
:1032300002D308F1010801E092185B41B8F1000FD8
:1032400003DA00200146BDE8F08D00204FF4801124
:10325000064684460EE0171B73EB050705D3121BC9
:1032600063EB050306434CEA010C49084FEA3000C2
:1032700092185B4150EA0107EDD152EA030012D0E7
:1032800082EA040083EA0501084303D100224FF0DB
:10329000004308E0101BAB4102D20122002302E0F0
:1032A0006FF0010253101AEB06004CEB085110EBC3
:1032B0000A0041EB0B01BDE8F04DFFF78BBE70B586
:1032C00021F0004303430CD0C1F30A550024D5EB91
:1032D000040564EB0403D617AD1AB34102DB0020EA
:1032E000014670BD201841EB025170BD2DE9F04D33
:1032F00000231A461B1A8A4103DB00200146BDE861
:10330000F08DC1F30A52C1F3130141F480154FF05F
:10331000000BD10702D100186D41521E0027044650
:1033200040F2FF11384601EB620A3E4680460246F3
:1033300000204FF4801100F070F8C2197141BB18E1
:1033400046EB0100B4EB030C75EB000C04D3E41A5C
:1033500065EB000517460E46241908F101006D4182
:1033600080463428E3DDF91946EB0600091BA84125
:1033700003D24FF0FF32134601E0002213461BEB4D
:10338000070046EB0A51BDE8F04DFFF723BE0EB52E
:10339000C10F80EAE0700844CA07002140F23343BD
:1033A0008DE80E000A460B46FFF721FE03B000BD74
:1033B00030B5002904DB4FF00044404264EB0101CA
:1033C000002B04DB4FF00044524264EB03039942AC
:1033D00008BF904230BD0000064C074D06E0E06893
:1033E00040F0010394E8070098471034AC42F6D34C
:1033F000FCF7CEFE905C0008C05C0008202A04DBCD
:10340000203A00FA02F1002070479140C2F12003F7
:1034100020FA03F3194390407047202A04DB203A36
:1034200021FA02F00021704721FA02F3D040C2F1E4
:1034300020029140084319467047202A06DBCB172B
:10344000203A41FA02F043EAE07306E041FA02F35F
:10345000D040C2F120029140084319467047000055
:10346000000000000FB4054B10B503A9044A0298F0
:1034700001F0E4F810BC5DF814FB00003B09000803
:103480004400002003B401984100009850EAC12094
:1034900018BF04204A0D18BF40F0010040F2FF722F
:1034A000B2EB515F08BF40F00200012808BF0520C1
:1034B00002B070470000000070B59F482DED020B70
:1034C0002DED068B079D25F00044A0421DDC9B4896
:1034D000844202DC0FD1069868B19DED060B53ECD7
:1034E000102B51EC100BFFF7D4FDBDEC068B02B096
:1034F00041EC100B70BD002DCCBF9FED910B9FEDEB
:10350000920BBDEC068B02B070BD9148A04215DD58
:103510009048A042D8BF4FF0FF3440DD9DED060B30
:1035200051EC100BFFF7AEFF042808BF01F03CF888
:103530009DED060BBDEC068B02B070BD9DED060B3C
:1035400051EC100B01F086F941EC100B82488DED27
:10355000060B9FED838BA0423CDD8348A0421FDD1C
:1035600000249FED839B51EC100B53EC192BFFF7BC
:1035700090FD9DED060B41EC1A0B53EC192B51EC11
:10358000100BFFF73AFC53EC182BFFF723FE53EC1C
:103590001A2BFFF725FE41EC100B8DED060B49E0D1
:1035A000012453EC182B51EC100BFFF772FD9DED2D
:1035B000060B41EC190B53EC182B51EC100BFFF7D9
:1035C00009FE53EC192BFFF70BFE41EC100B8DEDB0
:1035D000060B2FE06848A0421FDD02249FED689B88
:1035E00051EC100B53EC192BFFF707FC53EC182B85
:1035F000FFF74FFD9DED060B41EC180B53EC192B1B
:1036000051EC100BFFF7E6FD53EC182BFFF7E8FD2C
:1036100041EC100B8DED060B0CE053EC102B03244A
:103620009FED590B51EC100BFFF7DAFD41EC100B3D
:103630008DED060B9DED060B53EC102B51EC100B92
:10364000FFF7DBFB41EC180B53EC182BFFF7D5FB16
:1036500041EC190B4E480621B0EE490AF0EE690A1A
:10366000784400F022FF53EC182B51EC100BFFF7BD
:10367000C4FB41EC180B4748B0EE490AF0EE690A6A
:103680000521784400F011FF53EC192B51EC100B7D
:10369000FFF7B3FB41EC100B51EC180B53EC102B64
:1036A000002C0EDAFFF7F5FC9DED061B53EC112BF9
:1036B000FFF7A3FB9DED061B53EC112BFFF78DFDD0
:1036C00035E0FFF7E6FC9DED061B53EC112BFFF7F1
:1036D00094FB41EC100B3048784400EBC40090EDB3
:1036E000001B51EC100B53EC112BFFF773FD9DEDFC
:1036F000061B53EC112BFFF76DFD41EC110B274816
:10370000784400EBC40090ED000B51EC110B53EC2E
:10371000102BFFF762FD41EC100B002DA2BFBDEC9A
:10372000068B02B070BD51EC100B81F0004141ECF2
:10373000100BFFE600000000000010440000F07FC6
:10374000182D4454FB21F93F182D4454FB21F9BF97
:103750000000DC3F0000203E0000F33F00000000BE
:10376000000000000000F03F0000E63F0000000005
:103770000000000000000040008003400000000046
:10378000000000000000F83F000000000000F0BF53
:103790006C25000022250000AC24000064240000F9
:1037A0002DE9F04D2DED040B2DED0E8B94B0DDE9E0
:1037B0002350259CDDF888A025F0004624F0004821
:1037C000BAF1000F14BF0121002101EB4502FE49AF
:1037D00053184A1093422AD3002814BF0123002310
:1037E00003EB44030B44F9498B4220D358EA000110
:1037F0009FEDF78B6FD0DFF8E0B35D4503D1BAF1F1
:10380000000F05D181E0BAF1000F08BF002100D000
:10381000012101EB450111F5001F08D8002814BF54
:103820000121002101EB440111F5001F0AD99DED92
:10383000240B53EC102B9DED220B51EC100BFFF7DA
:1038400028FC40E00027002DBCBFE449884521DA70
:10385000E3498845A8BF02271CDAC3451ADCE149C1
:1038600001EB2851142908DDC1F1340220FA02F1DC
:1038700001FA02F282420DD108E058B9C1F11402F6
:1038800028FA02F101FA02F2424503D101F00101E6
:10389000C1F1020756EA0A019FEDD3AB1CD1002CFF
:1038A0001ADA002D18BF022F01D0012F07D00220F5
:1038B00000F09AFE53EC1A2B51EC180B05E1022094
:1038C00000F092FE7DE041EC100B14B0BDEC0E8BCD
:1038D00004B0BDE8F08D18E09FEDC5BB9FEDC69B21
:1038E000002877D1BD48804522D105F1804010F5F0
:1038F000801008BFBAF1000F07D0B3450ADC002CD6
:10390000A8BF9DED240BE0DA0DE0B0EE480AF0EE22
:10391000680ADAE7002C06DA9DED240B51EC100B57
:1039200081F00041CFE7B648784490ED000BCCE73A
:10393000D84553D1002C4EDA2EB1864240D1BAF18F
:10394000000F48D12CE0BAF1000F19D0022000F08E
:103950004BFE53EC192B51EC190BFFF74EFA41ECCF
:10396000100B8DED020B9DED220B8DED000B10EE7B
:10397000900A039961F31E0003909DED020BA4E7EA
:103980008DED02BB9DED220B1BEE901A10EE900AFE
:103990008DED000B61F31E0003909DED020B94E78B
:1039A0008DED02AB9DED220B1AEE901A10EE900AEF
:1039B0008DED000B61F31E0003909DED020B84E77B
:1039C00009DA9DED220B51EC180B53EC102BFFF78D
:1039D00007FC78E71DE09DED220B76E7864218DABA
:1039E000B4F1804F0DD0A4F10050B0F1FF5010D1D0
:1039F000002D0EDB9DED220B51EC100B01F080FE33
:103A000061E79DED220B53EC102B51EC100B00F0F5
:103A1000E1BC9DED220B51EC100B00F01BFF41ECC3
:103A2000100BBAF1000F8DED120B34D19FED760B18
:103A3000DEB1A6F1E040B0F17F602CD1002D01DDB8
:103A4000002C0DDA002D01DD002C1FDB002D16DA15
:103A5000002C14DB012F08BF9FED6D0B3FF435AF39
:103A6000B0EE4B0AF0EE6B0A2FE7022F18BF002DC5
:103A70000CD0012F0AD1002DFFF627AF06E0002D54
:103A8000B8BF002C07DA012F3FF41FAFB0EE4A0A8F
:103A9000F0EE6A0A19E7012000EBE5700490384364
:103AA0000CD05D48002580457DDD5C495C4888453B
:103AB00013DDB0420CDB002C18DB30E0012000F0FD
:103AC00093FD53EC1A2B51EC1A0BFFF789FBFAE626
:103AD000B34502DC002C09DC21E0864202DA002C2E
:103AE0001DDA03E05E452DDD002C18DD022000F01C
:103AF0007BFD53EC192B51EC190BFFF77EF941ECD0
:103B0000100B1BEE900A10EE901A8DED020B8DED4E
:103B100000BB61F31E0003909DED020BD5E6022071
:103B200000F062FD00F040FD10EE901A18EE900AD1
:103B30008DED020B8DED008B61F31E0003909DED6A
:103B4000020BC2E69DED220B53EC182B51EC100B2F
:103B5000FFF740FB41EC100B8DED0C0B9FED320B92
:103B600053EC102B9DED0C0B51EC100BFFF745F9AE
:103B70009FED2F1B53EC112BFFF72FFB9DED0C1B23
:103B800053EC112BFFF739F99FED2B1B53EC112B45
:103B9000FFF723FB9DED0C0B41EC1A0B53EC102BA4
:103BA00051EC100B00E08AE0FFF727F953EC1A2BD9
:103BB000FFF723F99FED220B41EC1B0B53EC102B6D
:103BC0009DED0C0B40E00000FFFF1F00FFFF0F000A
:103BD000000000000000F03F0000F03F0000F07F18
:103BE0000000404301FCFFFF000000000000000057
:103BF000000000000000F07F0000000000000070E6
:103C00005C230000000000000000000000000080B5
:103C1000000000000000F0FF0000E0410000F04361
:103C2000FFFFEF3F00000000000000000000D03F59
:103C3000555555555555D53F000000000000E03F53
:103C4000000000604715F73F51EC100BFFF7D5F867
:103C500041EC1A0B9FEDFE0B51EC1B0B53EC102BA0
:103C6000FFF7CBF841EC1B0B9FEDFB0B53EC102B3C
:103C70009DED0C0B51EC100BFFF7BFF853EC1B2B19
:103C8000FFF7A8FA41EC1B0B51EC1A0B53EC1B2B62
:103C9000FFF7FFF941EC100B53EC1A2B8DED080BDD
:103CA00008959DED080B51EC100BFFF793FA53ECC0
:103CB0001B2BFFF792FA41EC100B00F0AFB900207C
:103CC000B6F5801F11DA9FEDE60B53EC102B9DED3E
:103CD000120B51EC100BFFF790F841EC100B6FF04A
:103CE000340010EE906A8DED120BDF4900EB265088
:103CF000A0F2FF38C6F3130040F07F6646F040564E
:103D00008842D8BF002409DDD8498142C8BF0124B8
:103D100004DC002408F10108A6F58016D448784494
:103D200000EBC40A13969AED000B53EC102B9DED9B
:103D3000120B51EC100BFFF74DFA9AED000B41EC12
:103D40001B0B53EC102B9DED120B51EC100BFFF7DE
:103D5000A0F941EC100B51EC180B53EC102BFFF7B2
:103D60003FFA41EC1C0B51EC1B0B53EC1C2BFFF7E7
:103D700044F841EC1A0BBF488DED0AAB78440A9524
:103D800090ED000B4FF0005040EA660000EB8440DD
:103D90008DED100B00F5002011909AED000B53EC07
:103DA000102B9DED100B51EC100BFFF713FA9DED4E
:103DB000121B53EC112BFFF710FA41EC100B53ECD4
:103DC000102B9DED0A0B51EC100BFFF716F89DED33
:103DD000100B41EC1D0B53EC102B9DED0A0B51EC1D
:103DE000100BFFF70AF853EC1B2BFFF7F6F953EC17
:103DF0001D2BFFF7EFF953EC1C2BFEF7FEFF41ECF8
:103E00001C0B53EC1A2B51EC1A0BFEF7F6FF41EC8E
:103E10001B0B99480621B0EE4B0AF0EE6B0A784472
:103E200000F043FBB0EE40DAF0EE60DA53EC1B2B0F
:103E300051EC1B0BFEF7E1FF53EC1D2BFEF7DDFFF2
:103E40009DED0A0B41EC1B0B53EC1A2B51EC100BA4
:103E5000FFF71FF953EC1C2BFEF7CFFF53EC1B2B86
:103E6000FFF717F99DED0A0B41EC1D0B53EC102BDE
:103E700051EC100BFEF7C1FF41EC1B0B9FED80EBEB
:103E800053EC1E2BFFF705F953EC1D2BFFF701F93F
:103E900041EC100B53EC1E2B8DED100B10959DED8E
:103EA000100B51EC100BFFF795F953EC1B2BFFF7A0
:103EB00091F953EC1D2BFFF790F99DED100B41ECA0
:103EC0001D0B53EC102B9DED0A0B51EC100BFEF764
:103ED00094FF41EC1B0B53EC1A2B51EC1D0BFEF71E
:103EE0008CFF9DED100B41EC1A0B53EC102B51EC99
:103EF0001C0BFEF782FF53EC1A2BFFF7CAF841ECBC
:103F00001A0B51EC1B0B53EC1A2BFFF7C2F841ECC8
:103F1000100B53EC1B2B8DED0A0B0A959DED0A0B34
:103F200051EC100BFFF756F953EC1A2BFFF755F92C
:103F300041EC1A0B9FED540B53EC102B9DED0A0B2B
:103F400051EC100BFEF759FF41EC1B0B9FED500B92
:103F500051EC1A0B53EC102BFEF74FFF41EC1A0BF0
:103F60009FED4D0B53EC102B9DED0A0B51EC100BFC
:103F7000FEF743FF53EC1A2BFFF78BF841EC100BC5
:103F80004748784400EBC40090ED001B51EC100B47
:103F900053EC112BFFF77DF841EC1A0B4046FFF76D
:103FA000F6F941EC100B53EC1A2B8DED0C0B51EC88
:103FB0001B0BFFF76EF841EC100B3A48784400EB0E
:103FC000C40451EC100B94ED001B53EC112BFFF7C4
:103FD00060F89DED0C1B53EC112BFFF75AF841ECE8
:103FE000100B8DED080B08959DED0C0B53EC102B71
:103FF0009DED080B51EC100BFFF7ECF894ED000B66
:1040000053EC102BFFF7E6F853EC1B2BFFF7E2F80D
:1040100053EC1A2BFFF7E1F841EC100B0498791ED2
:10402000B0EE48BAF0EE68BA084308BF9FED1E8BA9
:104030009DED241B53EC102B8DED001B00959DED89
:10404000240B51EC100BFEF7D8FE41EC1A0B2FE0BD
:10405000FE822B654715F73F44DF5DF80BAE543EFB
:1040600000000000000040438E9803007AB60B0069
:10407000DE1E0000081F00000E1E000000000000F1
:104080000000000000000840000000E009C7EE3F0B
:10409000FD033ADC09C7EE3FF5015B14E02F3EBE9D
:1040A0009A1C0000501C0000000000000000F0BF3F
:1040B0009DED000B53EC102B9DED240B51EC100BE0
:1040C000FFF788F89DED081B53EC112BFEF795FECA
:1040D00053EC1A2BFEF7DDFF9DED080B41EC1A0B9C
:1040E00053EC102B9DED000B51EC100BFEF785FEF1
:1040F00041EC100B51EC1A0B8DED0A0B53EC102B0D
:10410000FEF7C7FF41EC100BB54910EE904A10EED8
:10411000100A8DED020B8C4235DB611A084318D171
:104120009DED0A0B53EC102B9DED020B51EC100B87
:10413000FFF750F841EC1C0B9FEDAB0B51EC1A0B49
:1041400053EC102BFEF7A5FF53EC1C2BFFF730F9B7
:1041500033D2022000F048FA53EC192B51EC190B22
:10416000FEF74BFE41EC100B18EE900A10EE901A81
:104170008DED020B8DED008B61F31E0003909DED24
:10418000020BFFF7A2BB9A4A24F00041914214D3DC
:104190009849214408437FF4C2AC9DED0A0B53ECCF
:1041A000102B9DED020B51EC100BFFF713F853ECA5
:1041B0001A2BFFF7FDF87FF6B2AC24F000408E49D1
:1041C0008E4A002601EB20519042D8BF9DED0A0B8C
:1041D0002DDD481C4FF4801121FA00F02044C0F37B
:1041E0000A51874AA1F2FF317A4492ED000B854AC9
:1041F0008DED0C0BCA4020EA0202C0F3130040F41C
:104200008010C1F1140120FA01F60D92002CB8BF04
:1042100076429DED0C0B53EC102B9DED0A0B51ECEF
:10422000100BFEF7D7FF41EC100B8DED0A0B53EC92
:10423000102B51EC1A0BFEF72CFF41EC100B8DEDFF
:104240000C0B9FED710B0C9553EC102B9DED0C0B93
:1042500051EC100BFEF7D1FD41EC190B9FED6C0BEF
:1042600053EC102B9DED0C0B51EC100BFEF7C5FD24
:104270009DED0A0B41EC1C0B53EC102B9DED0C0B30
:1042800051EC100BFEF7A6FF53EC1A2BFEF7A5FF1F
:104290009FED611B53EC112BFEF7AFFD53EC1C2B74
:1042A000FEF7F7FE41EC1A0B51EC190B53EC1A2BED
:1042B000FEF7EFFE41EC100B53EC192B8DED020BCA
:1042C000FEF788FF53EC1A2BFEF787FF9DED020BDC
:1042D00041EC190B53EC102B51EC100BFEF78DFD3C
:1042E00041EC100B4E488DED0C0B0521784400F08D
:1042F000DCF89DED0C1B51EC100B53EC112BFEF771
:104300007CFD9DED021B53EC112BFEF766FF41EC8B
:10431000100B53EC192B8DED080B9DED020B51EC9E
:10432000100BFEF76AFD53EC192BFEF7B2FE9FED62
:104330003E0B41EC1A0B53EC102B9DED080B51EC8E
:10434000100BFEF747FF9DED080B41EC190B53ECEA
:10435000102B9DED020B51EC100BFEF74EFD53ECB4
:10436000192BFEF73DFF53EC1A2BFEF733FF9DEDA3
:10437000021B53EC112BFEF72DFF53EC1B2BFEF70A
:104380002CFF41EC100B10EE900A8DED020B00EBB0
:10439000065001150029C4BF03909DED020B15DCEA
:1043A000324651EC100BFEF78AFFFFF76BF804283A
:1043B00008BF00F0F9F832469DED020B51EC100BEE
:1043C000FEF77DFF41EC100B8DED020B53EC102B33
:1043D00051EC180BFEF711FDFFF775BA0000000055
:1043E0000000904000000000FE822B654715973CBE
:1043F00000CC904000346F3F01FCFFFF0000E03F25
:104400009C1A0000FFFF0F0000000000432EE63F53
:10441000396CA80C615C20BEEF39FAFE422EE63FF3
:1044200070190000000000000000000000000040C3
:1044300000B52DED048BB0EE408AF0EE608A83B0BB
:1044400051EC180BFEF752FF41EC190B19EE100A54
:1044500019EE901A8DED009B002818BF012008432B
:1044600020F00040C0F17F6000F1E040C00F14D0A8
:1044700018EE101A18EE900A8DED008B002918BF67
:104480000121084320F00040C0F17F6000F1E040CE
:10449000C00F04BF012000F0A7F8B0EE490A03B036
:1044A000F0EE690ABDEC048B00BD70B504462DED3D
:1044B000028B4D1E00EBC500B0EE408AF0EE608A24
:1044C00090ED000B35F0060017D053EC182B51EC93
:1044D000100BFEF792FC41EC100B6D1E04EBC500B7
:1044E00090ED001B51EC100B53EC112BFEF7D1FD9E
:1044F00041EC100B35F00600E7D1022D36D0042D2B
:104500001CD0062D1CBFBDEC028B70BD53EC182BCC
:1045100051EC100BFEF771FC94ED0A1B53EC112BC0
:10452000FEF7B7FD53EC182BFEF767FC94ED080B74
:1045300053EC102BFEF7ADFD41EC100B53EC182B98
:1045400051EC100BFEF759FC94ED060B53EC102BBD
:10455000FEF79FFD53EC182BFEF74FFC94ED041B68
:1045600053EC112BFEF795FD41EC100B53EC182B7F
:1045700051EC100BFEF741FC94ED020B53EC102BA9
:10458000FEF787FD53EC182BFEF737FC94ED000B7C
:1045900053EC102BFEF77DFDBDEC028B41EC100BB4
:1045A00070BD0000000000009FED050B10B553EC3E
:1045B000102B51EC100BFEF720FC41EC100B10BD42
:1045C000000000000000001002E008C8121F08C12F
:1045D000002AFAD170477047002001E001C1121F84
:1045E000002AFBD1704700000149086070470000B5
:1045F000B400002010B5002A06DA22F00042D21DD5
:1046000022F00703102203E0D21C22F003030C2245
:1046100013B19C188C4201D9012010BD0244014401
:104620008360C0E90021C91AD018884202D81060FE
:104630000246F9E70020106010BD00002DE9FF4F91
:104640008BB09A460F4605460026C9E0252837D18B
:1046500000246D1C6649A04601222B78203B02FAFB
:1046600003F0084202D004436D1CF6E728782E2898
:1046700017D115F8010F44F004042A280ED06FF06A
:104680002F022878A0F1300109290AD808EB880107
:1046900002EB410100EB01086D1CF2E757F8048BB7
:1046A0006D1C287869283FD006DC002871D063286B
:1046B0000CD0642804D137E0732811D075284ED06F
:1046C00052460D99904706F1010688E017F8040B51
:1046D0008DF8000000208DF80100E946012003E07C
:1046E00057F8049B4FF0FF3061074FF0000401D4EE
:1046F0000AE0641C44450DDA8442FADB19F8041020
:104700000029F6D106E0641C8442FCDB19F8041091
:104710000029F8D1264404E019F8010B52460D99FE
:104720009047641EF8D25AE001CF4FF00A0B0028E0
:1047300004DAC0F100004FF02D0102E0210504D59C
:104740002B218DF82410012103E0E10705D0202161
:10475000F7E70DF1200908910CE00021F9E701CFFE
:104760004FF00A0BF9E75946FEF7E8FB01F130027A
:1047700009F8012D0028F6D1ADEB090000F1200B5E
:10478000600701D44FF00108D84503DDA8EB0B000A
:1047900001E029E000208046002406E009A85246F6
:1047A000005D0D999047761C641C08988442F5DBE7
:1047B00004E0302052460D999047761CB8F1000174
:1047C000A8F10108F5DC05E019F8010B52460D9936
:1047D0009047761CBBF10001ABF1010BF4DC6D1CC2
:1047E000287800287FF432AF0FB03046BDE8F08F54
:1047F0000928010008480068C0010BD50748006877
:10480000C00707D0054880380068002802DA04494C
:104810000120087070470000FCED00E0800E00E011
:10482000AA0000204FF06042D36F002BFCD0C36A77
:10483000D367D36F002BFCD0C07840EA0120A2F8E8
:104840007C0070474FF06041CA6F002AFCD081F8AD
:104850007C00704741EC100B82B010EE900A8DED99
:10486000000B20F0004001909DED000B02B051ECD8
:10487000100B704770B504000D4603D012B92078B4
:10488000012801D0802070BD204600F02BFB28B10C
:104890002946204600F040F8002070BD812070BD00
:1048A0000246084810B500EB810050F8040C0028BF
:1048B00006D0114600F06AFCBDE8104000F056BC7E
:1048C00010BD0000141B001010B50446808900289C
:1048D00021D0608904EB80000069086060780228BC
:1048E00005D10021204600F051FC00F03FFC04F10E
:1048F0000C0000BFD0E85F1F491EC0E8521F002A0D
:10490000F8D16089401C80B26081E189884201D180
:1049100000206081042010BD10B500F037FCBDE818
:10492000104000F023BC10B5002100F02FFCBDE8C2
:10493000104000F01BBC0000EFF3058109B182209C
:104940007047DFF808C000DF704700006F570008AD
:10495000EFF305820AB182207047EFF31482144B03
:1049600012F0030206D0012A1BD0022A11D0032A1A
:1049700019D113E0EFF3088282F309881A78D2077D
:104980000AD0022282F31488BFF34F8FBFF36F8FD8
:1049900009E01A78D20706D10322F3E71A78D20782
:1049A00001D0FF207047DFF80CC000DF7047000027
:1049B000C05A0008855700082DE90E40EFF3058224
:1049C000B2B102004FF0800000D021B10090DDE9CB
:1049D000011203B000BD11780129F7D101A91046D9
:1049E000FFF772FF042801D00020EFE71020EDE769
:1049F000DFF804C000DFECE77D5800082DE9104027
:104A0000EFF3058159B100F007FA802128B102784F
:104A1000022A02D1FFF787FF0021084610BDDFF808
:104A200008C000DF10BD0000B7580008EFF3058292
:104A300012B14FF0FF307047DFF804C000DF70475D
:104A4000D15800082DE97040EFF3058272B10C4691
:104A500000F090FD4FF0004530B1210C04D1058BE2
:104A6000C178A0B2FFF71CFF284670BDDFF804C074
:104A700000DF70BD07590008EFF305830BB18220FA
:104A80007047DFF808C000DF704700002D590008AC
:104A9000EFF305820AB100207047DFF808C000DF9D
:104AA0007047000081590008DFF80CC000DFDFF814
:104AB0000CC000DFFEE70000F15900080D5A0008A5
:104AC000EFF3058008B100207047DFF808C000DF71
:104AD00070470000F1590008EFF3058109B1822009
:104AE0007047DFF808C000DF704700000D5A00086B
:104AF000DFF804C000DF7047455A0008094C4FF04A
:104B0000FF3529462068FFF757FF02460846102A5E
:104B1000F7D1FFF7EDFF0028F3D002460846904793
:104B2000EFE70000200000204FEA000151E8000FED
:104B300028B1036841E80032002AF7D17047BFF37B
:104B40002F8F704710B568B161B10B3121F00302AE
:104B5000016844680B1A1B1B934205D2084609687A
:104B60000029F5D1002010BD3CB121180368C1E92E
:104B70000032016001F1080010BD4260083010BD34
:104B800070B50C46002812D04FF6FF71084D8842D0
:104B900004D22A680146104600F024FB28684470BD
:104BA000044800F025F9BDE8704000F011BC70BD6C
:104BB0009C000020F40000200F4810B50D49426809
:104BC0000E480B680088934204D00A60CB88421ECE
:104BD0001A448A808A8882420AD1002008600648E6
:104BE00000F006F90146BDE81040034800F028BB7C
:104BF00010BD0000AC000020F4000020A800002040
:104C000070B5194DE86800282CD0A88A401EA882EB
:104C1000002621E0A06838B161684160606810B189
:104C2000A16881606660A6600F482146183800F0D0
:104C300007FBA08AA8826078042804D10B49E08A87
:104C400009880844A08201206070E068E860E0689C
:104C500008B10561E6602661A88A002802D1EC68E7
:104C6000002CD7D170BD00000C010020A80000204E
:104C700070B504000FD00D4DA17801262868827808
:104C800091420CD900F0F8FA286846702046BDE839
:104C9000704000F09DBB064800F0AAF8F7E7667088
:104CA0002146BDE87040024800F0CABA9C000020CE
:104CB000F40000200321FFF763BF000010B5044695
:104CC000008B084320836278618B062A18D0052A5E
:104CD00019D1084217D001EA000262838843208379
:104CE000204600F0E9FA01206070628B082120461E
:104CF00000F0DAFA2146BDE81040034800F0A0BAFF
:104D000031EA0002EAD010BDF40000200246154846
:104D100010B500EB810050F8044C002C21D0208B02
:104D2000104320836278618B062A17D0052A18D198
:104D3000084216D001EA000262838843208320469D
:104D400000F0BAFA01206070628B0821204600F062
:104D5000ABFA2046BDE81040FFF78ABF31EA0002F7
:104D6000EBD010BD141B001003460E4810B50468AC
:104D70008C46208B42B133EA000101D0062009E0C5
:104D800098432083022010BD10EA030201D0628301
:104D9000F6E70520C1B263836046FFF7F1FE01200C
:104DA00010BD00009C000020814202D342688A426C
:104DB00001D80120704750E8002F0A6040E8001237
:104DC000002AF8D10020704768B161B1083900228B
:104DD00002E00246006830B18842FAD12AB1006888
:104DE0001060002070470120704700214160F8E703
:104DF0000146406842684A600B780022022B05D0C9
:104E0000012B03D0032B01D04260704743680BB1E4
:104E10009960426082607047810700D0002070472F
:104E200070B5044600201546207001226270A17002
:104E30006060A060E0602061A082E08220836083E7
:104E400084F82000608C18B90448FFF76DFEA0625A
:104E500029462046BDE8704000F01CB860010010F3
:104E600008B1082901D2012070470144091F00221E
:104E700001600A604260104670470000034800214C
:104E8000016003490968C18070470000AC00002040
:104E9000B85A000810B5428C920803D10F4A126824
:104EA000C2F38D02836A03EB8202530700D5121FFF
:104EB000403A4FF08073C2E90E1300234FEA030417
:104EC00042F823405B1C0E2BFAD3C3691362426283
:104ED000C162806A0249016010BD0000B45A000836
:104EE000A52E5AE2C1898089081A704701220270F2
:104EF00000224270827042600281428110398281B8
:104F00008908C181704700002DE9F04104464078CE
:104F100000270E464FF00108012855D004F10C057A
:104F200002282BD0032818D0A089E189884262D2B8
:104F3000208904EB80000661D5E85F0F401CC5E8BE
:104F4000510F0029F8D12089401C80B22081E189CD
:104F5000884200D12781BDE8F0810846FFF7E4FDD3
:104F60000600F8D02046FFF743FF0546606800B909
:104F700067703146284600F091F931E02046FFF78E
:104F800037FF0646606800B967700021304600F0C0
:104F900085F92189F06904EB81010861D5E85F0F8B
:104FA000401CC5E8510F0029F8D12089401C80B26F
:104FB0002081E189884200D1278186F8018030462E
:104FC00000F07AF9314611E02046FFF711FF05465F
:104FD000606800B9677032461021284600F064F915
:104FE00085F80180284600F067F92946BDE8F041C0
:104FF000034800F025B9BDE8F0410320FBF7A6BA4D
:10500000F400002070B50446808915460026C8B318
:10501000608904EB8000006908606089401C80B2F0
:105020006081E189884200D16681607802280AD0D7
:1050300014F10C04D4E85F0F401EC4E8510F00299E
:10504000F8D1002070BD2046FFF7D2FE054660680B
:1050500000B966700021284600F020F92189E8692E
:1050600004EB810108612089401C80B22081E18924
:10507000884200D12681284600F01EF92846FFF715
:10508000F7FDDEE7FFE73DB10A48626801682AB133
:10509000204600F0D5F807E0012070BD616000688F
:1050A000C0E901640120607008212846FFF768FD0F
:1050B000F2E700009C000020411C13D00B4A4FF681
:1050C000FE7190420CD800EB4002C2EBC0120848BF
:1050D000036803EBC202521EB2FBF3F0884200D910
:1050E000084670474FF6FF707047000000093D000A
:1050F000C45A000870B51A4801210068417000F0D8
:10510000BBF8184D6C7816E005EBC40148680278CE
:10511000E2B1012A1FD000F0FBF8E878641C844259
:1051200000D100240F48801CD0E84F1F491EC0E862
:10513000421F002AF8D1A8780028E5D16C700A48EF
:10514000FFF756FEBDE8704000F042B9896889B2A9
:10515000FFF7B4FDE1E78968FFF7D6FEDDE7000061
:105160009C000020901A0010F400002005480178EF
:1051700011B101214170704703494FF08050086020
:1051800070470000A400002004ED00E0F0B4144BD0
:105190009C1CDD784FEA030CD4E84F2FAA4202D1C1
:1051A000BFF32F8F0EE0521CC4E8462F002EF3D120
:1051B000DCE84F2F541CAC4200D10024CCE8464F11
:1051C000002EF5D1DC78944205D903EBC202C2E986
:1051D0000101F0BC7047F0BC0220FBF7B7B900003A
:1051E000901A0010154A10B5D368FBB113469B8A7C
:1051F00009E000BFD2F80CC0BCF1000F16D0BCF81B
:105200001440624623448B42F4D3D468C460D06017
:105210000261D0F80CC0BCF1000F01D0CCF8100036
:10522000591A8182908A401A908210BD0024C4606D
:10523000D060C91A02619182848210BD0C010020E5
:1052400010B502780023022A03D0012A01D0032AD4
:1052500000D1012391F802C000E01046426812B16B
:1052600094786445F9D24A6041601BB102B1916003
:10527000886010BD0020FBE703494A6842600022B5
:105280008260486070470000F400002090F8201011
:10529000406A09B1603070472030704710B50C4645
:1052A000FFF7F4FF046010BD70B50C461546FFF71C
:1052B000EDFFC0E9004570BD10B5016900290ED0B1
:1052C000C268CA60C36800223BB18B8A848A2344C7
:1052D0008B82C3681961C26000E08A82026110BDDE
:1052E000816839B142684A604168002901D080680C
:1052F00088607047054906E04A68824202D14068EA
:105300004860704711460029F6D17047F40000202C
:1053100010B5416881B1FFF76BFD0446FFF7CCFF84
:105320000120607001462046FFF7B8FF2146BDE826
:1053300010400348FFF784BF4188491C418010BDDD
:10534000F400002010B5416861B1FFF751FD04463B
:105350000121FFF7A3FF2046FFF7AEFF2046FFF72E
:1053600087FC02E04188491C4180002010BD0000FC
:1053700010B50C46418819B1491E4180002010BD6E
:1053800034B1094A4368116823B1FFF759FF06E0B9
:10539000012010BD416011680023C1E901300721DF
:1053A0002046FFF7EDFBF3E79C000020064800686D
:1053B000D0E90910814203D300680449884202D031
:1053C0000120FBF7C3B870479C000020A52E5AE2CD
:1053D0000749022248604270064A1278002A05D026
:1053E00006C98A4202D0C078FFF72CBA7047000085
:1053F0009C000020AA0000202DE9F04104460D4643
:105400009046FFF7F7F9002006463849384B02E08E
:1054100041F82060401C1A889042F9D33548302268
:1054200001883548FFF7E6F83448006880B240F05C
:105430000042334801683348FFF7DCF8324808225D
:10544000018832480068FFF7D5F8314FFF20314A14
:10545000F8707E8400213846FFF7E2FC2E480421D4
:10546000017046602D480170C66006618682786AC8
:105470002030FAF797FE2A482B49076002207870FF
:105480002848067046700978C170284801684FF0B6
:10549000E020416186610721016125480168254AB4
:1054A000114301600068224900F07F40C043143975
:1054B000B0FA80F00968C0F10800C1F3022181420E
:1054C00000DB481C1A49091F0B686FF0807282408C
:1054D00063F317020A60FFF7D1FC424629462046D3
:1054E000BDE8F041002300F06DB80000141B00106F
:1054F000B05A0008CC5A000800000010B45A000846
:10550000D05A000860010010F45A0008180000206A
:10551000C400002049050008F40000200C01002010
:105520009C000020901A0010D85A0008BC5A0008AD
:1055300020ED00E00000FFFF0B4810B500680121DE
:105540004170FFF799FEFFF737FB08490888401CB8
:105550000880FFF755FB00F081FA0548FFF748FC8B
:10556000BDE81040FFF734BF9C000020A8000020D9
:10557000F4000020002805D0810702D1017800291D
:1055800000D000207047000030B50D4C0023226889
:1055900008E000BFB2F808C08C4505D81346126871
:1055A000A1EB0C01002AF5D189B20260018112B190
:1055B0001589691A11810BB1186030BD206030BDAA
:1055C000980000202DE9F041804616461F460D4602
:1055D00011F0FF0F00D14D1C1648FFF7A5FA04008B
:1055E00026D0280AA6626084E9B242462046E761D6
:1055F000FFF716FC01251048104905E000EB850275
:1056000052F8042C22B16D1C0A889542F6D9002567
:1056100000EB850040F8044C0948E570007818B1AB
:1056200001212046FFF7FEF82046FFF721FB284620
:10563000BDE8F08100000010141B0010B05A0008F3
:10564000AA0000202DE9F041244C234F244B22686E
:105650000026D17808B1814218D103EB8100567041
:1056600040F8046C1F48916AFFF79EFB2068866231
:10567000397811B10021FFF7D5F81B482168FFF7F1
:1056800093FB00202660FFF7F3FA1FE01749098813
:1056900088421ED803EB800555F8044CCCB1204657
:1056A000FFF71EFE2046FFF707FE45F8046C0D4885
:1056B000A16AFFF779FBA662387818B1002120466D
:1056C000FFF7B0F821460848FFF76EFB0020BDE861
:1056D000F081FF20FBE70000AA0000209C000020D2
:1056E000141B00106001001000000010B05A0008E8
:1056F00002480068002800D0C07870479C00002055
:1057000000B52DED048B83B041EC180BFDF7EEFDD9
:1057100041EC190B19EE100A19EE901A8DED009B51
:10572000002818BF0120084320F00040C0F17F602E
:1057300000F1E040C00F14D018EE101A18EE900AD5
:105740008DED008B002918BF0121084320F0004097
:10575000C0F17F6000F1E040C00F04BF0120FEF700
:1057600043FF51EC190B03B0BDEC048B00BD10B529
:10577000002805D0FFF7A0FC80B2FFF79BFA40207D
:1057800010BD000070B504000D4608D0206830B18F
:10579000B4F9040010F1030F01DB032801DD8620BA
:1057A00070BD244E306840B1204600F0E9F8A0B149
:1057B00000F01EF900F02AF937E01F4840070CD12D
:1057C0001E4801681C48FFF74BFB30B9E16831B156
:1057D0001948FFF7B7F9020002D1852070BD0022F9
:1057E000B4F90400E168001D40EA01212068FFF7D8
:1057F00003FE7068D8B1C078114901EB800050F801
:10580000040C3060416A0D62406A0E494163002118
:105810000D4800F021F80D49086000210C4800F007
:10582000AFF80C49086000203060002070BDFF20F8
:1058300070BD00009C00002030140010D45A0008F5
:10584000141B0010A94A0008EC5A00082000002090
:10585000DC5A00081C00002010B5040005D02168A7
:1058600019B1606808B102780AB1002010BD890042
:10587000103189B2FFF73AFB606810BD3EB50400F5
:105880000D464FF0800012D0217801290FD1284613
:10589000FFF712FC82B201A92046FFF7B3FB0128F3
:1058A00001D0102003E00DB1402000E00020DDE930
:1058B000011203B030BD10B5FFF7AEFA10B1017898
:1058C000022901D0802010BDFFF73CFD002010BD53
:1058D00070B50D46FFF7A0FA04004FF0FF3102D07B
:1058E0002078022801D0084670BD2846FFF7E4FB67
:1058F00081B22046FFF73CFD012802D06088401CA1
:1059000070BD002070BD70B50C46FFF733FE4FF040
:10591000004108B1220C01D0084670BD058BC1784A
:10592000A0B2FFF7F3F9284670BD000070B5044639
:105930000D46000C01D086201EE008462CB1FFF772
:10594000BBFB81B20122A0B205E0FFF7B5FB81B23B
:1059500000224FF6FF70FFF707FA022802D04DB180
:10596000402008E008200CB1214605E00349096801
:10597000498B01E000200021324670BD9C000020D0
:1059800070B504000E462BD0206848B3B4F904006B
:1059900010F1030F24DB032822DCE16829B1114850
:1059A000FFF7D0F8050015D000E00025B4F9040099
:1059B000E168001D40EA012133462A462068FFF7CE
:1059C00001FE40B1084901EB8000084950F8040C81
:1059D000426A516370BD1DB129460248FFF7F4F9D0
:1059E000002070BD30140010141B0010A94A0008DC
:1059F00010B5FFF77DFE002804D0034901EB8000BD
:105A000050F8040C10BD0000141B001070B5FFF717
:105A1000B1FD040003D0608C18B1A56A02E08020BB
:105A200070BD0025E078FFF70DFEFF2806D01DB100
:105A30000348A16AFFF7C8F9002070BD812070BD3E
:105A40003014001010B5FFF7E7F920B101690A68BA
:105A5000C168104610BD0020014610BD2DE9F0417F
:105A6000114E3468002C18D02089104F401E208120
:105A70004FF001080EE025462468346000222946D4
:105A80003868FEF7F7FE6879012808D085F80480A9
:105A9000002C02D020890028EDD0BDE8F081698972
:105AA0002846FFF771FDF3E7980000202000002052
:105AB0000700000020030201050001003F900200E2
:105AC00001000000E8030000000000005C0100008D
:105AD000D01200006006000010000000FD4A00081F
