:020000040800F2
:1000000028050020250500082D0500082F050008FB
:100010003105000833050008350500080000000020
:1000200000000000000000000000000009020008BD
:100030003905000800000000AD0200080D030008AB
:100040003F0500083F0500083F0500083F05000880
:100050003F0500083F0500087F060008B3150008AB
:100060003F0500083F0500083F0500083F05000860
:100070003F0500083F0500083F0500083F05000850
:100080003F0500083F0500083F0500083F05000840
:100090003F0500083F0500083F0500083F05000830
:1000A0003F0500083F0500083F0500083F05000820
:1000B0003F0500083F0500083F0500083F05000810
:1000C0003F0500083F0500083F0500083F05000800
:1000D0003F0500083F0500083F0500083F050008F0
:1000E0003F0500083F0500083F0500083F050008E0
:1000F0003F0500083F0500083F0500083F050008D0
:100100003F0500083F0500083F0500083F050008BF
:100110003F0500083F0500083F0500083F050008AF
:100120003F0500083F0500083F0500083F0500089F
:100130003F0500083F0500083F0500083F0500088F
:100140003F0500083F0500083F0500083F0500087F
:100150003F0500083F0500083F0500083F0500086F
:100160003F0500083F0500083F0500083F0500085F
:100170003F0500083F0500083F0500083F0500084F
:100180003F0500083F050008DFF814D002F062FFC9
:100190000021024804F086FDFEE700004C5D0008E7
:1001A0002805002080F309887047684680F3098895
:1001B00004480078C00714BF0220032080F314888D
:1001C00070470000145D0008DFF818C0EFF30583E6
:1001D0001B0618BF6047EFF31483DB0708BF6047B7
:1001E00000DF7047354E0008DFF818C0EFF30583D5
:1001F0001B0618BF6047EFF31483DB0708BF604797
:1002000000DF7047B5500008EFF30980816911F8ED
:10021000021C002933D190E80F1010B5E047BDE86B
:100220001040EFF3098C8CE807001D4B93E80600A3
:10023000914208BF704781B11EF0100F06BF2CED30
:10024000108A0120002081F820002CE9F00FC1F86D
:1002500024C00CB405F0FCF90CBC1A60D2F824C020
:10026000BCE8F00F92F8200000281ABFBCEC108AFE
:100270006FF0120E6FF0020E8CF30988704710B504
:10028000084A1268914209D8074C54F8214090E876
:100290000F10A047EFF3098C8CE80F0010BD000091
:1002A0009C000020DC300008DC30000810B505F0B0
:1002B000A7F8BDE81040174B93E80600914208BF2D
:1002C0007047EFF3098C1EF0100F06BF2CED108A5B
:1002D0000120002081F820002CE9F00FC1F824C093
:1002E0000CB405F0B5F90CBC1A60D2F824C0BCE817
:1002F000F00F92F8200000281ABFBCEC108A6FF0B3
:10030000120E6FF0020E8CF30988704710B505F0DD
:1003100065FACEE79C0000200CB50020019000900B
:100320007548006840F480307349086000BF724827
:10033000006800F4003000900198401C0190009883
:1003400018B90198B0F5A06FF1D16B48006810F4AE
:10035000003F02D00120009001E0002000900098B2
:10036000012845D164484030006840F0805062491F
:10037000403108606148006840F480405F4908608F
:100380005D48083000685C4908310860084600682C
:1003900040F4004008600846006840F4A05008603F
:1003A0005748091F0860081F006840F08070091F47
:1003B000086000BF5048006810F0007FFAD040F29B
:1003C0000560504908604C480830006820F0030080
:1003D0004949083108600846006840F0020008609A
:1003E00000BF45480830006800F00C000828F8D12C
:1003F0000CBD10B54448006840F4700042490860E4
:100400003D48006840F001003B49086000203A493F
:1004100008310860384800683C490840364908609F
:100420003B48091D0860081F006820F48020091F50
:100430000860002030490C310860FFF76DFF4FF075
:10044000006031498039086010BD70B5002000227D
:10045000022300240221284D08352D6805F00C00E8
:1004600020B1042806D0082834D107E0294D2A4EAF
:10047000356033E0294D284E35602FE01E4D2D1D8F
:100480002D68C5F380541C4D2D1D2D6805F03F01CE
:1004900054B1224DB5FBF1F5174E361D3668C6F343
:1004A000881605FB06F209E01A4DB5FBF1F5124E70
:1004B000361D3668C6F3881605FB06F20E4D2D1D57
:1004C0002D68C5F301456D1C6B00B2FBF3F5124EB0
:1004D000356003E00F4D104E356000BF00BF064D84
:1004E00008352D68C5F303150D4E705D0A4D2D6856
:1004F000C540094E356070BD0038024000700040B4
:1005000008544007003C024088ED00E0FFFFF6FE83
:10051000103000240024F4000000002000127A00B3
:10052000040000200648804706480047FEE7FEE733
:10053000FEE7FEE7FEE7FEE7FEE7FEE7FEE7FEE793
:10054000F30300088901000800BFFEE700BFFEE7D3
:1005500001F0D6FA0021514804F020FC0021504857
:1005600004F01CFC4F49086000F0D3FA00BF3120B2
:1005700000F0F8FA03E04FF0FF3004F087FBFAE7F1
:1005800010B549A002F0ACFD0021504804F006FC73
:100590004F4908600846006818B94EA002F0A0FD57
:1005A00005E005214A48006804F0D2FB044610BD6E
:1005B00010B54FA002F094FD0021564804F0EEFB68
:1005C000554908600846006818B942A002F088FD45
:1005D00005E005215048006804F0BAFB044610BD50
:1005E0004EA002F07DFD4FF0FF3546E001F04AF9E4
:1005F000B42004F04BFB01F0ECF9064601F096F94B
:1006000001F00DFA07463946304601F031FA054649
:10061000681C04D0294648A002F062FD2CE039464F
:10062000304601F058FA0446762C25D0412C0BD1E7
:1006300043A002F055FD3848006804F0D3FB44495C
:100640000860FFF79DFF17E0422C0BD141A002F09C
:1006500047FD1F48006804F0C5FB42490860FFF7EA
:10066000A7FF09E0432C03D13FA002F039FD03E0CE
:10067000214641A002F034FD00BFB7E7704710B536
:10068000012001F063FB38B13CA002F029FDFFF727
:10069000F5FF012001F06BFB10BD00005C5D000860
:1006A0007C5D000834000020456E7465722074681B
:1006B0006520736574206D6F646531207369676EA2
:1006C000616C206D6574686F640000006C5D0008EB
:1006D0003C00002054686520746872656164206481
:1006E00069646E27742063726561746500000000A0
:1006F000456E74657220746865207365745F6D6FF4
:100700006465325F7369676E616C206D6574686FD4
:10071000642E0A008C5D0008380000206B6579703B
:1007200061642074687265616420656E74657265C9
:100730006421200A000000002564200A0000000057
:10074000456E746572206D6F64652031200A00006B
:1007500044000020456E746572206D6F6465203220
:10076000200A000040000020456E746572206D6F05
:1007700064652033200A000025630000626F7474F2
:100780006F6E20707265737365642E200A0000001E
:100790001149096811F0010F0ED00F49803909681D
:1007A00011F0010F08D000BF4FF060410968002927
:1007B000FAD04FF060421070704770B504460D4695
:1007C0002046FFF7E5FF70BD10B504462046FFF751
:1007D000DFFF10BD00BFFEE7800E00E0704710B5E0
:1007E00004464FF48050FE49086009E0FC4908685F
:1007F000411EFB4A116018B9FFF7F0FFC0B210BDEF
:100800000221F84802F06DF80028EFD02146F548A3
:1008100002F030F84FF48050F149086009E0F049E7
:100820000868411EEE4A116018B9FFF7D7FFC0B241
:10083000E5E70121EB4802F054F80028EFD0E94841
:1008400002F015F8C0B2DAE72DE9F04105460E4690
:100850001446012C01DD46F040064FF48071E24859
:1008600001F07AFB3046FFF7BAFF06E02878FFF781
:10087000B6FF0746601E84B26D1C012CF6DA4FF4F9
:100880008071D94801F066FB3846BDE8F08110B5AB
:1008900004464FF48071D44801F05EFB2046FFF718
:1008A0009EFF4FF48071D04801F054FB10BD38B565
:1008B00030242046FFF7EBFF36242046FFF7E7FF02
:1008C000002429200090012221466846FFF7BCFF42
:1008D000022406200090012221466846FFF7B4FF5B
:1008E000032407200090012221466846FFF7ACFF51
:1008F000062402200090012221466846FFF7A4FF4B
:10090000072404200090012221466846FFF79CFF3F
:10091000082444200090012221466846FFF794FFF6
:10092000092400200090012221466846FFF78CFF31
:100930000A2448200090012221466846FFF784FFE0
:100940000B240C200090012221466846FFF77CFF13
:100950000C2400200090012221466846FFF774FF16
:100960000D245D200090012221466846FFF76CFFB0
:100970000E2493200090012221466846FFF764FF71
:100980000F24B1200090012221466846FFF75CFF4A
:1009900010240E200090012221466846FFF754FFE4
:1009A00011243B200090012221466846FFF74CFFAE
:1009B000122473200090012221466846FFF744FF6D
:1009C000132442200090012221466846FFF73CFF95
:1009D0001424F8200090012221466846FFF734FFD6
:1009E000152400200090012221466846FFF72CFFC5
:1009F000182418200090012221466846FFF724FFA2
:100A000019241D200090012221466846FFF71CFF93
:100A10001A241C200090012221466846FFF714FF8B
:100A20001B24C7200090012221466846FFF70CFFD7
:100A30001C2440200090012221466846FFF704FF55
:100A40001D24B0200090012221466846FFF7FCFEDD
:100A50002124B6200090012221466846FFF7F4FECB
:100A6000222410200090012221466846FFF7ECFE68
:100A70002324EA200090012221466846FFF7E4FE85
:100A800024240A200090012221466846FFF7DCFE5C
:100A9000252400200090012221466846FFF7D4FE5D
:100AA000262419200090012221466846FFF7CCFE3B
:100AB000292459200090012221466846FFF7C4FEF0
:100AC0002C2488200090012221466846FFF7BCFEB6
:100AD0002D2431200090012221466846FFF7B4FE04
:100AE0002E240B200090012221466846FFF7ACFE21
:100AF0000424AF200090012221466846FFF7A4FE9F
:100B00000524AF200090012221466846FFF79CFE95
:100B100038BD10B500F0E4F8FFF7C9FE10BD70B5A0
:100B200006460C461546012D02DD44F0C00401E0E6
:100B300044F080044FF480712B4801F00DFA2046F8
:100B4000FFF74DFE06E00020FFF749FE3070681EFB
:100B500085B2761C002DF6DC4FF48071224801F03E
:100B6000F9F970BD70B5044644F0C0044FF48071CB
:100B70001D4801F0F1F92046FFF731FE0020FFF794
:100B80002EFE05464FF48071174801F0E3F9284620
:100B900070BD2DE9FC4105461F277F264FF0020856
:100BA00095ED000ABDEEC00A10EE100A40B28DF8B5
:100BB000040095ED010ABDEEC00A10EE100A40B225
:100BC0008DF8050095ED000ABDEEC00A10EE100A82
:100BD000C0B28DF8000095ED010ABDEEC00A05E037
:100BE00050000020003800400000024010EE100AC3
:100BF000C0B28DF801003620FFF749FE3520FFF71F
:100C0000B1FF04463C4004E03520FFF7ABFF04464B
:100C10003C40012CF8D13B20FFF739FE3A20FFF78A
:100C2000A1FF0446344004E03A20FFF79BFF04464E
:100C30003440002CF8D102223F216846FFF704FE21
:100C40003A20FFF78FFF0446344004E03A20FFF7D4
:100C500089FF044634404445F8D13520FFF717FE9C
:100C60003520FFF77FFF04463C4004E03520FFF7C6
:100C700079FF04463C40012CF8D13A20FFF772FF7F
:100C800004463440BDE8FC812DE9F0411F257F2654
:100C900002273620FFF7FBFD3520FFF763FF0446F0
:100CA0002C4004E03520FFF75DFF04462C40012C6A
:100CB000F8D13420FFF7EBFD3520FFF753FF044652
:100CC0002C4004E03520FFF74DFF04462C40012C5A
:100CD000F8D13B20FFF746FF04463440BDE8F081E1
:100CE00000B587B00121880301F042FB0121880390
:100CF00001F02DFB0121084601F0F6FA0121022046
:100D000001F0F2FA05220D21334801F032F90522F3
:100D10000E21314801F02DF905220F212E4801F056
:100D200028F902208DF8180000208DF81A00022002
:100D30008DF81B008DF819000003059005A92648C1
:100D400001F08CF84FF40040059005A9224801F00D
:100D500085F84FF48040059005A91F4801F07EF802
:100D60001E4801F0FFFB0020ADF80000ADF80400C4
:100D7000ADF80600ADF808004FF40070ADF80A00B9
:100D80003820ADF80C000020ADF80E000720ADF8BB
:100D900010004FF48270ADF8020069460F4801F070
:100DA00007FC01210D4801F0E4FC4FF48070059030
:100DB00001208DF8180000208DF81A008DF8190018
:100DC00005A9074801F04AF84FF48071044801F082
:100DD000C1F807B000BD0000000402400038004028
:100DE00000000240704710B504464FF48050EA49B5
:100DF000086009E0E8490868411EE74A116018B92F
:100E0000FFF7F0FFC0B210BD0221E44801F069FD18
:100E10000028EFD02146E14801F02CFD4FF480502E
:100E2000DD49086009E0DC490868411EDA4A1160C2
:100E300018B9FFF7D7FFC0B2E5E70121D74801F0A5
:100E400050FD0028EFD0D54801F011FDC0B2DAE71F
:100E500070B505460E461446012C01DD46F04006ED
:100E60000821CF4801F078F83046FFF7BCFF05E0D5
:100E70002878FFF7B8FF601E84B26D1C012CF7DAEA
:100E80000821C74801F066F870BD00B587B00121A0
:100E9000080301F06DFA0121084601F025FA01214D
:100EA000102001F021FA0121102001F01DFA01218A
:100EB000102001F019FA05221146BA4801F059F83C
:100EC00005220621B74801F054F805220721B5484C
:100ED00001F04FF802208DF8180000208DF81A005C
:100EE00002208DF81B008DF819002020059005A91F
:100EF000AC4800F0B3FF8020059005A9A94800F098
:100F0000ADFF4020059005A9A64800F0A7FFA34823
:100F100001F028FB0020ADF80000ADF80400ADF8AA
:100F20000600ADF808004FF40070ADF80A00082084
:100F3000ADF80C000020ADF80E000720ADF8100051
:100F40004FF48270ADF802006946944801F030FB1E
:100F50000121924801F00DFC0820059001208DF838
:100F6000180000208DF81A0002208DF8190005A93C
:100F70008B4800F073FF0821894800F0EBFF012047
:100F8000059000208DF818008DF81A0002208DF8C9
:100F9000190000208DF81B0005A9814800F05EFFB4
:100FA0000220059005A97E4800F058FF07B000BD5B
:100FB00038B5044600200090FFF767FF607821787D
:100FC0000843E178084321790843A1780843009059
:100FD000012220216846FFF73BFF38BD70B5064669
:100FE0000C461546012D02DD44F0C00401E044F03A
:100FF000800408216A4800F0AFFF2046FFF7F3FEA7
:1010000006E00020FFF7EFFE3070681E85B2761C08
:10101000002DF6DC0821624800F09CFF70BD38B559
:10102000044600200090012221216846FFF7D6FFE8
:101030009DF8000000F0D00000902078617808430F
:10104000A17808439DF80010084300900122212157
:101050006846FFF7FDFE38BD38B504460020009015
:10106000012238216846FFF7B9FF207861780843EC
:10107000A17808430090012238216846FFF7E8FE76
:1010800038BD38B50446012220216846FFF7A6FF87
:101090009DF8000000F0BF0000909DF80000204384
:1010A0000090012220216846FFF7D2FE38BD38B5F6
:1010B0000446012220216846FFF790FF9DF80000BA
:1010C00000F07F0000909DF8000020430090012276
:1010D00020216846FFF7BCFE38BD38B50446012222
:1010E00020216846FFF77AFF9DF8000000F0DF003E
:1010F00000909DF8000020430090012220216846C6
:10110000FFF7A6FE38BD08B5012221216846FFF78A
:1011100065FF9DF8000040F0400000900122212171
:101120006846FFF795FE08BD3EB50546002401223E
:1011300020216846FFF752FF0622292101A8FFF768
:101140004DFF9DF8000010F0200002D0202820D193
:101150000FE000240AE001A911F8140040B200EBEE
:10116000C000400028602D1D601CC4B2032CF2DBBF
:1011700010E000240AE001A911F8140040B200EBCD
:10118000C000C00028602D1D601CC4B2032CF2DB1F
:1011900000E000BF00BF3EBD540000200030014011
:1011A00000100240000002402DED048BDFED3E9A5E
:1011B000B0EE693AD0ED009AF8EEE99AB0EE690A1D
:1011C000D0ED019AF8EEE99AF0EE690AD0ED029AB4
:1011D000F8EEE99AB0EE691AF7EE009AF0EE691AA5
:1011E000DFED329AF0EE693ADFED2F9AB0EE694A00
:1011F000DFED2D9AF0EE694ADFED2B9AF0EE695A99
:10120000DFED2A9AB0EE696ADFED279AF0EE696A9F
:10121000DFED259AB0EE695ADFED239AB0EE697AD8
:10122000DFED229AF0EE697ADFED219AB0EE698A5D
:10123000DFED209AF0EE698ADFED1F9AB0EE699A31
:1012400060EE239A40EEA59A41EE059A41EE889A07
:10125000B0EE692A60EE049A40EE869A41EE079A53
:1012600041EEA89AF0EE692A60EE249A40EEA69A22
:1012700041EE279A41EE899AB0EE693ADFED0A9A7B
:10128000C1ED009ADFED089AC1ED019ADFED069AF3
:10129000C1ED029A81ED002AC1ED012A81ED023AE9
:1012A000BDEC048B70470000000000006F12833A11
:1012B000948785BC4F40933D5BB13F3D00B585B001
:1012C0000121102001F010F80121880301F050F8ED
:1012D00003A800F00BFE00208DF810000220039000
:1012E00000208DF8130003A91C4800F0B7FD012170
:1012F000042001F03FFB0220019000208DF808003F
:1013000008208DF8090001208DF80A0001A800F0DE
:10131000B7FC07208DF8000001208DF801008DF842
:1013200002008DF80300684600F02FFC05B000BDF8
:101330001CB500208DF804008DF805008DF806001E
:1013400001A8FFF789FE00200090202000900122D4
:1013500022216846FFF77CFD1CBD00000010024002
:10136000F0B502460C460020002502F10806176879
:1013700046F827401668042E02D10026166002E0C7
:101380001668761C16605668052E13DA00230021B5
:1013900005E002F1080656F821603344491C5668FE
:1013A0008E42F6DA5668761C93FBF6F05668761C89
:1013B00056600DE00023002105E002F1080656F812
:1013C00021603344491C0529F7DB052693FBF6F021
:1013D000F0BD30B50B46DFED220AB0EE600A00F139
:1013E0000804056824F815300468042C02D1002490
:1013F000046002E00468641C04604468052C19DA87
:101400000022002105E000F1080434F811402244D4
:10141000491C44688C42F6DA4468641CB2FBF4F45C
:1014200000EE904AF8EE600AB0EE600A4468641C70
:10143000446013E00022002105E000F1080434F8C4
:1014400011402244491C0529F7DB0524B2FBF4F4C2
:1014500000EE904AF8EE600AB0EE600A30BD00007F
:10146000000000009EB000201B901C901D90189062
:1014700019901A900120564908609FED560A564867
:1014800080ED000A9FED530A544880ED000A00F0F9
:10149000B5F8FFF74DFFFFF711FF03F097FC504938
:1014A0000860002400201190129004E0002113A88D
:1014B00040F82410641C052CF8DB002400200A905E
:1014C0000B9004E000210CA840F82410641C052CAB
:1014D000F8DB002400200390049004E0002105A81C
:1014E00040F82410641C052CF8DB3E48FFF71CFE76
:1014F00033E04FF0FF31032003F044FC8DE8070098
:101500003848016811A8FFF72BFF1B903548416848
:101510000AA8FFF725FF1C903248816803A8FFF74F
:101520001FFF1D9018A91BA8FFF73EFE18A800F08A
:101530000DF9294880ED000A18A800F073F8274833
:1015400080ED000A2848006820B907212748006874
:1015500003F0FEFB2348FFF7E7FDCAE72DED028B02
:1015600082B003F033FC2149086021E01A4890ED75
:10157000000A8DED000A194890ED000A8DED010A70
:101580009DED000A10EE101A084601F09DFA41EC9C
:10159000100BB0EE408AF0EE608A53EC182B14A0CA
:1015A00001F09EFD6846FFF7F4FA00200E4908603E
:1015B000DCE710B5022000F0C9FB38B10321084870
:1015C000006803F0C5FB022000F0D1FB10BD000055
:1015D0005C00002000000000740000207800002063
:1015E0007C000020B800002058000020800000206F
:1015F000526F6C6C5F54583A25660A001CB5402047
:101600008DF8000000208DF8010007208DF8020001
:1016100000208DF803008DF804006846FFF7C8FC31
:101620001CBD00002DE9F0412DED0E8B04469FED11
:10163000910AB0EE408A9FED900A10EE105A94ED98
:10164000000AF0EE408A94ED010A10EE106A94ED63
:10165000020A10EE107A304601F036FA41EC100B17
:10166000B0EE40BAF0EE60BA9FED841B01F0D4FEFC
:10167000B0EE40AAF0EE60AA51EC1A0B01F037FA76
:1016800009EE100A384601F01FFA41EC100BB0EEDB
:1016900040BAF0EE60BA9FED791B01F0BDFEB0EEEE
:1016A00040AAF0EE60AA51EC1A0B01F020FA09EE04
:1016B000900A39EE290A10EE101A084601F004FAD1
:1016C00041EC100BB0EE40BAF0EE60BA02F0ECFC68
:1016D000B0EE40AAF0EE60AA51EC1A0B01F007FA46
:1016E0000EEE100A284601F0EFF941EC100BB0EEB7
:1016F00040BAF0EE60BA88EE8E0A10EE108A4046CC
:1017000001F0E2F941EC100BB0EE40DAF0EE60DAF5
:1017100001F00EFDB0EE40CAF0EE60CA53EC1B2B98
:1017200051EC1C0B01F05EF941EC100BB0EE40AA3D
:10173000F0EE60AA51EC1A0B01F0D9F908EE100A8C
:10174000B0EE480ABDEC0E8BBDE8F0812DE9F0410A
:101750002DED0E8B04469FED470AB0EE408A9FEDBB
:10176000460A10EE105A94ED000A10EE106A94ED3D
:10177000010AF0EE408A94ED020A10EE107A30462B
:1017800001F0A2F941EC100BB0EE40BAF0EE60BAF5
:101790009FED3A1B01F040FEB0EE40AAF0EE60AAC9
:1017A00051EC1A0B01F0A3F909EE100A384601F0CA
:1017B0008BF941EC100BB0EE40BAF0EE60BA9FED41
:1017C0002F1B01F029FEB0EE40AAF0EE60AA51EC0A
:1017D0001A0B01F08CF909EE900A39EE290A10EE85
:1017E000101A084601F070F941EC100BB0EE40BA47
:1017F000F0EE60BA02F058FCB0EE40AAF0EE60AA3B
:1018000051EC1A0B01F073F90EEE100A284601F0A4
:101810005BF941EC100BB0EE40BAF0EE60BA88EE26
:101820008E0A10EE108A404601F04EF941EC100B82
:10183000B0EE40DAF0EE60DA01F07AFCB0EE40CAC9
:10184000F0EE60CA53EC1B2B51EC1C0B01F0CAF8F4
:1018500041EC100BB0EE40AAF0EE60AA51EC1A0B6E
:1018600001F045F908EE100AB0EE480ABDEC0E8B07
:10187000BDE8F08100000000E12E6542000000009C
:101880000000004000B585B00121082000F02CFDCB
:101890004FF4F060039001208DF8100000208DF8C7
:1018A00012008DF8110001208DF8130003A9934850
:1018B00000F0D4FA4E20039000208DF810008DF82F
:1018C00012008DF8110002208DF8130003A98B4837
:1018D00000F0C4FA0121880300F04AFD4FF4F061E2
:1018E000864800F037FB0F21032001F043F8082061
:1018F000009000208DF804000C208DF805000120D8
:101900008DF80600684600F0BBF909208DF8080044
:1019100002208DF8090003208DF80A0001208DF8BF
:101920000B0002A800F031F905B000BD00B585B08C
:101930000121082000F0D8FC4E20039001208DF8F2
:10194000100000208DF812008DF8110001208DF894
:10195000130003A9694800F081FA4FF4F060039086
:1019600000208DF810008DF812008DF81100022073
:101970008DF8130003A9614800F070FA0121880373
:1019800000F0F6FC4E215D4800F0E4FA0721032048
:1019900000F0F0FF0820009000208DF804000C20DB
:1019A0008DF8050001208DF80600684600F068F902
:1019B00009208DF8080002208DF8090003208DF819
:1019C0000A0001208DF80B0002A800F0DEF805B037
:1019D00000BD2DE9F0410221484800F0A1FA04467B
:1019E0000421464800F09CFA05460821434800F0CF
:1019F00097FA06464021414800F092FA074614B192
:101A00000120BDE8F0810DB10220FAE70EB10320FC
:101A1000F7E70FB10420F4E74FF0FF30F1E72DE9CD
:101A2000F0418021354800F07BFA04464FF4807184
:101A3000324800F075FA05464FF400712F4800F067
:101A40006FFA06464FF480612C4800F069FA0746A9
:101A500014B10120BDE8F0810DB10220FAE70EB10A
:101A60000320F7E70FB10420F4E74FF0FF30F1E770
:101A70000246012A0AD1012900D17047022901D169
:101A80000420FAE7032924D10720F6E7022A0FD120
:101A9000012901D10220F0E7022901D10520ECE75C
:101AA000032901D10820E8E7042912D10020E4E746
:101AB000032A0BD1012901D10320DEE7022901D13C
:101AC0000620DAE7032904D10920D6E74FF0FF30DA
:101AD000D3E700BFD1E70246042A0DD1012901D185
:101AE00041207047022901D14220FAE7032901D1A0
:101AF0004320F6E70A20F4E77620F2E7000C0240E4
:101B000000B585B00121084600F0EEFB01218803F5
:101B100000F02EFC03A800F0E9F900208DF8100079
:101B20000120039000208DF8130003A9124800F053
:101B300095F90021084600F01DFF012001900020CA
:101B40008DF8080008208DF8090001208DF80A00A2
:101B500001A800F095F806208DF8000001208DF80E
:101B6000010002208DF8020001208DF80300684674
:101B700000F00BF805B000BD0000024000BFFEE71A
:101B800033490143334A1160704770B50021002387
:101B90000F22C47824B32F4C246804F4E064C4F505
:101BA000E064C4F30721C1F10404E3B20A414478BC
:101BB0009C40E1B28478144021430C07210E264C4E
:101BC00005786155047804F01F050124AC400578C0
:101BD0006D114FF0E02606EB8505C5F8004109E0E0
:101BE000047804F01F040125A5401C4C06787611EA
:101BF00044F8265070BD1A4A0A400243154B1B1F79
:101C00001A60704739B1134A121D12680243114B12
:101C10001B1D1A6006E00F4A121D126882430D4B0D
:101C20001B1D1A607047042808D14FF0E021096994
:101C300041F004014FF0E022116107E04FF0E02194
:101C4000096921F004014FF0E022116170470000A2
:101C50000000FA050CED00E000E400E080E100E0A7
:101C600080FFFF1F002044490860091D0860091D0E
:101C70000860091D086041483F49143108607047F9
:101C800000213D498279002A3AD00A461268036849
:101C90009A430B461A600A1D126803689A430B1D8B
:101CA0001A60027911440A6803681A430A60324ACA
:101CB0000832126803689A432F4B08331A601A1DC2
:101CC000126803689A432C4B0C331A604279102A2D
:101CD0000ED11A1F126803681A43274B08331A6083
:101CE0001A1D126803681A43234B0C331A600DE067
:101CF0002149427911440A6803681A430A6005E0E1
:101D0000027911440A6803689A430A607047002107
:101D1000016001710C2141710021817170471649E8
:101D2000103109680143144A1032116070470146AE
:101D30000020114A143212680A4201D0012000E04A
:101D4000002070470C49143108607047014600209C
:101D50000022094B1B6803EA0102074B14331B687E
:101D60000B4202D00AB1012000E000207047024976
:101D70001431086070470000003C0140FFFF7F0005
:101D800010B504468C48844208D10121084600F071
:101D900000FB0021012000F0FCFA5EE0874884424D
:101DA00008D10121022000F0F4FA0021022000F005
:101DB000F0FA52E08248844208D10121042000F068
:101DC000E8FA0021042000F0E4FA46E07D4884426D
:101DD00008D10121082000F0DCFA0021082000F0E1
:101DE000D8FA3AE07848844208D10121102000F066
:101DF000D0FA0021102000F0CCFA2EE07348844283
:101E000008D10121202000F0C4FA0021202000F098
:101E1000C0FA22E06E48844208D10121402000F03F
:101E2000B8FA0021402000F0B4FA16E06948844274
:101E300008D10121802000F0ACFA0021802000F0C0
:101E4000A8FA0AE06448844207D10121801500F015
:101E5000A0FA0021A01500F09CFA10BDF0B50A46CA
:101E600000210023002400BF3DE0012505FA01F315
:101E7000156805EA03049C4234D105684F00032627
:101E8000BE40B543056015794E00B5400668354340
:101E900005601579012D02D01579022D16D18568BE
:101EA0004F000326BE40B543856055794E00B540CE
:101EB000866835438560456801268E40B543456098
:101EC000456896798E40B6B235434560C5684F0087
:101ED0000326BE40B543C560D5794E00B540C668FF
:101EE0003543C560491C1029BFD3F0BD4FF6FF71C3
:101EF00001600021017141718171C171704708B5A4
:101F00004FF480320092009A0A430092009AC26114
:101F1000C161009AC261C2690092C269009208BDA3
:101F20000246002013690B4201D0012000E000208E
:101F300070470146086980B2704702460020536925
:101F40000B4201D0012000E00020704701464869A3
:101F500080B2704701837047418370470AB10183A3
:101F600000E0418370474161704742694A404261E5
:101F70007047F0B5002300244D07ED0E02FA05F37B
:101F8000CE1000F1200555F826504E07F70E0F260B
:101F9000BE40B543CF1000F1200646F82750CE10C2
:101FA00000F1200555F8265045EA0304CE1000F153
:101FB000200545F82640F0BD000002400004024024
:101FC00000080240000C02400010024000140240D1
:101FD00000180240001C024000200240FA4800683D
:101FE00040F00100F84908600020F7490831086016
:101FF000F5480068F5490840F3490860F448091DB0
:102000000860081F006820F48020091F0860002075
:10201000ED490C31086070470021EB4A921C1170A9
:1020200011460870704710B50146002200230020B9
:102030004A11012A02D1E44C236808E0022A03D1A4
:10204000E14C7034236802E0DF4C7434236801F003
:102050001F02012494401C4201D0012000E0002016
:1020600010BD38B5002000900024002500BF3120AD
:10207000FFF7D9FF05460098401C00900098B0F586
:10208000A06F01D0002DF2D03120FFF7CCFF08B1B6
:10209000012400E00024204638BD01460020CA4A41
:1020A000106820F0F80040EAC10010607047C9498C
:1020B000086070470021C44A703211701170012805
:1020C00002D004280AD104E00121BF4A7032117005
:1020D00005E00521BC4A7032117000E000BF00BF6E
:1020E0007047BD490860704770B5049C41EA82158D
:1020F0000126C6EB530645EA0645054345EA046555
:10210000B14E361D356070BDB24908667047820118
:1021100042EA0172AC4B84331A607047AD4988665D
:102120007047AC49C864704702460020A64B08338C
:10213000186820F0EC6042EA01031843A24B083310
:1021400018607047024600209F4B0833186820F043
:10215000784042EA010318439B4B083318607047EC
:1021600001460020984A0832106820F00300084316
:102170001060704794480830006800F00C00704709
:1021800001460020904A0832106820F0F000084311
:1021900010607047014600208B4A0832106820F416
:1021A000E05008431060704701460020864A08321C
:1021B000106820F4604040EAC10010607047F0B53C
:1021C0000021002200240225002602237E4F08372A
:1021D0003F6807F00C0121B1042905D0082937D147
:1021E00005E07E4F076036E07D4F076033E0764FB5
:1021F0003F1D3F68C7F38056734F3F1D3F6807F090
:102200003F036EB1764FB7FBF3F7DFF8BCC10CF1BB
:10221000040CDCF800C0CCF3881C07FB0CF40CE0C9
:102220006E4FB7FBF3F7DFF8A0C10CF1040CDCF83C
:1022300000C0CCF3881C07FB0CF4634F3F1D3F68C4
:10224000C7F301477F1C7D00B4FBF5F7076002E090
:10225000624F076000BF00BF5B4F08373F6807F061
:10226000F00109095F4F7A5C0768D7404760564F15
:1022700008373F6807F4E051890A5A4F7A5C47688B
:10228000D7408760504F08373F6807F46041490BDB
:10229000544F7A5C4768D740C760F0BD002100F416
:1022A0004072B2F5407F0AD1474A0832116821F4E2
:1022B000F8114D4A02401143434A08321160424A24
:1022C00070321268C0F30B031A433F4B70331A602D
:1022D000704741494439086070473F4940390860B8
:1022E000704742490860704739B1374A3032126846
:1022F0000243354B30331A6006E0334A30321268FD
:102300008243314B30331A60704739B12E4A343230
:10231000126802432C4B34331A6006E02A4A3432E6
:1023200012688243284B34331A60704739B1264A09
:10233000383212680243244B38331A6006E0224ACE
:10234000383212688243204B38331A60704739B1F3
:102350001D4A4032126802431B4B40331A6006E0AC
:10236000194A403212688243174B40331A60704753
:1023700039B1154A443212680243134B44331A6090
:1023800006E0114A4432126882430F4B44331A600C
:10239000704739B10C4A1032126802430A4B1033AD
:1023A0001A6006E0084A103212688243064B103366
:1023B0001A607047E1B1044A143212680243024BBA
:1023C00014331A6019E0000000380240FFFFF6FEE7
:1023D0001030002400004742800E47420024F400E1
:1023E00000127A0088000020FFFCFF0F5C014742CA
:1023F0005B4A126882435A4B1A60704739B1584A97
:10240000121D12680243564B1B1D1A6006E0544A07
:10241000121D12688243524B1B1D1A60704739B15E
:102420004F4A0C32126802434D4B0C331A6006E0DF
:102430004B4A0C3212688243494B0C331A60704786
:1024400039B1474A103212680243454B10331A60C3
:1024500006E0434A103212688243414B10331A603F
:10246000704739B13E4A3C32126802433C4B3C3320
:102470001A6006E03A4A3C3212688243384B3C33D9
:102480001A60704739B1364A403212680243344B01
:1024900040331A6006E0324A403212688243304BC1
:1024A00040331A60704739B12D4A443212680243F2
:1024B0002B4B44331A6006E0294A443212688243A7
:1024C000274B44331A60704739B1254A4C321268A1
:1024D0000243234B4C331A6006E0214A4C32126807
:1024E00082431F4B4C331A60704739B11C4A50323B
:1024F000126802431A4B50331A6006E0184A5032F1
:1025000012688243164B50331A60704739B1144A2F
:10251000D21F12780243124BDB1F1A7006E0104ADA
:10252000D21F127882430E4BDB1F1A7070470C4883
:102530006030006840F08070094960310860704781
:1025400001460020064A083A12680A4201D00120DA
:1025500000E0002070470249891F087070470000A2
:102560001438024010B50446F648844208D10121CF
:102570008014FFF765FF0021A014FFF761FF16E04C
:10258000F148844208D101210014FFF748FF0021DF
:102590002014FFF744FF0AE0EC48844207D10121F0
:1025A000C013FFF73CFF0021E013FFF738FF10BD19
:1025B00010B50022028802F441520B884C88234354
:1025C0008C882343CC8823430C8923434C892343A1
:1025D0008C892343CC8923431A430280838B4FF297
:1025E000FF74234083830B8A038210BD2DE9F04FD3
:1025F000002502230024012700220026944690464D
:102600009146B0F81CA04FF2400B0AEA0B0AA0F862
:102610001CA04FF0020AA0F820A0858BD1F808A0DA
:10262000BAF1020F01D100BF6AE0B1F804A0BAF11B
:10263000000F01D1012700E00227DFF814A3DAF828
:1026400000A01AF4000F09D0DFF804A3DAF800A004
:102650002AF4000ADFF8F8B2CBF800A0DFF8F0A205
:102660000AF17C0ADAF800A0CAF38818DFF8E0A2C1
:102670000AF17C0ADAF800A0CAF30279DFF8D0A2E6
:10268000AAF1040ADAF800A00AF03F0CDFF8C4A2AD
:10269000BAFBFCFA0AFB08FABAFBF9F6B1F806A095
:1026A000BAF5007F0ED14FEA162A0AEB8A0A4FEAE2
:1026B0004A0AD1F808B0BAFBFBFA0AF1050A1FFA78
:1026C0008AF20FE04FEA471AB6FBFAFA0AEB8A0AD7
:1026D0004FEA4A0AD1F808B0BAFBFBFA0AF1050A38
:1026E0001FFA8AF24FF00A0AB2FBFAF202F0010472
:1026F000A2EB040ACAF34F034FF6FF7A0AEA042456
:10270000022B01DBFF2B01DD02230024B1F806A020
:102710004AEA040A4AEA030AA0F820A0B1F804A091
:10272000B1F80CB04AEA0B0AB1F802B04AEA0B0A57
:10273000B1F800B04AEA0B0A4AF4006A4AEA050511
:102740008583BDE8F08F0021018041808180C180B8
:10275000018141818181C18107210182704700216E
:10276000018041808180C1800221816000218181BE
:10277000704721B1028842F04002028004E00288E2
:102780004FF6BF731A400280704721B1828B42F42A
:102790008062828304E0828B4FF6FF331A4082838B
:1027A000704702884FF2FF731A40028002880A4382
:1027B00002807047B1F5804F04D1028842F4804214
:1027C000028004E002884BF6FF731A4002807047D3
:1027D000A1F57E42FF3A04D0028842F48072028062
:1027E00004E002884FF6FF631A400280704721B16F
:1027F000828842F00402828004E082884FF6FB73F4
:102800001A408280704721B1828842F01002828093
:1028100004E082884FF6EF731A408280704730B52B
:1028200000220023848B4FF240052C408483022435
:102830000484828B0C88B4F5007F01D00C8814B915
:102840004FF4807308E00C88B4F5407F03D00C8807
:10285000B4F5807F00D100238C888D892C434D886E
:102860002C431C4344F400642243828330BD014660
:10287000888970478181704721B1028842F40052F3
:10288000028004E002884DF6FF731A400280704710
:10289000018841F4805101807047024600200129DF
:1028A00001D0108B00E0908A70470146088A70477B
:1028B0001AB183880B43838002E083888B43838033
:1028C000704730B5002400230C110125A540ABB2A0
:1028D0001AB185881D43858002E085889D438580E7
:1028E00030BD0246002013890B4201D0012000E0D8
:1028F00000207047CA4302817047F0B502460020AD
:1029000000240023002501F00F070126BE40B4B2C9
:102910000B1101269E40B3B2968806EA030516897C
:10292000264202D00DB1012000E00020F0BD10B51C
:10293000002201F00F040123A3409AB2D343038184
:1029400010BD00000030014000380040003C004055
:102950000838024000127A0010B501218803FFF701
:102960006FFD00214FF48040FFF76AFD10BD1A494A
:102970000860704730B500228B071C0F0F2303FA45
:1029800004F2154B08338C1053F824309343124C47
:1029900008348D1044F8253023468C1053F8243029
:1029A0008C07240F00FA04F423430B4C08348D10D9
:1029B00044F8253030BD094908607047084908606F
:1029C0007047002004492031096811F4807F01D04C
:1029D000012000E00020704700380140DC00274261
:1029E000000427422DE9FE4F81EA030404F000446D
:1029F00021F0004100944FF0000B23F0004350EA17
:102A0000010402D052EA030404D10020014603B0BD
:102A1000BDE8F08FC3F30A54C1F30A552C44A4F265
:102A2000F3340194A0FB0254C1F3130141F480116B
:102A3000C3F3130343F4801301FB024400FB034E72
:102A4000840A970A44EA815447EA8357A4FB07683B
:102A500002958D0A05FB07854FEA932C04FB0C5465
:102A60002705029D4FEA065847EA1637B5EB0805D9
:102A70006EEB070C870E920E47EA811742EA83122B
:102A8000A7FB0201B6EB0B0164EB00042B0D43EA3C
:102A90000C335E1844EB1C50DA465146E7FB02014A
:102AA000C5F313044FEA0B3343EA14534FEA0432DD
:102AB000019C43EA0603A4F10C040294009CCDE9B6
:102AC00000B400F0BAF8A2E700F0004230F0004095
:102AD0000AD0C10D01F56071C0F3160042EA015140
:102AE000C20840071143704700200146704701F0BB
:102AF000004330B421F0004150EA010206D00A0D33
:102B0000A2F56072C1F31301002A02DC30BC002080
:102B10007047440F44EAC104C100E01830BC00EB28
:102B2000C25000F047B830B50B46014600202022C5
:102B3000012409E021FA02F59D4205D303FA02F5CA
:102B4000491B04FA02F52844151EA2F10102F1DC2A
:102B500030BD2DE9F05F0546002092469B46884631
:102B60000646814640241BE0284641464746224609
:102B700000F091FA53465A46C01A914110D31146BB
:102B80001846224600F078FA2D1A67EB01084F46E6
:102B900022460120002100F06FFA17EB00094E4198
:102BA000201EA4F10104DFDC484631462A46434694
:102BB000BDE8F09F0029A8BF7047401C490008BF2E
:102BC00020F00100704710B4B0FA80FC00FA0CF05D
:102BD00050EA010404BF10BC704749B1CCF1200495
:102BE00021FA04F411FA0CF118BF01212143084322
:102BF000A3EB0C01CB1D0106000A002BBEBF002079
:102C000010BC704700EBC35010440029A4BF10BC97
:102C10007047401C490008BF20F0010010BC7047FD
:102C200010B5002B08DA401C41F1000192185B41FD
:102C30001A4301D120F0010010BD2DE9F04D92465C
:102C40009B4611B1B1FA81F202E0B0FA80F2203273
:102C5000904600F011FA04460F4640EA0A0041EAA5
:102C60000B0153465A46084303D120463946BDE876
:102C7000F08D114653EA010015D0C8F140025046CC
:102C800000F009FA05460E4650465946424600F005
:102C9000F3F9084301D0012000E00020054346EA93
:102CA000E0762C4337430A984FEA4453A0EB0800E0
:102CB0004FEAD4240A304FF0000244EA47544FEA66
:102CC000D72502D500200146D1E701051019694139
:102CD000DDE9084500196941BDE8F04DA0E72DE99F
:102CE000FE4F804681EA0300C00F0C46009021F0A1
:102CF000004123F00045B8EB0200A94105D240464F
:102D0000214690461C460B46024623F000401043E5
:102D100004D14046214603B0BDE8F08F270DC7F32C
:102D20000A00C3F30A510290401A0190402866DA63
:102D3000C3F3130040F4801B0098924620B1002397
:102D4000D2EB030A63EB0B0B01985946C0F140022A
:102D5000504600F091F906460D4650465946019AF4
:102D600000F0A9F910EB08006141002487EA115234
:102D700084EAE7731A433BD0009A3AB3019A012AD6
:102D80004FEA075210DC001B61EB02014FF00042DA
:102D900002EA0752CDE90042001C41F5801132469B
:102DA0002B46FFF74AFFB6E7001B61EB0201001C50
:102DB00041F5801300185B412018A2F5001747EB7E
:102DC000030140EAD570B6196D4111E06D084FEA74
:102DD000360645EAC0754FEA0752001B61EB020157
:102DE000001C41F5801149084FEA3000001951419B
:102DF00032462B4603B0BDE8F04FFFF711BF0098F5
:102E0000012240000023D0EB020263EBE073009844
:102E100021464FEAE074B8EB000061EB0401E9E7FA
:102E200083F000435BE781F0004158E72DE9F04D66
:102E300081EA030404F0004B21F0004514464FF0F2
:102E4000000A23F0004150EA050220D054EA0102B2
:102E50001DD0C5F30A570246C5F31303C1F313008F
:102E6000C1F30A5640F4801543F48013A7EB06081B
:102E7000101BD64608F2FD3873EB050002D308F1AB
:102E8000010801E092185B41B8F1000F03DA00205D
:102E90000146BDE8F08D00204FF4801106468446BF
:102EA0000EE0171B73EB050705D3121B63EB05033D
:102EB00006434CEA010C49084FEA300092185B4186
:102EC00050EA0107EDD152EA030012D082EA040071
:102ED00083EA0501084303D100224FF0004308E0D4
:102EE000101BAB4102D20122002302E06FF001026D
:102EF00053101AEB06004CEB085110EB0A0041EBA3
:102F00000B01BDE8F04DFFF78BBE70B521F000431B
:102F100003430CD0C1F30A550024D5EB040564EB40
:102F20000403D617AD1AB34102DB0020014670BD81
:102F3000201841EB025170BD2DE9F04D00231A46D7
:102F40001B1A8A4103DB00200146BDE8F08DC1F366
:102F50000A52C1F3130141F480154FF0000BD10761
:102F600002D100186D41521E0027044640F2FF11A5
:102F7000384601EB620A3E468046024600204FF486
:102F8000801100F088F8C2197141BB1846EB0100AE
:102F9000B4EB030C75EB000C04D3E41A65EB0005ED
:102FA00017460E46241908F101006D418046342869
:102FB000E3DDF91946EB0600091BA84103D24FF0E7
:102FC000FF32134601E0002213461BEB070046EBDD
:102FD0000A51BDE8F04DFFF723BE0EB5C10F80EAE0
:102FE000E0700844CA07002140F233438DE80E0028
:102FF0000A460B46FFF721FE03B000BDC1F30A529B
:10300000C1F3130140F2FF3341F480119A4202DA16
:1030100000200146704740F233439A42A2F2334205
:1030200002DC524200F037B800F026B830B5002973
:1030300004DB4FF00044404264EB0101002B04DB51
:103040004FF00044524264EB0303994208BF9042A0
:1030500030BD0000064C074D06E0E06840F001037B
:1030600094E8070098471034AC42F6D3FDF790F887
:10307000C85E0008F85E0008202A04DB203A00FA47
:1030800002F1002070479140C2F1200320FA03F3BF
:10309000194390407047202A04DB203A21FA02F0BD
:1030A0000021704721FA02F3D040C2F12002914082
:1030B000084319467047202A06DBCB17203A41FA0D
:1030C00002F043EAE07306E041FA02F3D040C2F1B5
:1030D000200291400843194670470000000000009C
:1030E0000FB4054B10B503A9044A029801F090F9FA
:1030F00010BC5DF814FB0000BB070008480000206E
:1031000003B401984100009850EAC12018BF042080
:103110004A0D18BF40F0010040F2FF72B2EB515F60
:1031200008BF40F00200012808BF052002B0704728
:1031300070B59F482DED020B2DED068B079D25F0F8
:103140000044A0421DDC9B48844202DC0FD106985B
:1031500068B19DED060B53EC102B51EC100BFFF7F3
:10316000BEFDBDEC068B02B041EC100B70BD002D16
:10317000CCBF9FED910B9FED920BBDEC068B02B087
:1031800070BD9148A04215DD9048A042D8BF4FF0D5
:10319000FF3440DD9DED060B51EC100BFFF7B0FF47
:1031A000042808BF01F03CF89DED060BBDEC068B32
:1031B00002B070BD9DED060B51EC100B01F0FCFC54
:1031C00041EC100B82488DED060B9FED838BA042E6
:1031D0003CDD8348A0421FDD00249FED839B51EC22
:1031E000100B53EC192BFFF77AFD9DED060B41EC0C
:1031F0001A0B53EC192B51EC100BFFF7F3FB53ECAC
:10320000182BFFF70DFE53EC1A2BFFF70FFE41ECC6
:10321000100B8DED060B49E0012453EC182B51ECFB
:10322000100BFFF75CFD9DED060B41EC190B53EC09
:10323000182B51EC100BFFF7F3FD53EC192BFFF794
:10324000F5FD41EC100B8DED060B2FE06848A04218
:103250001FDD02249FED689B51EC100B53EC192BE2
:10326000FFF7C0FB53EC182BFFF739FD9DED060B64
:1032700041EC180B53EC192B51EC100BFFF7D0FD60
:1032800053EC182BFFF7D2FD41EC100B8DED060B24
:103290000CE053EC102B03249FED590B51EC100B59
:1032A000FFF7C4FD41EC100B8DED060B9DED060BF9
:1032B00053EC102B51EC100BFFF794FB41EC180B67
:1032C00053EC182BFFF78EFB41EC190B4E480621EF
:1032D000B0EE490AF0EE690A784400F022FF53ECA0
:1032E000182B51EC100BFFF77DFB41EC180B4748F6
:1032F000B0EE490AF0EE690A0521784400F011FFAA
:1033000053EC192B51EC100BFFF76CFB41EC100B3D
:1033100051EC180B53EC102B002C0EDAFFF7DFFCEE
:103320009DED061B53EC112BFFF75CFB9DED061B7F
:1033300053EC112BFFF777FD35E0FFF7D0FC9DED47
:10334000061B53EC112BFFF74DFB41EC100B3048E3
:10335000784400EBC40090ED001B51EC100B53ECD3
:10336000112BFFF75DFD9DED061B53EC112BFFF7B5
:1033700057FD41EC110B2748784400EBC40090ED59
:10338000000B51EC110B53EC102BFFF74CFD41ECF3
:10339000100B002DA2BFBDEC068B02B070BD51EC2E
:1033A000100B81F0004141EC100BFFE60000000023
:1033B000000010440000F07F182D4454FB21F93F19
:1033C000182D4454FB21F9BF0000DC3F0000203ED3
:1033D0000000F33F00000000000000000000F03F8C
:1033E0000000E63F00000000000000000000004078
:1033F0000080034000000000000000000000F83FD3
:10340000000000000000F0BF2C2B0000E22A0000AA
:103410006C2A0000242A00002DE9F04D2DED040B4C
:103420002DED0E8B94B0DDE92350259CDDF888A0AE
:1034300025F0004624F00048BAF1000F14BF012126
:10344000002101EB4502FE4953184A1093422AD34A
:10345000002814BF0123002303EB44030B44F94964
:103460008B4220D358EA00019FEDF78B6FD0DFF835
:10347000E0B35D4503D1BAF1000F05D181E0BAF1A7
:10348000000F08BF002100D0012101EB450111F51B
:10349000001F08D8002814BF0121002101EB4401BE
:1034A00011F5001F0AD99DED240B53EC102B9DED57
:1034B000220B51EC100BFFF712FC40E00027002D0F
:1034C000BCBFE449884521DAE3498845A8BF022703
:1034D0001CDAC3451ADCE14901EB2851142908DD47
:1034E000C1F1340220FA02F101FA02F282420DD156
:1034F00008E058B9C1F1140228FA02F101FA02F207
:10350000424503D101F00101C1F1020756EA0A0167
:103510009FEDD3AB1CD1002C1ADA002D18BF022F5F
:1035200001D0012F07D0022000F09AFE53EC1A2B95
:1035300051EC180B05E1022000F092FE7DE041EC19
:10354000100B14B0BDEC0E8B04B0BDE8F08D18E08C
:103550009FEDC5BB9FEDC69B002877D1BD48804538
:1035600022D105F1804010F5801008BFBAF1000F9C
:1035700007D0B3450ADC002CA8BF9DED240BE0DA90
:103580000DE0B0EE480AF0EE680ADAE7002C06DA41
:103590009DED240B51EC100B81F00041CFE7B648B4
:1035A000784490ED000BCCE7D84553D1002C4EDA8F
:1035B0002EB1864240D1BAF1000F48D12CE0BAF1C9
:1035C000000F19D0022000F04BFE53EC192B51ECE8
:1035D000190BFFF707FA41EC100B8DED020B9DED77
:1035E000220B8DED000B10EE900A039961F31E0083
:1035F00003909DED020BA4E78DED02BB9DED220B28
:103600001BEE901A10EE900A8DED000B61F31E0078
:1036100003909DED020B94E78DED02AB9DED220B27
:103620001AEE901A10EE900A8DED000B61F31E0059
:1036300003909DED020B84E709DA9DED220B51EC1E
:10364000180B53EC102BFFF7F1FB78E71DE09DED15
:10365000220B76E7864218DAB4F1804F0DD0A4F140
:103660000050B0F1FF5010D1002D0EDB9DED220B6C
:1036700051EC100B02F096F961E79DED220B53EC33
:10368000102B51EC100B00F0E1BC9DED220B51EC26
:10369000100B01F091FA41EC100BBAF1000F8DED17
:1036A000120B34D19FED760BDEB1A6F1E040B0F104
:1036B0007F602CD1002D01DD002C0DDA002D01DD05
:1036C000002C1FDB002D16DA002C14DB012F08BFA5
:1036D0009FED6D0B3FF435AFB0EE4B0AF0EE6B0A89
:1036E0002FE7022F18BF002D0CD0012F0AD1002D7B
:1036F000FFF627AF06E0002DB8BF002C07DA012F38
:103700003FF41FAFB0EE4A0AF0EE6A0A19E7012053
:1037100000EBE570049038430CD05D4800258045EF
:103720007DDD5C495C48884513DDB0420CDB002C34
:1037300018DB30E0012000F093FD53EC1A2B51EC24
:103740001A0BFFF773FBFAE6B34502DC002C09DC29
:1037500021E0864202DA002C1DDA03E05E452DDD11
:10376000002C18DD022000F07BFD53EC192B51ECEE
:10377000190BFFF737F941EC100B1BEE900A10EE16
:10378000901A8DED020B8DED00BB61F31E000390CE
:103790009DED020BD5E6022000F062FD00F040FD39
:1037A00010EE901A18EE900A8DED020B8DED008B45
:1037B00061F31E0003909DED020BC2E69DED220B0E
:1037C00053EC182B51EC100BFFF72AFB41EC100BBC
:1037D0008DED0C0B9FED320B53EC102B9DED0C0B74
:1037E00051EC100BFFF7FEF89FED2F1B53EC112B44
:1037F000FFF719FB9DED0C1B53EC112BFFF7F2F8B3
:103800009FED2B1B53EC112BFFF70DFB9DED0C0BCC
:1038100041EC1A0B53EC102B51EC100B00E08AE03A
:10382000FFF7E0F853EC1A2BFFF7DCF89FED220BC3
:1038300041EC1B0B53EC102B9DED0C0B40E00000FA
:10384000FFFF1F00FFFF0F00000000000000F03F1F
:103850000000F03F0000F07F0000404301FCFFFF4C
:103860000000000000000000000000000000F07FE9
:1038700000000000000000701C2900000000000093
:103880000000000000000080000000000000F0FFC9
:103890000000E0410000F043FFFFEF3F00000000A8
:1038A000000000000000D03F555555555555D53FF7
:1038B000000000000000E03F000000604715F73FF7
:1038C00051EC100BFFF78EF841EC1A0B9FEDFE0B3D
:1038D00051EC1B0B53EC102BFFF784F841EC1B0B46
:1038E0009FEDFB0B53EC102B9DED0C0B51EC100BD3
:1038F000FFF778F853EC1B2BFFF792FA41EC1B0B08
:1039000051EC1A0B53EC1B2BFFF7E9F941EC100BB0
:1039100053EC1A2B8DED080B08959DED080B51EC1F
:10392000100BFFF77DFA53EC1B2BFFF77CFA41ECF1
:10393000100B00F0AFB90020B6F5801F11DA9FED33
:10394000E60B53EC102B9DED120B51EC100BFFF717
:1039500049F841EC100B6FF0340010EE906A8DEDD9
:10396000120BDF4900EB2650A0F2FF38C6F313001C
:1039700040F07F6646F040568842D8BF002409DDFB
:10398000D8498142C8BF012404DC002408F10108A1
:10399000A6F58016D448784400EBC40A13969AED35
:1039A000000B53EC102B9DED120B51EC100BFFF79D
:1039B00037FA9AED000B41EC1B0B53EC102B9DEDED
:1039C000120B51EC100BFFF78AF941EC100B51EC84
:1039D000180B53EC102BFFF729FA41EC1C0B51ECA0
:1039E0001B0B53EC1C2BFEF7FDFF41EC1A0BBF48E1
:1039F0008DED0AAB78440A9590ED000B4FF0005026
:103A000040EA660000EB84408DED100B00F50020CD
:103A100011909AED000B53EC102B9DED100B51EC17
:103A2000100BFFF7FDF99DED121B53EC112BFFF767
:103A3000FAF941EC100B53EC102B9DED0A0B51ECF5
:103A4000100BFEF7CFFF9DED100B41EC1D0B53EC5F
:103A5000102B9DED0A0B51EC100BFEF7C3FF53EC3E
:103A60001B2BFFF7E0F953EC1D2BFFF7D9F953ECB3
:103A70001C2BFEF7B7FF41EC1C0B53EC1A2B51EC3F
:103A80001A0BFEF7AFFF41EC1B0B99480621B0EE75
:103A90004B0AF0EE6B0A784400F043FBB0EE40DADC
:103AA000F0EE60DA53EC1B2B51EC1B0BFEF79AFF88
:103AB00053EC1D2BFEF796FF9DED0A0B41EC1B0B03
:103AC00053EC1A2B51EC100BFFF709F953EC1C2B9C
:103AD000FEF788FF53EC1B2BFFF701F99DED0A0B56
:103AE00041EC1D0B53EC102B51EC100BFEF77AFF41
:103AF00041EC1B0B9FED80EB53EC1E2BFFF7EFF817
:103B000053EC1D2BFFF7EBF841EC100B53EC1E2B85
:103B10008DED100B10959DED100B51EC100BFFF778
:103B20007FF953EC1B2BFFF77BF953EC1D2BFFF7B1
:103B30007AF99DED100B41EC1D0B53EC102B9DED14
:103B40000A0B51EC100BFEF74DFF41EC1B0B53EC35
:103B50001A2B51EC1D0BFEF745FF9DED100B41ECB0
:103B60001A0B53EC102B51EC1C0BFEF73BFF53ECE4
:103B70001A2BFFF7B4F841EC1A0B51EC1B0B53EC6A
:103B80001A2BFFF7ACF841EC100B53EC1B2B8DED0F
:103B90000A0B0A959DED0A0B51EC100BFFF740F94B
:103BA00053EC1A2BFFF73FF941EC1A0B9FED540B26
:103BB00053EC102B9DED0A0B51EC100BFEF712FF8E
:103BC00041EC1B0B9FED500B51EC1A0B53EC102BDF
:103BD000FEF708FF41EC1A0B9FED4D0B53EC102B39
:103BE0009DED0A0B51EC100BFEF7FCFE53EC1A2B6B
:103BF000FFF775F841EC100B4748784400EBC40020
:103C000090ED001B51EC100B53EC112BFFF767F8F4
:103C100041EC1A0B4046FFF7E0F941EC100B53EC76
:103C20001A2B8DED0C0B51EC1B0BFFF758F841ECE8
:103C3000100B3A48784400EBC40451EC100B94ED9F
:103C4000001B53EC112BFFF74AF89DED0C1B53ECB6
:103C5000112BFFF744F841EC100B8DED080B089584
:103C60009DED0C0B53EC102B9DED080B51EC100B44
:103C7000FFF7D6F894ED000B53EC102BFFF7D0F8BC
:103C800053EC1B2BFFF7CCF853EC1A2BFFF7CBF8B8
:103C900041EC100B0498791EB0EE48BAF0EE68BA09
:103CA000084308BF9FED1E8B9DED241B53EC102B8A
:103CB0008DED001B00959DED240B51EC100BFEF7D4
:103CC00091FE41EC1A0B2FE0FE822B654715F73F62
:103CD00044DF5DF80BAE543E00000000000040439E
:103CE0008E9803007AB60B009E240000C8240000C2
:103CF000CE2300000000000000000000000008408B
:103D0000000000E009C7EE3FFD033ADC09C7EE3FC3
:103D1000F5015B14E02F3EBE5A2200001022000085
:103D2000000000000000F0BF9DED000B53EC102BD5
:103D30009DED240B51EC100BFFF772F89DED081B65
:103D400053EC112BFEF74EFE53EC1A2BFEF7C7FF78
:103D50009DED080B41EC1A0B53EC102B9DED000B65
:103D600051EC100BFEF73EFE41EC100B51EC1A0B20
:103D70008DED0A0B53EC102BFEF7B1FF41EC100B4D
:103D8000B54910EE904A10EE100A8DED020B8C42F0
:103D900035DB611A084318D19DED0A0B53EC102B4B
:103DA0009DED020B51EC100BFFF73AF841EC1C0BA8
:103DB0009FEDAB0B51EC1A0B53EC102BFEF78FFF62
:103DC00053EC1C2BFFF732F933D2022000F048FAF3
:103DD00053EC192B51EC190BFEF704FE41EC100BC0
:103DE00018EE900A10EE901A8DED020B8DED008BFF
:103DF00061F31E0003909DED020BFFF7A2BB9A4AF0
:103E000024F00041914214D39849214408437FF49F
:103E1000C2AC9DED0A0B53EC102B9DED020B51EC47
:103E2000100BFEF7FDFF53EC1A2BFFF7FFF87FF6A0
:103E3000B2AC24F000408E498E4A002601EB20519E
:103E40009042D8BF9DED0A0B2DDD481C4FF4801128
:103E500021FA00F02044C0F30A51874AA1F2FF3151
:103E60007A4492ED000B854A8DED0C0BCA4020EA96
:103E70000202C0F3130040F48010C1F1140120FAD3
:103E800001F60D92002CB8BF76429DED0C0B53EC61
:103E9000102B9DED0A0B51EC100BFEF7C1FF41EC0E
:103EA000100B8DED0A0B53EC102B51EC1A0BFEF797
:103EB00016FF41EC100B8DED0C0B9FED710B0C956B
:103EC00053EC102B9DED0C0B51EC100BFEF78AFD03
:103ED00041EC190B9FED6C0B53EC102B9DED0C0B73
:103EE00051EC100BFEF77EFD9DED0A0B41EC1C0B17
:103EF00053EC102B9DED0C0B51EC100BFEF790FFCB
:103F000053EC1A2BFEF78FFF9FED611B53EC112B27
:103F1000FEF768FD53EC1C2BFEF7E1FE41EC1A0B9B
:103F200051EC190B53EC1A2BFEF7D9FE41EC100B98
:103F300053EC192B8DED020BFEF772FF53EC1A2B8D
:103F4000FEF771FF9DED020B41EC190B53EC102BAA
:103F500051EC100BFEF746FD41EC100B4E488DED79
:103F60000C0B0521784400F0DCF89DED0C1B51ECA6
:103F7000100B53EC112BFEF735FD9DED021B53EC9E
:103F8000112BFEF750FF41EC100B53EC192B8DED6C
:103F9000080B9DED020B51EC100BFEF723FD53ECCB
:103FA000192BFEF79CFE9FED3E0B41EC1A0B53ECD8
:103FB000102B9DED080B51EC100BFEF731FF9DED22
:103FC000080B41EC190B53EC102B9DED020B51EC3F
:103FD000100BFEF707FD53EC192BFEF727FF53ECF0
:103FE0001A2BFEF71DFF9DED021B53EC112BFEF764
:103FF00017FF53EC1B2BFEF716FF41EC100B10EED6
:10400000900A8DED020B00EB065001150029C4BF8C
:1040100003909DED020B15DC324651EC100BFEF7C0
:1040200074FFFFF76DF8042808BF00F0F9F8324676
:104030009DED020B51EC100BFEF767FF41EC100BEE
:104040008DED020B53EC102B51EC180BFEF7CAFC54
:10405000FFF775BA0000000000009040000000006B
:10406000FE822B654715973C00CC904000346F3F93
:1040700001FCFFFF0000E03F5C200000FFFF0F009D
:1040800000000000432EE63F396CA80C615C20BEA6
:10409000EF39FAFE422EE63F301F0000000000001C
:1040A000000000000000004000B52DED048BB0EED4
:1040B000408AF0EE608A83B051EC180BFEF73CFFAB
:1040C00041EC190B19EE100A19EE901A8DED009BB8
:1040D000002818BF0120084320F00040C0F17F6095
:1040E00000F1E040C00F14D018EE101A18EE900A3C
:1040F0008DED008B002918BF0121084320F00040FE
:10410000C0F17F6000F1E040C00F04BF012000F06B
:10411000A7F8B0EE490A03B0F0EE690ABDEC048BD3
:1041200000BD70B504462DED028B4D1E00EBC500A1
:10413000B0EE408AF0EE608A90ED000B35F006009C
:1041400017D053EC182B51EC100BFEF74BFC41EC45
:10415000100B6D1E04EBC50090ED001B51EC100B15
:1041600053EC112BFEF7BBFD41EC100B35F00600B4
:10417000E7D1022D36D0042D1CD0062D1CBFBDEC7E
:10418000028B70BD53EC182B51EC100BFEF72AFC80
:1041900094ED0A1B53EC112BFEF7A1FD53EC182BE9
:1041A000FEF720FC94ED080B53EC102BFEF797FD67
:1041B00041EC100B53EC182B51EC100BFEF712FCDA
:1041C00094ED060B53EC102BFEF789FD53EC182BE6
:1041D000FEF708FC94ED041B53EC112BFEF77FFD5A
:1041E00041EC100B53EC182B51EC100BFEF7FAFBC3
:1041F00094ED020B53EC102BFEF771FD53EC182BD2
:10420000FEF7F0FB94ED000B53EC102BFEF767FD6F
:10421000BDEC028B41EC100B70BD000000000000F3
:104220009FED050B10B553EC102B51EC100BFEF766
:10423000D9FB41EC100B10BD000000000000001085
:1042400002E008C8121F08C1002AFAD1704770475F
:10425000002001E001C1121F002AFBD170470000BD
:104260000149086070470000B40000202DE9FF5F9D
:10427000DDE90220010DDDF838B0024310D10F98BE
:1042800001244CA2012808D0002100980F9BC0E90E
:104290000021C0E90243BDE8FF9F6FEA0B01F4E78C
:1042A000A1F2FF3144F6105041430D140F9801283C
:1042B0000ED0A5EB0B00401C4FF000043E4EDFF883
:1042C000FC90B0F1000AA04605DACAF1000717E039
:1042D000CBF10000F0E7074612E0F80707D02246CE
:1042E000334640464946FEF77DFB804689462246D6
:1042F000334610461946FEF775FB04460E467F10FE
:10430000002FEAD1DDE90201BAF1000F42464B4627
:1043100002DAFEF767FB01E0FEF788FD04460E4671
:104320000022274BFEF782FE03D84FF0FF300146F4
:1043300007E00022234B20463146FEF7D0FCFEF773
:104340005DFE102409E0002C0ADB0A220023FEF7A0
:1043500000FC019B30321A55641E50EA0102F2D172
:10436000641C019AC4F1110314440F9A012A09D064
:104370000122084301D15B450FDD4FF0000205F13A
:1043800001050DE0084303D1A3EB0B056D1E09E009
:1043900000204FF0110B0F9088E701DA00226D1E0C
:1043A000002A83D000980F99C0E90231C0E9004586
:1043B00071E7000030000000000024400000F03FE2
:1043C0000000F0430000E03F10B5002A06DA22F0BA
:1043D0000042D21D22F00703102203E0D21C22F07B
:1043E00003030C2213B19C188C4201D9012010BD8B
:1043F000024401448360C0E90021C91AD0188842F0
:1044000002D810600246F9E70020106010BD0000DD
:104410002DE9FF4F95B09B4689460646002512E2DE
:10442000252878D10024761CF94A274601210594D5
:104430003378203B01FA03F0104202D00443761C8B
:10444000F6E730782A2811D06FF02F033078A0F1EA
:104450003002092A16D8059A44F0020402EB8202BF
:1044600003EB42021044761C0590EFE759F8042B49
:104470000592002A03DA504244F40054059044F0B7
:104480000204761C30782E2816D116F8010F44F05D
:1044900004042A280DD06FF02F023078A0F13003E9
:1044A000092B09D807EB870302EB4303C718761CD7
:1044B000F3E759F8047B761C30786C280FD006DCC3
:1044C0004C2817D068280DD06A2814D104E074282D
:1044D00010D07A280FD10DE044F400140AE044F41F
:1044E000801401E044F440147278824202D1761CB8
:1044F00004F58014761C307866280BD013DC58281D
:1045000077D009DC002875D04528F6D04628F4D0AD
:1045100047281AD19FE118E0632835D0642879D064
:10452000652812D197E1702873D008DC6728F1D094
:1045300069286FD06E280DD06F2806D1B5E073289A
:104540002CD0752875D0782874D05A461799904782
:104550006D1C76E1C4F30250022809D003280DD067
:10456000D9F8001004280DD00D6009F1040968E1A4
:10457000D9F80010EA17C1E90052F6E7D9F800109F
:104580000D80F2E70D70F0E719F8041B8DF80010AC
:1045900000208DF80100EA46012003E059F804AB41
:1045A0004FF0FF3061074FF0000102D40DE008F139
:1045B00001018846B9420FDA8045F8DB1AF8081085
:1045C0000029F4D108E008F1010188468142FADBB4
:1045D0001AF808100029F6D105985B46A0EB0807E9
:1045E00021463846179A00F09EFA284400EB080549
:1045F00007E04DE02BE10DE01AF8010B5A46179940
:104600009047B8F10108F7D25B4621463846179A21
:1046100014E142E00A220092C4F302524FF0000A71
:10462000022A08D059F804CB032A4FEAEC710AD0C9
:104630000DE029E02AE009F1070121F00702F2E884
:1046400002C1914609E00FFA8CFC4FEAEC71042A92
:1046500003D14FFA8CFC4FEAEC71002907DA0A46C5
:104660000021DCF1000C61EB02012D2202E02205A9
:1046700004D52B228DF80420012203E0E20701D0AB
:104680002022F7E7904653E00A2102E010220DE0D5
:1046900010214FF0000A00910BE010224FF0000AA9
:1046A00044F004040827009203E008224FF0000AB7
:1046B0000092C4F30252022A05D059F804CB00211B
:1046C000032A08D009E009F1070121F00702F2E806
:1046D00002C1914605E01FFA8CFC042A01D10CF0BE
:1046E000FF0C4FF00008220722D5702827D0009B2E
:1046F00083F0100353EA0A0309D15CEA010206D0F1
:1047000030228DF804208DF8050002229046009B8F
:1047100083F0080353EA0A030AD15CEA010201D1DB
:10472000620705D530228DF804204FF001087F1E66
:10473000582809D037A003900EA8029013E0402219
:104740008DF804200122E1E737A0F4E753466046E4
:10475000009AFEF7FEF984460398825C0298A0F165
:104760000100029002705CEA0100EFD1029806A9F4
:10477000A1EB000000F1200A600702D524F4803488
:1047800000E00127574502DDA7EB0A0000E000200A
:1047900000EB0A01009005984144A0EB0100059050
:1047A000E00306D45B462146179A059800F0BBF952
:1047B0000544002706E001A85A46C05D17999047B6
:1047C0006D1C7F1C4745F6DBE0030CD55B4621469C
:1047D000179A059800F0A7F9054404E030205A46DE
:1047E000179990476D1C0099481E00900029F5DC30
:1047F00008E0029802995A460078491C02911799DC
:1048000090476D1CBAF10001AAF1010AF1DC6BE1DD
:104810000928010030313233343536373839616296
:10482000636465660000000030313233343536375A
:1048300038394142434445460000000000F060F929
:10484000054406F10106307800287FF4E9AD19B07F
:104850002846BDE8F08F620700D4062709F1070259
:1048600022F0070CFCE80223E14603F000485FEA6F
:10487000080C02D00FF27C2C0DE05FEA045C02D53C
:104880000FF2742C07E05FEAC47C02D00FF26C2CAC
:1048900001E0AFF2700C4FF0FF3823F00043CDF889
:1048A00050C065280CD006DC452809D046281DD00C
:1048B00047283ED13EE0662818D0672839D139E034
:1048C0000021112F01DB112000E0781CCDE900014F
:1048D00006A90EA8FFF7CAFCDDE90F010E9A0391A5
:1048E0000021009207F1010A04914EE04FF00040D0
:1048F0000097CDE9011006A90EA8FFF7B7FCDDE986
:104900000F0203920E9B11990022DDF80CA0009378
:10491000049219B907F1010100EB010AB7EB0A0093
:1049200004D4C0F1FF3007F1010A0490AAEB07009C
:10493000019046E0012F00DA01270021112F01DD4F
:10494000112000E03846CDE9000106A90EA8FFF7C6
:104950008DFCDDE90F010E9A039100210491009274
:10496000BA4621070CD40399514500DA8A46BAF1B8
:10497000010F05DD009AAAF10101515C302908D030
:10498000B84202DA10F1040F06DA0121CDE9011074
:1049900017E0AAF10101E9E7002805DC04990144C8
:1049A0000491AAEB000102E0411C514500DD8A465A
:1049B0000499A0EB010000F1010001904FF00040CC
:1049C0000290200704D40198504501DBCDF8048003
:1049D00000208DF84F0002980DF14F07B0F1004F05
:1049E00025D02B200E9002984FF0020800280CDAF8
:1049F000404202902D200E9007E00A210298FEF717
:104A000092F83031029007F8011DB8F10001A8F1C9
:104A10000108F2DC02980028EFD1791E0E98087088
:104A2000307800F0200040F0450007F8020D12A891
:104A3000A0EB070000F107081498007800B10120EE
:104A400000EB0A01019801EBE07105984144A0EBED
:104A50000100A0F101000590E00306D45B46214669
:104A6000179A059800F05FF805441498007820B173
:104A70005A461799904705F10105E00323D55B4697
:104A80002146179A059800F04EF805441BE004985B
:104A9000002807DBDDE90301884203DD0098405C64
:104AA000179901E0179930205A46904704986D1CD9
:104AB000401C04900198401E019004D12E205A46BB
:104AC000179990476D1CBAF10001AAF1010ADEDCCA
:104AD00005E017F8010B5A46179990476D1CB8F17D
:104AE0000001A8F10108F4DC5B462146179A0598FD
:104AF000A4E600002D0000002B00000020000000B4
:104B00002DE9F041044600251E461746880405D4C9
:104B100006E039462020B04705F10105641EF8D5AE
:104B20002846BDE8F0812DE9F041044600251E46E7
:104B30009046C80301D5302700E02027880405D51A
:104B400006E041463846B04705F10105641EF8D538
:104B50002846BDE8F081000008480068C0010BD578
:104B600007480068C00707D005488038006800285B
:104B700002DA04490120087070470000FCED00E0F3
:104B8000800E00E0AA0000204FF06042D36F002B9F
:104B9000FCD0C36AD367D36F002BFCD0C07840EA47
:104BA0000120A2F87C0070474FF06041CA6F002AD4
:104BB000FCD081F87C00704741EC100B82B010EE05
:104BC000900A8DED000B20F0004001909DED000B50
:104BD00002B051EC100B704770B504000D4603D0C5
:104BE00012B92078012801D0802070BD204600F045
:104BF000FFFA28B12946204600F040F8002070BD99
:104C0000812070BD0246084810B500EB810050F8C5
:104C1000040C002806D0114600F03EFCBDE8104010
:104C200000F02ABC10BD0000141B001010B5044693
:104C30008089002821D0608904EB80000069086029
:104C40006078022805D10021204600F025FC00F004
:104C500013FC04F10C0000BFD0E85F1F491EC0E840
:104C6000521F002AF8D16089401C80B26081E1891E
:104C7000884201D100206081042010BD10B500F0F1
:104C80000BFCBDE8104000F0F7BB0000EFF305811E
:104C900009B182207047DFF808C000DF70470000CC
:104CA000135A0008EFF305820AB182207047EFF330
:104CB0001482144B12F0030206D0012A1BD0022AE0
:104CC00011D0032A19D113E0EFF3088282F3098887
:104CD0001A78D2070AD0022282F31488BFF34F8FCA
:104CE000BFF36F8F09E01A78D20706D10322F3E7EA
:104CF0001A78D20701D0FF207047DFF80CC000DF20
:104D000070470000145D0008295A00082DE90E4084
:104D1000EFF30582B2B102004FF0800000D021B164
:104D20000090DDE9011203B000BD11780129F7D12F
:104D300001A91046FFF77AFF042801D00020EFE711
:104D40001020EDE7DFF804C000DFECE7215B00088E
:104D50002DE97040EFF3058272B10C4600F05CFD66
:104D60004FF0004530B1210C04D1058BC178A0B2C1
:104D7000FFF748FF284670BDDFF804C000DF70BDB4
:104D80005B5B0008EFF305830BB182207047DFF80F
:104D900008C000DF70470000815B0008EFF3058268
:104DA0000AB100207047DFF808C000DF704700003C
:104DB000D55B0008DFF80CC000DFDFF80CC000DFB7
:104DC000FEE70000455C0008615C0008EFF3058029
:104DD00008B100207047DFF808C000DF704700000E
:104DE000455C0008EFF3058109B182207047DFF8C8
:104DF00008C000DF70470000615C0008DFF804C0F5
:104E000000DF7047995C0008094C4FF0FF352946D8
:104E10002068FFF77BFF02460846102AF7D1FFF70C
:104E2000EDFF0028F3D0024608469047EFE7000068
:104E3000200000204FEA000151E8000F28B103686C
:104E400041E80032002AF7D17047BFF32F8F704737
:104E500010B568B161B10B3121F0030201684468FB
:104E60000B1A1B1B934205D2084609680029F5D18D
:104E7000002010BD3CB121180368C1E90032016077
:104E800001F1080010BD4260083010BD70B50C463D
:104E9000002812D04FF6FF71084D884204D22A68CC
:104EA0000146104600F024FB28684470044800F0D6
:104EB00025F9BDE8704000F0DDBB70BD9C0000200E
:104EC000F40000200F4810B50D4942680E480B68E9
:104ED0000088934204D00A60CB88421E1A448A801C
:104EE0008A8882420AD100200860064800F006F94C
:104EF0000146BDE81040034800F028BB10BD00008B
:104F0000AC000020F4000020A800002070B5194D6E
:104F1000E86800282CD0A88A401EA882002621E03C
:104F2000A06838B161684160606810B1A1688160B3
:104F30006660A6600F482146183800F007FBA08A7B
:104F4000A8826078042804D10B49E08A09880844C3
:104F5000A08201206070E068E860E06808B1056147
:104F6000E6602661A88A002802D1EC68002CD7D11F
:104F700070BD00000C010020A800002070B50400E6
:104F80000FD00D4DA17801262868827891420CD966
:104F900000F0F8FA286846702046BDE8704000F03E
:104FA00069BB064800F0AAF8F7E766702146BDE83D
:104FB0007040024800F0CABA9C000020F4000020B3
:104FC0000321FFF763BF000010B50446008B0843C0
:104FD00020836278618B062A18D0052A19D10842ED
:104FE00017D001EA0002628388432083204600F044
:104FF000E9FA01206070628B0821204600F0DAFA9D
:105000002146BDE81040034800F0A0BA31EA000292
:10501000EAD010BDF40000200246154810B500EBA0
:10502000810050F8044C002C21D0208B10432083A9
:105030006278618B062A17D0052A18D1084216D04B
:1050400001EA0002628388432083204600F0BAFA16
:1050500001206070628B0821204600F0ABFA2046E8
:10506000BDE81040FFF78ABF31EA0002EBD010BD67
:10507000141B001003460E4810B504688C46208BA4
:1050800042B133EA000101D0062009E098432083B1
:10509000022010BD10EA030201D06283F6E705206A
:1050A000C1B263836046FFF7F1FE012010BD00002E
:1050B0009C000020814202D342688A4201D801202C
:1050C000704750E8002F0A6040E80012002AF8D12B
:1050D0000020704768B161B10839002202E0024641
:1050E000006830B18842FAD12AB10068106000200F
:1050F00070470120704700214160F8E70146406891
:1051000042684A600B780022022B05D0012B03D0A5
:10511000032B01D04260704743680BB19960426035
:1051200082607047810700D00020704770B5044648
:1051300000201546207001226270A1706060A0609E
:10514000E0602061A082E0822083608384F82000F8
:10515000608C18B90448FFF76DFEA062294620460E
:10516000BDE8704000F01CB86001001008B10829CB
:1051700001D2012070470144091F002201600A602A
:105180004260104670470000034800210160034957
:105190000968C18070470000AC0000200C5D000869
:1051A00010B5428C920803D10F4A1268C2F38D02E7
:1051B000836A03EB8202530700D5121F403A4FF077
:1051C0008073C2E90E1300234FEA030442F8234020
:1051D0005B1C0E2BFAD3C36913624262C162806A00
:1051E0000249016010BD0000085D0008A52E5AE2CA
:1051F000C1898089081A704701220270002242701A
:105200008270426002814281103982818908C181A5
:10521000704700002DE9F0410446407800270E4613
:105220004FF00108012855D004F10C0502282BD0BD
:10523000032818D0A089E189884262D2208904EB32
:1052400080000661D5E85F0F401CC5E8510F0029BA
:10525000F8D12089401C80B22081E189884200D1A8
:105260002781BDE8F0810846FFF7E4FD0600F8D08D
:105270002046FFF743FF0546606800B96770314676
:10528000284600F091F931E02046FFF737FF064647
:10529000606800B967700021304600F085F9218907
:1052A000F06904EB81010861D5E85F0F401CC5E897
:1052B000510F0029F8D12089401C80B22081E1895A
:1052C000884200D1278186F80180304600F07AF9C3
:1052D000314611E02046FFF711FF0546606800B92E
:1052E000677032461021284600F064F985F8018085
:1052F000284600F067F92946BDE8F041034800F070
:1053000025B9BDE8F0410320FBF720B9F4000020E7
:1053100070B50446808915460026C8B3608904EB41
:105320008000006908606089401C80B26081E1896A
:10533000884200D16681607802280AD014F10C04FA
:10534000D4E85F0F401EC4E8510F0029F8D10020B7
:1053500070BD2046FFF7D2FE0546606800B9667052
:105360000021284600F020F92189E86904EB810139
:1053700008612089401C80B22081E189884200D1E7
:105380002681284600F01EF92846FFF7F7FDDEE7E4
:10539000FFE73DB10A48626801682AB1204600F083
:1053A000D5F807E0012070BD61600068C0E90164C4
:1053B0000120607008212846FFF768FDF2E7000031
:1053C0009C000020411C13D00B4A4FF6FE71904206
:1053D0000CD800EB4002C2EBC0120848036803EB94
:1053E000C202521EB2FBF3F0884200D90846704751
:1053F0004FF6FF707047000000093D00185D00087F
:1054000070B51A4801210068417000F0BBF8184DD2
:105410006C7816E005EBC40148680278E2B1012A15
:105420001FD000F0FBF8E878641C844200D100240F
:105430000F48801CD0E84F1F491EC0E8421F002AB9
:10544000F8D1A8780028E5D16C700A48FFF756FE1D
:10545000BDE8704000F00EB9896889B2FFF7B4FD6D
:10546000E1E78968FFF7D6FEDDE700009C00002039
:10547000901A0010F40000200548017811B10121B4
:105480004170704703494FF080500860704700003A
:10549000A400002004ED00E0F0B4144B9C1CDD7867
:1054A0004FEA030CD4E84F2FAA4202D1BFF32F8F4B
:1054B0000EE0521CC4E8462F002EF3D1DCE84F2F3B
:1054C000541CAC4200D10024CCE8464F002EF5D14C
:1054D000DC78944205D903EBC202C2E90101F0BCB9
:1054E0007047F0BC0220FBF731B80000901A0010A2
:1054F000154A10B5D368FBB113469B8A09E000BF7B
:10550000D2F80CC0BCF1000F16D0BCF814406246B3
:1055100023448B42F4D3D468C460D0600261D0F8D5
:105520000CC0BCF1000F01D0CCF81000591A8182D8
:10553000908A401A908210BD0024C460D060C91ABD
:1055400002619182848210BD0C01002010B50278A6
:105550000023022A03D0012A01D0032A00D101230B
:1055600091F802C000E01046426812B19478644598
:10557000F9D24A6041601BB102B19160886010BDF0
:105580000020FBE703494A684260002282604860CD
:1055900070470000F400002090F82010406A09B124
:1055A000603070472030704710B50C46FFF7F4FFAD
:1055B000046010BD70B50C461546FFF7EDFFC0E95D
:1055C000004570BD10B5016900290ED0C268CA60DF
:1055D000C36800223BB18B8A848A23448B82C368D0
:1055E0001961C26000E08A82026110BD816839B130
:1055F00042684A604168002901D08068886070472D
:10560000054906E04A68824202D140684860704716
:1056100011460029F6D17047F400002010B541680A
:1056200081B1FFF76BFD0446FFF7CCFF01206070EE
:1056300001462046FFF7B8FF2146BDE81040034869
:10564000FFF784BF4188491C418010BDF400002051
:1056500006480068D0E90910814203D30068044974
:10566000884202D00120FAF771BF70479C000020E9
:10567000A52E5AE20749022248604270064A127873
:10568000002A05D006C98A4202D0C078FFF78CBA3A
:10569000704700009C000020AA0000202DE9F04186
:1056A00004460D469046FFF757FA00200646384953
:1056B000384B02E041F82060401C1A889042F9D330
:1056C0003548302201883548FEF77EFE34480068B0
:1056D00080B240F00042334801683348FEF774FE60
:1056E00032480822018832480068FEF76DFE314FCB
:1056F000FF20314AF8707E8400213846FFF716FDFE
:105700002E480421017046602D480170C660066174
:105710008682786A2030FAF745FD2A482B490760CF
:10572000022078702848067046700978C1702848B1
:1057300001684FF0E0204161866107210161254841
:105740000168254A114301600068224900F07F404A
:10575000C0431439B0FA80F00968C0F10800C1F301
:105760000221814200DB481C1A49091F0B686FF0B7
:105770008072824063F317020A60FFF705FD42461C
:1057800029462046BDE8F041002300F06DB8000036
:10579000141B0010045D0008205D000800000010CC
:1057A000085D0008245D000860010010485D0008E5
:1057B00018000020C400002049050008F400002063
:1057C0000C0100209C000020901A00102C5D0008A5
:1057D000105D000820ED00E00000FFFF0B4810B551
:1057E000006801214170FFF7CDFEFFF76BFB084910
:1057F0000888401C0880FFF789FB00F059FA05482B
:10580000FFF77CFCBDE81040FFF734BF9C00002090
:10581000A8000020F4000020002805D0810702D154
:105820000178002900D000207047000030B50D4CF1
:105830000023226808E000BFB2F808C08C4505D8F4
:1058400013461268A1EB0C01002AF5D189B202605F
:10585000018112B11589691A11810BB1186030BD2F
:10586000206030BD980000202DE9F04180461646AA
:105870001F460D4611F0FF0F00D14D1C1648FFF7D3
:10588000D9FA040026D0280AA6626084E9B242460A
:105890002046E761FFF74AFC01251048104905E062
:1058A00000EB850252F8042C22B16D1C0A88954247
:1058B000F6D9002500EB850040F8044C0948E57056
:1058C000007818B101212046FFF75EF92046FFF766
:1058D00055FB2846BDE8F08100000010141B0010A5
:1058E000045D0008AA0000202DE9F041244C234F5C
:1058F000244B22680026D17808B1814218D103EBED
:105900008100567040F8046C1F48916AFFF7D2FB83
:1059100020688662397811B10021FFF735F91B48FC
:105920002168FFF7C7FB00202660FFF727FB1FE079
:105930001749098888421ED803EB800555F8044CA6
:10594000CCB12046FFF752FE2046FFF73BFE45F85C
:10595000046C0D48A16AFFF7ADFBA662387818B158
:1059600000212046FFF710F921460848FFF7A2FB67
:105970000020BDE8F081FF20FBE70000AA00002026
:105980009C000020141B001060010010000000109B
:10599000045D000802480068002800D0C078704705
:1059A0009C00002000B52DED048B83B041EC180B5A
:1059B000FDF7C2FA41EC190B19EE100A19EE901A14
:1059C0008DED009B002818BF0120084320F0004007
:1059D000C0F17F6000F1E040C00F14D018EE101A43
:1059E00018EE900A8DED008B002918BF01210843A5
:1059F00020F00040C0F17F6000F1E040C00F04BF24
:105A00000120FEF72DFC51EC190B03B0BDEC048B0B
:105A100000BD10B5002805D0FFF7D4FC80B2FFF719
:105A2000CFFA402010BD000070B504000D4608D02C
:105A3000206830B1B4F9040010F1030F01DB032832
:105A400001DD862070BD244E306840B1204600F054
:105A5000C1F8A0B100F0F6F800F002F937E01F48F5
:105A600040070CD11E4801681C48FFF77FFB30B986
:105A7000E16831B11948FFF7EBF9020002D1852046
:105A800070BD0022B4F90400E168001D40EA012164
:105A90002068FFF703FE7068D8B1C078114901EBA8
:105AA000800050F8040C3060416A0D62406A0E4973
:105AB000416300210D4800F021F80D4908600021E4
:105AC0000C4800F087F80C49086000203060002086
:105AD00070BDFF2070BD00009C000020301400103D
